{
  "address": "0x85ACE633a88f34bb93F4FC89AC2c65a69166a5ee",
  "abi": [
    {
      "inputs": [
        {
          "internalType": "uint256",
          "name": "_price",
          "type": "uint256"
        }
      ],
      "stateMutability": "nonpayable",
      "type": "constructor"
    },
    {
      "anonymous": false,
      "inputs": [
        {
          "indexed": true,
          "internalType": "address",
          "name": "previousOwner",
          "type": "address"
        },
        {
          "indexed": true,
          "internalType": "address",
          "name": "newOwner",
          "type": "address"
        }
      ],
      "name": "OwnershipTransferred",
      "type": "event"
    },
    {
      "inputs": [],
      "name": "interfaceId",
      "outputs": [
        {
          "internalType": "bytes4",
          "name": "",
          "type": "bytes4"
        }
      ],
      "stateMutability": "view",
      "type": "function"
    },
    {
      "inputs": [],
      "name": "owner",
      "outputs": [
        {
          "internalType": "address",
          "name": "",
          "type": "address"
        }
      ],
      "stateMutability": "view",
      "type": "function"
    },
    {
      "inputs": [],
      "name": "price",
      "outputs": [
        {
          "internalType": "uint256",
          "name": "",
          "type": "uint256"
        }
      ],
      "stateMutability": "view",
      "type": "function"
    },
    {
      "inputs": [],
      "name": "renounceOwnership",
      "outputs": [],
      "stateMutability": "nonpayable",
      "type": "function"
    },
    {
      "inputs": [
        {
          "internalType": "uint256",
          "name": "_price",
          "type": "uint256"
        }
      ],
      "name": "setPrice",
      "outputs": [],
      "stateMutability": "nonpayable",
      "type": "function"
    },
    {
      "inputs": [
        {
          "internalType": "bytes4",
          "name": "_interfaceId",
          "type": "bytes4"
        }
      ],
      "name": "supportsInterface",
      "outputs": [
        {
          "internalType": "bool",
          "name": "",
          "type": "bool"
        }
      ],
      "stateMutability": "view",
      "type": "function"
    },
    {
      "inputs": [
        {
          "internalType": "address",
          "name": "newOwner",
          "type": "address"
        }
      ],
      "name": "transferOwnership",
      "outputs": [],
      "stateMutability": "nonpayable",
      "type": "function"
    }
  ],
  "transactionHash": "0x62314a71158f3bf35ec8393628345fc6cd3e2a742af7b5b607f169bd52660c93",
  "args": [
    1000000000000000
  ],
  "numDeployments": 1,
  "solcInputHash": "d5ec4854fa7847f983378b0b4173f587",
  "bytecode": "0x608060405234801561001057600080fd5b5060405161045338038061045383398101604081905261002f91610090565b61003833610040565b6001556100a9565b600080546001600160a01b038381166001600160a01b0319831681178455604051919092169283917f8be0079c531659141344cd1fd0a4f28419497f9722a3daafe3b4186f6b6457e09190a35050565b6000602082840312156100a257600080fd5b5051919050565b61039b806100b86000396000f3fe608060405234801561001057600080fd5b506004361061007d5760003560e01c806391b7f5ed1161005b57806391b7f5ed146100cf578063a035b1fe146100e2578063a64d0cd4146100f3578063f2fde38b1461011a57600080fd5b806301ffc9a714610082578063715018a6146100aa5780638da5cb5b146100b4575b600080fd5b6100956100903660046102bd565b61012d565b60405190151581526020015b60405180910390f35b6100b2610164565b005b6000546040516001600160a01b0390911681526020016100a1565b6100b26100dd3660046102ee565b6101a3565b6001546040519081526020016100a1565b61010163501ad8ff60e11b81565b6040516001600160e01b031990911681526020016100a1565b6100b2610128366004610307565b6101d2565b60006001600160e01b0319821663501ad8ff60e11b148061015e57506001600160e01b031982166301ffc9a760e01b145b92915050565b6000546001600160a01b031633146101975760405162461bcd60e51b815260040161018e90610330565b60405180910390fd5b6101a1600061026d565b565b6000546001600160a01b031633146101cd5760405162461bcd60e51b815260040161018e90610330565b600155565b6000546001600160a01b031633146101fc5760405162461bcd60e51b815260040161018e90610330565b6001600160a01b0381166102615760405162461bcd60e51b815260206004820152602660248201527f4f776e61626c653a206e6577206f776e657220697320746865207a65726f206160448201526564647265737360d01b606482015260840161018e565b61026a8161026d565b50565b600080546001600160a01b038381166001600160a01b0319831681178455604051919092169283917f8be0079c531659141344cd1fd0a4f28419497f9722a3daafe3b4186f6b6457e09190a35050565b6000602082840312156102cf57600080fd5b81356001600160e01b0319811681146102e757600080fd5b9392505050565b60006020828403121561030057600080fd5b5035919050565b60006020828403121561031957600080fd5b81356001600160a01b03811681146102e757600080fd5b6020808252818101527f4f776e61626c653a2063616c6c6572206973206e6f7420746865206f776e657260408201526060019056fea2646970667358221220c58e87925a05b6eb9ddf1e081b9c30eb87e8be248bdb4b83e8e30be1544a461164736f6c63430008090033",
  "devdoc": {
    "kind": "dev",
    "methods": {
      "owner()": {
        "details": "Returns the address of the current owner."
      },
      "price()": {
        "details": "Keep price a function for flexibility in the future to compute the price dynamically."
      },
      "renounceOwnership()": {
        "details": "Leaves the contract without owner. It will not be possible to call `onlyOwner` functions anymore. Can only be called by the current owner. NOTE: Renouncing ownership will leave the contract without an owner, thereby removing any functionality that is only available to the owner."
      },
      "transferOwnership(address)": {
        "details": "Transfers ownership of the contract to a new account (`newOwner`). Can only be called by the current owner."
      }
    },
    "version": 1
  },
  "userdoc": {
    "kind": "user",
    "methods": {},
    "version": 1
  },
  "storageLayout": {
    "storage": [
      {
        "astId": 7,
        "contract": "contracts/FixedPricer.sol:FixedPricer",
        "label": "_owner",
        "offset": 0,
        "slot": "0",
        "type": "t_address"
      },
      {
        "astId": 2461,
        "contract": "contracts/FixedPricer.sol:FixedPricer",
        "label": "currentPrice",
        "offset": 0,
        "slot": "1",
        "type": "t_uint256"
      }
    ],
    "types": {
      "t_address": {
        "encoding": "inplace",
        "label": "address",
        "numberOfBytes": "20"
      },
      "t_uint256": {
        "encoding": "inplace",
        "label": "uint256",
        "numberOfBytes": "32"
      }
    }
  }
}