{
  "address": "0x3273be0CA4bD7A4Cb26336E15e39051437f2F422",
  "abi": [
    {
      "inputs": [],
      "stateMutability": "nonpayable",
      "type": "constructor"
    },
    {
      "anonymous": false,
      "inputs": [
        {
          "indexed": true,
          "internalType": "address",
          "name": "previousOwner",
          "type": "address"
        },
        {
          "indexed": true,
          "internalType": "address",
          "name": "newOwner",
          "type": "address"
        }
      ],
      "name": "OwnershipTransferred",
      "type": "event"
    },
    {
      "inputs": [
        {
          "internalType": "uint32[]",
          "name": "_codePoints",
          "type": "uint32[]"
        },
        {
          "internalType": "bool",
          "name": "_illegal",
          "type": "bool"
        }
      ],
      "name": "batchSetIllegalCharacters",
      "outputs": [],
      "stateMutability": "nonpayable",
      "type": "function"
    },
    {
      "inputs": [
        {
          "internalType": "uint32[]",
          "name": "_codePoints",
          "type": "uint32[]"
        },
        {
          "internalType": "bool",
          "name": "_whitespace",
          "type": "bool"
        }
      ],
      "name": "batchSetWhitespaceCharacters",
      "outputs": [],
      "stateMutability": "nonpayable",
      "type": "function"
    },
    {
      "inputs": [
        {
          "internalType": "uint32",
          "name": "",
          "type": "uint32"
        }
      ],
      "name": "illegal",
      "outputs": [
        {
          "internalType": "bool",
          "name": "",
          "type": "bool"
        }
      ],
      "stateMutability": "view",
      "type": "function"
    },
    {
      "inputs": [],
      "name": "interfaceId",
      "outputs": [
        {
          "internalType": "bytes4",
          "name": "",
          "type": "bytes4"
        }
      ],
      "stateMutability": "view",
      "type": "function"
    },
    {
      "inputs": [],
      "name": "owner",
      "outputs": [
        {
          "internalType": "address",
          "name": "",
          "type": "address"
        }
      ],
      "stateMutability": "view",
      "type": "function"
    },
    {
      "inputs": [],
      "name": "renounceOwnership",
      "outputs": [],
      "stateMutability": "nonpayable",
      "type": "function"
    },
    {
      "inputs": [
        {
          "internalType": "uint32",
          "name": "_codePoint",
          "type": "uint32"
        },
        {
          "internalType": "bool",
          "name": "_illegal",
          "type": "bool"
        }
      ],
      "name": "setIllegalCharacter",
      "outputs": [],
      "stateMutability": "nonpayable",
      "type": "function"
    },
    {
      "inputs": [
        {
          "internalType": "uint32",
          "name": "_codePoint",
          "type": "uint32"
        },
        {
          "internalType": "bool",
          "name": "_whitespace",
          "type": "bool"
        }
      ],
      "name": "setWhitespaceCharacter",
      "outputs": [],
      "stateMutability": "nonpayable",
      "type": "function"
    },
    {
      "inputs": [
        {
          "internalType": "bytes4",
          "name": "_interfaceId",
          "type": "bytes4"
        }
      ],
      "name": "supportsInterface",
      "outputs": [
        {
          "internalType": "bool",
          "name": "",
          "type": "bool"
        }
      ],
      "stateMutability": "view",
      "type": "function"
    },
    {
      "inputs": [
        {
          "internalType": "address",
          "name": "newOwner",
          "type": "address"
        }
      ],
      "name": "transferOwnership",
      "outputs": [],
      "stateMutability": "nonpayable",
      "type": "function"
    },
    {
      "inputs": [
        {
          "internalType": "string",
          "name": "_str",
          "type": "string"
        }
      ],
      "name": "valid",
      "outputs": [
        {
          "internalType": "bool",
          "name": "",
          "type": "bool"
        }
      ],
      "stateMutability": "view",
      "type": "function"
    },
    {
      "inputs": [
        {
          "internalType": "uint32",
          "name": "",
          "type": "uint32"
        }
      ],
      "name": "whitespace",
      "outputs": [
        {
          "internalType": "bool",
          "name": "",
          "type": "bool"
        }
      ],
      "stateMutability": "view",
      "type": "function"
    }
  ],
  "transactionHash": "0x5970b1bfb6018ef7bbc64b7759824fd1fe4bbcc3719c9ac08b8f366dcf6ffc1d",
  "args": [],
  "numDeployments": 3,
  "solcInputHash": "79c01f313d6a9b5972f33996bb25049d",
  "bytecode": "0x608060405234801561001057600080fd5b5061001a3361001f565b61006f565b600080546001600160a01b038381166001600160a01b0319831681178455604051919092169283917f8be0079c531659141344cd1fd0a4f28419497f9722a3daafe3b4186f6b6457e09190a35050565b610c698061007e6000396000f3fe608060405234801561001057600080fd5b50600436106100b45760003560e01c80638da5cb5b116100715780638da5cb5b146101575780639791c097146101725780639c7193c914610185578063a64d0cd414610198578063ee2e47c3146101bf578063f2fde38b146101d257600080fd5b806301ffc9a7146100b957806308bd9694146100e157806323309560146100f65780632b1bfb7514610109578063580fcace1461012c578063715018a61461014f575b600080fd5b6100cc6100c736600461084a565b6101e5565b60405190151581526020015b60405180910390f35b6100f46100ef3660046108a2565b61021c565b005b6100f46101043660046108a2565b610277565b6100cc6101173660046108d7565b60026020526000908152604090205460ff1681565b6100cc61013a3660046108d7565b60016020526000908152604090205460ff1681565b6100f46102c9565b6000546040516001600160a01b0390911681526020016100d8565b6100cc610180366004610963565b6102ff565b6100f46101933660046109e3565b610626565b6101a6639791c09760e01b81565b6040516001600160e01b031990911681526020016100d8565b6100f46101cd3660046109e3565b6106c6565b6100f46101e0366004610a67565b61075f565b60006001600160e01b03198216639791c09760e01b148061021657506001600160e01b031982166301ffc9a760e01b145b92915050565b6000546001600160a01b0316331461024f5760405162461bcd60e51b815260040161024690610a90565b60405180910390fd5b63ffffffff919091166000908152600260205260409020805460ff1916911515919091179055565b6000546001600160a01b031633146102a15760405162461bcd60e51b815260040161024690610a90565b63ffffffff919091166000908152600160205260409020805460ff1916911515919091179055565b6000546001600160a01b031633146102f35760405162461bcd60e51b815260040161024690610a90565b6102fd60006107fa565b565b805160405163127b597f60e01b8152600091606091839081907396430365f88A3Ef8E1e9669e8e4287Aa472728449063127b597f906103449089908590600401610b21565b60006040518083038186803b15801561035c57600080fd5b505af4158015610370573d6000803e3d6000fd5b505050506040513d6000823e601f3d908101601f191682016040526103989190810190610b43565b60405163a2be0d9d60e01b815291955092507396430365f88A3Ef8E1e9669e8e4287Aa472728449063a2be0d9d906103d4908790600401610bc4565b60206040518083038186803b1580156103ec57600080fd5b505af4158015610400573d6000803e3d6000fd5b505050506040513d601f19601f820116820180604052508101906104249190610bd7565b63ffffffff811660009081526001602052604090205490915060ff1680610460575063ffffffff811660009081526002602052604090205460ff165b156104715750600095945050505050565b6000805b848410156106045760405163127b597f60e01b81527396430365f88A3Ef8E1e9669e8e4287Aa472728449063127b597f906104b6908b908890600401610b21565b60006040518083038186803b1580156104ce57600080fd5b505af41580156104e2573d6000803e3d6000fd5b505050506040513d6000823e601f3d908101601f1916820160405261050a9190810190610b43565b60405163a2be0d9d60e01b815291975094507396430365f88A3Ef8E1e9669e8e4287Aa472728449063a2be0d9d90610546908990600401610bc4565b60206040518083038186803b15801561055e57600080fd5b505af4158015610572573d6000803e3d6000fd5b505050506040513d601f19601f820116820180604052508101906105969190610bd7565b63ffffffff811660009081526001602052604090205490935060ff16156105c557506000979650505050505050565b63ffffffff831660009081526002602052604090205460ff1691508180156105ea5750805b156105fd57506000979650505050505050565b5080610475565b811561061857506000979650505050505050565b506001979650505050505050565b6000546001600160a01b031633146106505760405162461bcd60e51b815260040161024690610a90565b8160005b818110156106bf57826001600087878581811061067357610673610bf4565b905060200201602081019061068891906108d7565b63ffffffff1681526020810191909152604001600020805460ff1916911515919091179055806106b781610c0a565b915050610654565b5050505050565b6000546001600160a01b031633146106f05760405162461bcd60e51b815260040161024690610a90565b8160005b818110156106bf57826002600087878581811061071357610713610bf4565b905060200201602081019061072891906108d7565b63ffffffff1681526020810191909152604001600020805460ff19169115159190911790558061075781610c0a565b9150506106f4565b6000546001600160a01b031633146107895760405162461bcd60e51b815260040161024690610a90565b6001600160a01b0381166107ee5760405162461bcd60e51b815260206004820152602660248201527f4f776e61626c653a206e6577206f776e657220697320746865207a65726f206160448201526564647265737360d01b6064820152608401610246565b6107f7816107fa565b50565b600080546001600160a01b038381166001600160a01b0319831681178455604051919092169283917f8be0079c531659141344cd1fd0a4f28419497f9722a3daafe3b4186f6b6457e09190a35050565b60006020828403121561085c57600080fd5b81356001600160e01b03198116811461087457600080fd5b9392505050565b63ffffffff811681146107f757600080fd5b8035801515811461089d57600080fd5b919050565b600080604083850312156108b557600080fd5b82356108c08161087b565b91506108ce6020840161088d565b90509250929050565b6000602082840312156108e957600080fd5b81356108748161087b565b634e487b7160e01b600052604160045260246000fd5b604051601f8201601f1916810167ffffffffffffffff81118282101715610933576109336108f4565b604052919050565b600067ffffffffffffffff821115610955576109556108f4565b50601f01601f191660200190565b60006020828403121561097557600080fd5b813567ffffffffffffffff81111561098c57600080fd5b8201601f8101841361099d57600080fd5b80356109b06109ab8261093b565b61090a565b8181528560208385010111156109c557600080fd5b81602084016020830137600091810160200191909152949350505050565b6000806000604084860312156109f857600080fd5b833567ffffffffffffffff80821115610a1057600080fd5b818601915086601f830112610a2457600080fd5b813581811115610a3357600080fd5b8760208260051b8501011115610a4857600080fd5b602092830195509350610a5e918601905061088d565b90509250925092565b600060208284031215610a7957600080fd5b81356001600160a01b038116811461087457600080fd5b6020808252818101527f4f776e61626c653a2063616c6c6572206973206e6f7420746865206f776e6572604082015260600190565b60005b83811015610ae0578181015183820152602001610ac8565b83811115610aef576000848401525b50505050565b60008151808452610b0d816020860160208601610ac5565b601f01601f19169290920160200192915050565b604081526000610b346040830185610af5565b90508260208301529392505050565b60008060408385031215610b5657600080fd5b825167ffffffffffffffff811115610b6d57600080fd5b8301601f81018513610b7e57600080fd5b8051610b8c6109ab8261093b565b818152866020838501011115610ba157600080fd5b610bb2826020830160208601610ac5565b60209590950151949694955050505050565b6020815260006108746020830184610af5565b600060208284031215610be957600080fd5b81516108748161087b565b634e487b7160e01b600052603260045260246000fd5b6000600019821415610c2c57634e487b7160e01b600052601160045260246000fd5b506001019056fea2646970667358221220b8b5ab1a4adf8e6e7787d315613440909c539fff59e50c895c691f3eba23247264736f6c63430008090033",
  "deployedBytecode": "0x608060405234801561001057600080fd5b50600436106100b45760003560e01c80638da5cb5b116100715780638da5cb5b146101575780639791c097146101725780639c7193c914610185578063a64d0cd414610198578063ee2e47c3146101bf578063f2fde38b146101d257600080fd5b806301ffc9a7146100b957806308bd9694146100e157806323309560146100f65780632b1bfb7514610109578063580fcace1461012c578063715018a61461014f575b600080fd5b6100cc6100c736600461084a565b6101e5565b60405190151581526020015b60405180910390f35b6100f46100ef3660046108a2565b61021c565b005b6100f46101043660046108a2565b610277565b6100cc6101173660046108d7565b60026020526000908152604090205460ff1681565b6100cc61013a3660046108d7565b60016020526000908152604090205460ff1681565b6100f46102c9565b6000546040516001600160a01b0390911681526020016100d8565b6100cc610180366004610963565b6102ff565b6100f46101933660046109e3565b610626565b6101a6639791c09760e01b81565b6040516001600160e01b031990911681526020016100d8565b6100f46101cd3660046109e3565b6106c6565b6100f46101e0366004610a67565b61075f565b60006001600160e01b03198216639791c09760e01b148061021657506001600160e01b031982166301ffc9a760e01b145b92915050565b6000546001600160a01b0316331461024f5760405162461bcd60e51b815260040161024690610a90565b60405180910390fd5b63ffffffff919091166000908152600260205260409020805460ff1916911515919091179055565b6000546001600160a01b031633146102a15760405162461bcd60e51b815260040161024690610a90565b63ffffffff919091166000908152600160205260409020805460ff1916911515919091179055565b6000546001600160a01b031633146102f35760405162461bcd60e51b815260040161024690610a90565b6102fd60006107fa565b565b805160405163127b597f60e01b81526000916060918390819073__$4c54b96ad00f384de341f9e252b3fe0452$__9063127b597f906103449089908590600401610b21565b60006040518083038186803b15801561035c57600080fd5b505af4158015610370573d6000803e3d6000fd5b505050506040513d6000823e601f3d908101601f191682016040526103989190810190610b43565b60405163a2be0d9d60e01b8152919550925073__$4c54b96ad00f384de341f9e252b3fe0452$__9063a2be0d9d906103d4908790600401610bc4565b60206040518083038186803b1580156103ec57600080fd5b505af4158015610400573d6000803e3d6000fd5b505050506040513d601f19601f820116820180604052508101906104249190610bd7565b63ffffffff811660009081526001602052604090205490915060ff1680610460575063ffffffff811660009081526002602052604090205460ff165b156104715750600095945050505050565b6000805b848410156106045760405163127b597f60e01b815273__$4c54b96ad00f384de341f9e252b3fe0452$__9063127b597f906104b6908b908890600401610b21565b60006040518083038186803b1580156104ce57600080fd5b505af41580156104e2573d6000803e3d6000fd5b505050506040513d6000823e601f3d908101601f1916820160405261050a9190810190610b43565b60405163a2be0d9d60e01b8152919750945073__$4c54b96ad00f384de341f9e252b3fe0452$__9063a2be0d9d90610546908990600401610bc4565b60206040518083038186803b15801561055e57600080fd5b505af4158015610572573d6000803e3d6000fd5b505050506040513d601f19601f820116820180604052508101906105969190610bd7565b63ffffffff811660009081526001602052604090205490935060ff16156105c557506000979650505050505050565b63ffffffff831660009081526002602052604090205460ff1691508180156105ea5750805b156105fd57506000979650505050505050565b5080610475565b811561061857506000979650505050505050565b506001979650505050505050565b6000546001600160a01b031633146106505760405162461bcd60e51b815260040161024690610a90565b8160005b818110156106bf57826001600087878581811061067357610673610bf4565b905060200201602081019061068891906108d7565b63ffffffff1681526020810191909152604001600020805460ff1916911515919091179055806106b781610c0a565b915050610654565b5050505050565b6000546001600160a01b031633146106f05760405162461bcd60e51b815260040161024690610a90565b8160005b818110156106bf57826002600087878581811061071357610713610bf4565b905060200201602081019061072891906108d7565b63ffffffff1681526020810191909152604001600020805460ff19169115159190911790558061075781610c0a565b9150506106f4565b6000546001600160a01b031633146107895760405162461bcd60e51b815260040161024690610a90565b6001600160a01b0381166107ee5760405162461bcd60e51b815260206004820152602660248201527f4f776e61626c653a206e6577206f776e657220697320746865207a65726f206160448201526564647265737360d01b6064820152608401610246565b6107f7816107fa565b50565b600080546001600160a01b038381166001600160a01b0319831681178455604051919092169283917f8be0079c531659141344cd1fd0a4f28419497f9722a3daafe3b4186f6b6457e09190a35050565b60006020828403121561085c57600080fd5b81356001600160e01b03198116811461087457600080fd5b9392505050565b63ffffffff811681146107f757600080fd5b8035801515811461089d57600080fd5b919050565b600080604083850312156108b557600080fd5b82356108c08161087b565b91506108ce6020840161088d565b90509250929050565b6000602082840312156108e957600080fd5b81356108748161087b565b634e487b7160e01b600052604160045260246000fd5b604051601f8201601f1916810167ffffffffffffffff81118282101715610933576109336108f4565b604052919050565b600067ffffffffffffffff821115610955576109556108f4565b50601f01601f191660200190565b60006020828403121561097557600080fd5b813567ffffffffffffffff81111561098c57600080fd5b8201601f8101841361099d57600080fd5b80356109b06109ab8261093b565b61090a565b8181528560208385010111156109c557600080fd5b81602084016020830137600091810160200191909152949350505050565b6000806000604084860312156109f857600080fd5b833567ffffffffffffffff80821115610a1057600080fd5b818601915086601f830112610a2457600080fd5b813581811115610a3357600080fd5b8760208260051b8501011115610a4857600080fd5b602092830195509350610a5e918601905061088d565b90509250925092565b600060208284031215610a7957600080fd5b81356001600160a01b038116811461087457600080fd5b6020808252818101527f4f776e61626c653a2063616c6c6572206973206e6f7420746865206f776e6572604082015260600190565b60005b83811015610ae0578181015183820152602001610ac8565b83811115610aef576000848401525b50505050565b60008151808452610b0d816020860160208601610ac5565b601f01601f19169290920160200192915050565b604081526000610b346040830185610af5565b90508260208301529392505050565b60008060408385031215610b5657600080fd5b825167ffffffffffffffff811115610b6d57600080fd5b8301601f81018513610b7e57600080fd5b8051610b8c6109ab8261093b565b818152866020838501011115610ba157600080fd5b610bb2826020830160208601610ac5565b60209590950151949694955050505050565b6020815260006108746020830184610af5565b600060208284031215610be957600080fd5b81516108748161087b565b634e487b7160e01b600052603260045260246000fd5b6000600019821415610c2c57634e487b7160e01b600052601160045260246000fd5b506001019056fea2646970667358221220b8b5ab1a4adf8e6e7787d315613440909c539fff59e50c895c691f3eba23247264736f6c63430008090033",
  "libraries": {
    "Unicode": "0x96430365f88A3Ef8E1e9669e8e4287Aa47272844"
  },
  "devdoc": {
    "kind": "dev",
    "methods": {
      "owner()": {
        "details": "Returns the address of the current owner."
      },
      "renounceOwnership()": {
        "details": "Leaves the contract without owner. It will not be possible to call `onlyOwner` functions anymore. Can only be called by the current owner. NOTE: Renouncing ownership will leave the contract without an owner, thereby removing any functionality that is only available to the owner."
      },
      "transferOwnership(address)": {
        "details": "Transfers ownership of the contract to a new account (`newOwner`). Can only be called by the current owner."
      },
      "valid(string)": {
        "details": "Given a string, determine if all it's underlying UTF-8 Unicode characters are valid."
      }
    },
    "version": 1
  },
  "userdoc": {
    "kind": "user",
    "methods": {},
    "version": 1
  },
  "storageLayout": {
    "storage": [
      {
        "astId": 7,
        "contract": "contracts/LemmaValidator.sol:LemmaValidator",
        "label": "_owner",
        "offset": 0,
        "slot": "0",
        "type": "t_address"
      },
      {
        "astId": 2935,
        "contract": "contracts/LemmaValidator.sol:LemmaValidator",
        "label": "illegal",
        "offset": 0,
        "slot": "1",
        "type": "t_mapping(t_uint32,t_bool)"
      },
      {
        "astId": 2939,
        "contract": "contracts/LemmaValidator.sol:LemmaValidator",
        "label": "whitespace",
        "offset": 0,
        "slot": "2",
        "type": "t_mapping(t_uint32,t_bool)"
      }
    ],
    "types": {
      "t_address": {
        "encoding": "inplace",
        "label": "address",
        "numberOfBytes": "20"
      },
      "t_bool": {
        "encoding": "inplace",
        "label": "bool",
        "numberOfBytes": "1"
      },
      "t_mapping(t_uint32,t_bool)": {
        "encoding": "mapping",
        "key": "t_uint32",
        "label": "mapping(uint32 => bool)",
        "numberOfBytes": "32",
        "value": "t_bool"
      },
      "t_uint32": {
        "encoding": "inplace",
        "label": "uint32",
        "numberOfBytes": "4"
      }
    }
  }
}