{
  "address": "0xa4097dADAA50DBe0fEF2dD2D5c6699a930F287a6",
  "abi": [
    {
      "inputs": [
        {
          "internalType": "address",
          "name": "_pricer",
          "type": "address"
        },
        {
          "internalType": "address",
          "name": "_lemmaValidator",
          "type": "address"
        }
      ],
      "stateMutability": "nonpayable",
      "type": "constructor"
    },
    {
      "anonymous": false,
      "inputs": [
        {
          "indexed": true,
          "internalType": "address",
          "name": "owner",
          "type": "address"
        },
        {
          "indexed": true,
          "internalType": "address",
          "name": "approved",
          "type": "address"
        },
        {
          "indexed": true,
          "internalType": "uint256",
          "name": "tokenId",
          "type": "uint256"
        }
      ],
      "name": "Approval",
      "type": "event"
    },
    {
      "anonymous": false,
      "inputs": [
        {
          "indexed": true,
          "internalType": "address",
          "name": "owner",
          "type": "address"
        },
        {
          "indexed": true,
          "internalType": "address",
          "name": "operator",
          "type": "address"
        },
        {
          "indexed": false,
          "internalType": "bool",
          "name": "approved",
          "type": "bool"
        }
      ],
      "name": "ApprovalForAll",
      "type": "event"
    },
    {
      "anonymous": false,
      "inputs": [
        {
          "indexed": true,
          "internalType": "address",
          "name": "owner",
          "type": "address"
        },
        {
          "indexed": true,
          "internalType": "uint256",
          "name": "tokenId",
          "type": "uint256"
        },
        {
          "indexed": false,
          "internalType": "string",
          "name": "definition",
          "type": "string"
        }
      ],
      "name": "Definition",
      "type": "event"
    },
    {
      "anonymous": false,
      "inputs": [
        {
          "indexed": true,
          "internalType": "address",
          "name": "donor",
          "type": "address"
        }
      ],
      "name": "Donation",
      "type": "event"
    },
    {
      "anonymous": false,
      "inputs": [
        {
          "indexed": true,
          "internalType": "address",
          "name": "owner",
          "type": "address"
        },
        {
          "indexed": true,
          "internalType": "uint256",
          "name": "tokenId",
          "type": "uint256"
        },
        {
          "indexed": false,
          "internalType": "string",
          "name": "example",
          "type": "string"
        }
      ],
      "name": "Example",
      "type": "event"
    },
    {
      "anonymous": false,
      "inputs": [
        {
          "indexed": true,
          "internalType": "address",
          "name": "owner",
          "type": "address"
        },
        {
          "indexed": true,
          "internalType": "uint256",
          "name": "tokenId",
          "type": "uint256"
        },
        {
          "indexed": false,
          "internalType": "uint256",
          "name": "fee",
          "type": "uint256"
        },
        {
          "indexed": false,
          "internalType": "uint256",
          "name": "number",
          "type": "uint256"
        },
        {
          "indexed": false,
          "internalType": "string",
          "name": "lemma",
          "type": "string"
        }
      ],
      "name": "Invent",
      "type": "event"
    },
    {
      "anonymous": false,
      "inputs": [
        {
          "indexed": true,
          "internalType": "address",
          "name": "previousOwner",
          "type": "address"
        },
        {
          "indexed": true,
          "internalType": "address",
          "name": "newOwner",
          "type": "address"
        }
      ],
      "name": "OwnershipTransferred",
      "type": "event"
    },
    {
      "anonymous": false,
      "inputs": [
        {
          "indexed": false,
          "internalType": "address",
          "name": "account",
          "type": "address"
        }
      ],
      "name": "Paused",
      "type": "event"
    },
    {
      "anonymous": false,
      "inputs": [
        {
          "indexed": true,
          "internalType": "address",
          "name": "from",
          "type": "address"
        },
        {
          "indexed": true,
          "internalType": "address",
          "name": "to",
          "type": "address"
        },
        {
          "indexed": true,
          "internalType": "uint256",
          "name": "tokenId",
          "type": "uint256"
        }
      ],
      "name": "Transfer",
      "type": "event"
    },
    {
      "anonymous": false,
      "inputs": [
        {
          "indexed": false,
          "internalType": "address",
          "name": "account",
          "type": "address"
        }
      ],
      "name": "Unpaused",
      "type": "event"
    },
    {
      "inputs": [
        {
          "internalType": "address",
          "name": "to",
          "type": "address"
        },
        {
          "internalType": "uint256",
          "name": "tokenId",
          "type": "uint256"
        }
      ],
      "name": "approve",
      "outputs": [],
      "stateMutability": "nonpayable",
      "type": "function"
    },
    {
      "inputs": [
        {
          "internalType": "address",
          "name": "owner",
          "type": "address"
        }
      ],
      "name": "balanceOf",
      "outputs": [
        {
          "internalType": "uint256",
          "name": "",
          "type": "uint256"
        }
      ],
      "stateMutability": "view",
      "type": "function"
    },
    {
      "inputs": [
        {
          "internalType": "uint256",
          "name": "tokenId",
          "type": "uint256"
        },
        {
          "internalType": "string",
          "name": "text",
          "type": "string"
        }
      ],
      "name": "definition",
      "outputs": [],
      "stateMutability": "nonpayable",
      "type": "function"
    },
    {
      "inputs": [],
      "name": "donate",
      "outputs": [],
      "stateMutability": "payable",
      "type": "function"
    },
    {
      "inputs": [
        {
          "internalType": "uint256",
          "name": "tokenId",
          "type": "uint256"
        },
        {
          "internalType": "string",
          "name": "text",
          "type": "string"
        }
      ],
      "name": "example",
      "outputs": [],
      "stateMutability": "nonpayable",
      "type": "function"
    },
    {
      "inputs": [
        {
          "internalType": "uint256",
          "name": "tokenId",
          "type": "uint256"
        }
      ],
      "name": "getApproved",
      "outputs": [
        {
          "internalType": "address",
          "name": "",
          "type": "address"
        }
      ],
      "stateMutability": "view",
      "type": "function"
    },
    {
      "inputs": [
        {
          "internalType": "string",
          "name": "_lemma",
          "type": "string"
        }
      ],
      "name": "getTokenId",
      "outputs": [
        {
          "internalType": "uint256",
          "name": "",
          "type": "uint256"
        }
      ],
      "stateMutability": "pure",
      "type": "function"
    },
    {
      "inputs": [
        {
          "internalType": "address",
          "name": "owner",
          "type": "address"
        },
        {
          "internalType": "address",
          "name": "operator",
          "type": "address"
        }
      ],
      "name": "isApprovedForAll",
      "outputs": [
        {
          "internalType": "bool",
          "name": "",
          "type": "bool"
        }
      ],
      "stateMutability": "view",
      "type": "function"
    },
    {
      "inputs": [
        {
          "internalType": "string",
          "name": "_lemma",
          "type": "string"
        }
      ],
      "name": "lemmaValid",
      "outputs": [
        {
          "internalType": "bool",
          "name": "",
          "type": "bool"
        }
      ],
      "stateMutability": "view",
      "type": "function"
    },
    {
      "inputs": [],
      "name": "lemmaValidator",
      "outputs": [
        {
          "internalType": "contract StringValidator",
          "name": "",
          "type": "address"
        }
      ],
      "stateMutability": "view",
      "type": "function"
    },
    {
      "inputs": [
        {
          "internalType": "string",
          "name": "_lemma",
          "type": "string"
        }
      ],
      "name": "mint",
      "outputs": [
        {
          "internalType": "uint256",
          "name": "tokenId",
          "type": "uint256"
        }
      ],
      "stateMutability": "payable",
      "type": "function"
    },
    {
      "inputs": [],
      "name": "mintFee",
      "outputs": [
        {
          "internalType": "uint256",
          "name": "",
          "type": "uint256"
        }
      ],
      "stateMutability": "view",
      "type": "function"
    },
    {
      "inputs": [],
      "name": "name",
      "outputs": [
        {
          "internalType": "string",
          "name": "",
          "type": "string"
        }
      ],
      "stateMutability": "view",
      "type": "function"
    },
    {
      "inputs": [],
      "name": "owner",
      "outputs": [
        {
          "internalType": "address",
          "name": "",
          "type": "address"
        }
      ],
      "stateMutability": "view",
      "type": "function"
    },
    {
      "inputs": [
        {
          "internalType": "uint256",
          "name": "tokenId",
          "type": "uint256"
        }
      ],
      "name": "ownerOf",
      "outputs": [
        {
          "internalType": "address",
          "name": "",
          "type": "address"
        }
      ],
      "stateMutability": "view",
      "type": "function"
    },
    {
      "inputs": [],
      "name": "pause",
      "outputs": [],
      "stateMutability": "nonpayable",
      "type": "function"
    },
    {
      "inputs": [],
      "name": "paused",
      "outputs": [
        {
          "internalType": "bool",
          "name": "",
          "type": "bool"
        }
      ],
      "stateMutability": "view",
      "type": "function"
    },
    {
      "inputs": [],
      "name": "pricer",
      "outputs": [
        {
          "internalType": "contract Pricer",
          "name": "",
          "type": "address"
        }
      ],
      "stateMutability": "view",
      "type": "function"
    },
    {
      "inputs": [],
      "name": "pricerInterfaceId",
      "outputs": [
        {
          "internalType": "bytes4",
          "name": "",
          "type": "bytes4"
        }
      ],
      "stateMutability": "view",
      "type": "function"
    },
    {
      "inputs": [],
      "name": "renounceOwnership",
      "outputs": [],
      "stateMutability": "nonpayable",
      "type": "function"
    },
    {
      "inputs": [
        {
          "internalType": "address",
          "name": "to",
          "type": "address"
        },
        {
          "internalType": "uint256",
          "name": "tokenId",
          "type": "uint256"
        }
      ],
      "name": "safeMint",
      "outputs": [],
      "stateMutability": "nonpayable",
      "type": "function"
    },
    {
      "inputs": [
        {
          "internalType": "address",
          "name": "from",
          "type": "address"
        },
        {
          "internalType": "address",
          "name": "to",
          "type": "address"
        },
        {
          "internalType": "uint256",
          "name": "tokenId",
          "type": "uint256"
        }
      ],
      "name": "safeTransferFrom",
      "outputs": [],
      "stateMutability": "nonpayable",
      "type": "function"
    },
    {
      "inputs": [
        {
          "internalType": "address",
          "name": "from",
          "type": "address"
        },
        {
          "internalType": "address",
          "name": "to",
          "type": "address"
        },
        {
          "internalType": "uint256",
          "name": "tokenId",
          "type": "uint256"
        },
        {
          "internalType": "bytes",
          "name": "_data",
          "type": "bytes"
        }
      ],
      "name": "safeTransferFrom",
      "outputs": [],
      "stateMutability": "nonpayable",
      "type": "function"
    },
    {
      "inputs": [
        {
          "internalType": "address",
          "name": "operator",
          "type": "address"
        },
        {
          "internalType": "bool",
          "name": "approved",
          "type": "bool"
        }
      ],
      "name": "setApprovalForAll",
      "outputs": [],
      "stateMutability": "nonpayable",
      "type": "function"
    },
    {
      "inputs": [
        {
          "internalType": "address",
          "name": "_address",
          "type": "address"
        }
      ],
      "name": "setLemmaValidator",
      "outputs": [],
      "stateMutability": "nonpayable",
      "type": "function"
    },
    {
      "inputs": [
        {
          "internalType": "address",
          "name": "_address",
          "type": "address"
        }
      ],
      "name": "setPricer",
      "outputs": [],
      "stateMutability": "nonpayable",
      "type": "function"
    },
    {
      "inputs": [],
      "name": "stringValidatorInterfaceId",
      "outputs": [
        {
          "internalType": "bytes4",
          "name": "",
          "type": "bytes4"
        }
      ],
      "stateMutability": "view",
      "type": "function"
    },
    {
      "inputs": [
        {
          "internalType": "bytes4",
          "name": "interfaceId",
          "type": "bytes4"
        }
      ],
      "name": "supportsInterface",
      "outputs": [
        {
          "internalType": "bool",
          "name": "",
          "type": "bool"
        }
      ],
      "stateMutability": "view",
      "type": "function"
    },
    {
      "inputs": [],
      "name": "symbol",
      "outputs": [
        {
          "internalType": "string",
          "name": "",
          "type": "string"
        }
      ],
      "stateMutability": "view",
      "type": "function"
    },
    {
      "inputs": [
        {
          "internalType": "uint256",
          "name": "index",
          "type": "uint256"
        }
      ],
      "name": "tokenByIndex",
      "outputs": [
        {
          "internalType": "uint256",
          "name": "",
          "type": "uint256"
        }
      ],
      "stateMutability": "view",
      "type": "function"
    },
    {
      "inputs": [
        {
          "internalType": "address",
          "name": "owner",
          "type": "address"
        },
        {
          "internalType": "uint256",
          "name": "index",
          "type": "uint256"
        }
      ],
      "name": "tokenOfOwnerByIndex",
      "outputs": [
        {
          "internalType": "uint256",
          "name": "",
          "type": "uint256"
        }
      ],
      "stateMutability": "view",
      "type": "function"
    },
    {
      "inputs": [
        {
          "internalType": "uint256",
          "name": "tokenId",
          "type": "uint256"
        }
      ],
      "name": "tokenURI",
      "outputs": [
        {
          "internalType": "string",
          "name": "",
          "type": "string"
        }
      ],
      "stateMutability": "view",
      "type": "function"
    },
    {
      "inputs": [],
      "name": "totalSupply",
      "outputs": [
        {
          "internalType": "uint256",
          "name": "",
          "type": "uint256"
        }
      ],
      "stateMutability": "view",
      "type": "function"
    },
    {
      "inputs": [
        {
          "internalType": "address",
          "name": "from",
          "type": "address"
        },
        {
          "internalType": "address",
          "name": "to",
          "type": "address"
        },
        {
          "internalType": "uint256",
          "name": "tokenId",
          "type": "uint256"
        }
      ],
      "name": "transferFrom",
      "outputs": [],
      "stateMutability": "nonpayable",
      "type": "function"
    },
    {
      "inputs": [
        {
          "internalType": "address",
          "name": "newOwner",
          "type": "address"
        }
      ],
      "name": "transferOwnership",
      "outputs": [],
      "stateMutability": "nonpayable",
      "type": "function"
    },
    {
      "inputs": [],
      "name": "unpause",
      "outputs": [],
      "stateMutability": "nonpayable",
      "type": "function"
    }
  ],
  "transactionHash": "0xf30402ecc162a04a8d59b52acaa37be69a3512ede2d41d922f18deb2531bd4fb",
  "args": [
    "0x85ACE633a88f34bb93F4FC89AC2c65a69166a5ee",
    "0x3273be0CA4bD7A4Cb26336E15e39051437f2F422"
  ],
  "numDeployments": 1,
  "solcInputHash": "79c01f313d6a9b5972f33996bb25049d",
  "bytecode": "0x60806040523480156200001157600080fd5b506040516200315e3803806200315e833981016040819052620000349162000659565b60408051808201825260118152702a3432902632bc34b1b7b737b6bc903b1960791b6020808301918252835180850190945260038452620988ab60eb1b908401528151919291620000889160009162000596565b5080516200009e90600190602084019062000596565b5050600b805460ff1916905550620000b633620000de565b620000c062000138565b620000cb8262000199565b620000d68162000299565b505062000737565b600b80546001600160a01b03838116610100818102610100600160a81b031985161790945560405193909204169182907f8be0079c531659141344cd1fd0a4f28419497f9722a3daafe3b4186f6b6457e090600090a35050565b600b546001600160a01b036101009091041633146200018d5760405162461bcd60e51b815260206004820181905260248201526000805160206200313e83398151915260448201526064015b60405180910390fd5b62000197620003a7565b565b600b546001600160a01b03610100909104163314620001ea5760405162461bcd60e51b815260206004820181905260248201526000805160206200313e833981519152604482015260640162000184565b6200021463501ad8ff60e11b826001600160a01b03166200044260201b620012b61790919060201c565b620002775760405162461bcd60e51b815260206004820152603b60248201526000805160206200311e83398151915260448201527f6c656d656e74207468652050726963657220696e746572666163650000000000606482015260840162000184565b600c80546001600160a01b0319166001600160a01b0392909216919091179055565b600b546001600160a01b03610100909104163314620002ea5760405162461bcd60e51b815260206004820181905260248201526000805160206200313e833981519152604482015260640162000184565b62000314639791c09760e01b826001600160a01b03166200044260201b620012b61790919060201c565b620003855760405162461bcd60e51b8152602060048201526044602482018190526000805160206200311e833981519152908201527f6c656d656e742074686520537472696e6756616c696461746f7220696e7465726064820152636661636560e01b608482015260a40162000184565b600d80546001600160a01b0319166001600160a01b0392909216919091179055565b600b5460ff1615620003ef5760405162461bcd60e51b815260206004820152601060248201526f14185d5cd8589b194e881c185d5cd95960821b604482015260640162000184565b600b805460ff191660011790557f62e78cea01bee320cd4e420270b5ea74000d11b0c9f74754ebdbfc544b05a258620004253390565b6040516001600160a01b03909116815260200160405180910390a1565b60006200044f836200046c565b8015620004635750620004638383620004a4565b90505b92915050565b600062000481826301ffc9a760e01b620004a4565b80156200046657506200049d826001600160e01b0319620004a4565b1592915050565b604080516001600160e01b0319831660248083019190915282518083039091018152604490910182526020810180516001600160e01b03166301ffc9a760e01b179052905160009190829081906001600160a01b03871690617530906200050d90869062000691565b6000604051808303818686fa925050503d80600081146200054b576040519150601f19603f3d011682016040523d82523d6000602084013e62000550565b606091505b50915091506020815110156200056d576000935050505062000466565b8180156200058c5750808060200190518101906200058c9190620006cf565b9695505050505050565b828054620005a490620006fa565b90600052602060002090601f016020900481019282620005c8576000855562000613565b82601f10620005e357805160ff191683800117855562000613565b8280016001018555821562000613579182015b8281111562000613578251825591602001919060010190620005f6565b506200062192915062000625565b5090565b5b8082111562000621576000815560010162000626565b80516001600160a01b03811681146200065457600080fd5b919050565b600080604083850312156200066d57600080fd5b62000678836200063c565b915062000688602084016200063c565b90509250929050565b6000825160005b81811015620006b4576020818601810151858301520162000698565b81811115620006c4576000828501525b509190910192915050565b600060208284031215620006e257600080fd5b81518015158114620006f357600080fd5b9392505050565b600181811c908216806200070f57607f821691505b602082108114156200073157634e487b7160e01b600052602260045260246000fd5b50919050565b6129d780620007476000396000f3fe60806040526004361061020f5760003560e01c80636352211e11610118578063a1448194116100a0578063c87b56dd1161006f578063c87b56dd14610601578063d85d3d2714610621578063e985e9c514610634578063ed88c68e1461067d578063f2fde38b1461068557600080fd5b8063a144819414610581578063a22cb465146105a1578063a6138ed9146105c1578063b88d4fde146105e157600080fd5b80638da5cb5b116100e75780638da5cb5b146104da57806390697991146104fd57806395d89b411461053157806395df7e56146105465780639efb8eb11461056157600080fd5b80636352211e1461047057806370a0823114610490578063715018a6146104b05780638456cb59146104c557600080fd5b80632f745c591161019b5780634891a1781161016a5780634891a178146103d85780634f6ccce7146103f857806352d41014146104185780635c975abb146104385780635ea297681461045057600080fd5b80632f745c591461036357806336d469d8146103835780633f4ba83a146103a357806342842e0e146103b857600080fd5b806313966db5116101e257806313966db5146102c557806318160ddd146102e85780631e7663bc146102fd57806323b872dd14610323578063293903701461034357600080fd5b806301ffc9a71461021457806306fdde0314610249578063081812fc1461026b578063095ea7b3146102a3575b600080fd5b34801561022057600080fd5b5061023461022f3660046122a3565b6106a5565b60405190151581526020015b60405180910390f35b34801561025557600080fd5b5061025e6106b6565b6040516102409190612318565b34801561027757600080fd5b5061028b61028636600461232b565b610748565b6040516001600160a01b039091168152602001610240565b3480156102af57600080fd5b506102c36102be366004612360565b6107e2565b005b3480156102d157600080fd5b506102da6108f8565b604051908152602001610240565b3480156102f457600080fd5b506008546102da565b34801561030957600080fd5b506102da610318366004612416565b805160209091012090565b34801561032f57600080fd5b506102c361033e36600461245f565b61097a565b34801561034f57600080fd5b506102c361035e36600461249b565b6109ab565b34801561036f57600080fd5b506102da61037e366004612360565b610a89565b34801561038f57600080fd5b506102c361039e36600461249b565b610b1f565b3480156103af57600080fd5b506102c3610c0b565b3480156103c457600080fd5b506102c36103d336600461245f565b610c45565b3480156103e457600080fd5b506102346103f3366004612416565b610c60565b34801561040457600080fd5b506102da61041336600461232b565b610ce1565b34801561042457600080fd5b50600d5461028b906001600160a01b031681565b34801561044457600080fd5b50600b5460ff16610234565b34801561045c57600080fd5b506102c361046b3660046124b6565b610d74565b34801561047c57600080fd5b5061028b61048b36600461232b565b610e0c565b34801561049c57600080fd5b506102da6104ab36600461249b565b610e83565b3480156104bc57600080fd5b506102c3610f0a565b3480156104d157600080fd5b506102c3610f44565b3480156104e657600080fd5b50600b5461010090046001600160a01b031661028b565b34801561050957600080fd5b50610518639791c09760e01b81565b6040516001600160e01b03199091168152602001610240565b34801561053d57600080fd5b5061025e610f7c565b34801561055257600080fd5b5061051863501ad8ff60e11b81565b34801561056d57600080fd5b506102c361057c3660046124b6565b610f8b565b34801561058d57600080fd5b506102c361059c366004612360565b611015565b3480156105ad57600080fd5b506102c36105bc366004612540565b611053565b3480156105cd57600080fd5b50600c5461028b906001600160a01b031681565b3480156105ed57600080fd5b506102c36105fc366004612577565b61105e565b34801561060d57600080fd5b5061025e61061c36600461232b565b611096565b6102da61062f366004612416565b6110a1565b34801561064057600080fd5b5061023461064f3660046125f3565b6001600160a01b03918216600090815260056020908152604080832093909416825291909152205460ff1690565b6102c36111db565b34801561069157600080fd5b506102c36106a036600461249b565b611215565b60006106b0826112d9565b92915050565b6060600080546106c590612626565b80601f01602080910402602001604051908101604052809291908181526020018280546106f190612626565b801561073e5780601f106107135761010080835404028352916020019161073e565b820191906000526020600020905b81548152906001019060200180831161072157829003601f168201915b5050505050905090565b6000818152600260205260408120546001600160a01b03166107c65760405162461bcd60e51b815260206004820152602c60248201527f4552433732313a20617070726f76656420717565727920666f72206e6f6e657860448201526b34b9ba32b73a103a37b5b2b760a11b60648201526084015b60405180910390fd5b506000908152600460205260409020546001600160a01b031690565b60006107ed82610e0c565b9050806001600160a01b0316836001600160a01b0316141561085b5760405162461bcd60e51b815260206004820152602160248201527f4552433732313a20617070726f76616c20746f2063757272656e74206f776e656044820152603960f91b60648201526084016107bd565b336001600160a01b03821614806108775750610877813361064f565b6108e95760405162461bcd60e51b815260206004820152603860248201527f4552433732313a20617070726f76652063616c6c6572206973206e6f74206f7760448201527f6e6572206e6f7220617070726f76656420666f7220616c6c000000000000000060648201526084016107bd565b6108f383836112fe565b505050565b600c546040805163501ad8ff60e11b815290516000926001600160a01b03169163a035b1fe916004808301926020929190829003018186803b15801561093d57600080fd5b505afa158015610951573d6000803e3d6000fd5b505050506040513d601f19601f820116820180604052508101906109759190612661565b905090565b610984338261136c565b6109a05760405162461bcd60e51b81526004016107bd9061267a565b6108f3838383611463565b600b546001600160a01b036101009091041633146109db5760405162461bcd60e51b81526004016107bd906126cb565b6109f56001600160a01b03821663501ad8ff60e11b6112b6565b610a675760405162461bcd60e51b815260206004820152603b60248201527f4c656d6d61546f6b656e3a206164647265737320646f6573206e6f7420696d7060448201527f6c656d656e74207468652050726963657220696e74657266616365000000000060648201526084016107bd565b600c80546001600160a01b0319166001600160a01b0392909216919091179055565b6000610a9483610e83565b8210610af65760405162461bcd60e51b815260206004820152602b60248201527f455243373231456e756d657261626c653a206f776e657220696e646578206f7560448201526a74206f6620626f756e647360a81b60648201526084016107bd565b506001600160a01b03919091166000908152600660209081526040808320938352929052205490565b600b546001600160a01b03610100909104163314610b4f5760405162461bcd60e51b81526004016107bd906126cb565b610b696001600160a01b038216639791c09760e01b6112b6565b610be95760405162461bcd60e51b8152602060048201526044602482018190527f4c656d6d61546f6b656e3a206164647265737320646f6573206e6f7420696d70908201527f6c656d656e742074686520537472696e6756616c696461746f7220696e7465726064820152636661636560e01b608482015260a4016107bd565b600d80546001600160a01b0319166001600160a01b0392909216919091179055565b600b546001600160a01b03610100909104163314610c3b5760405162461bcd60e51b81526004016107bd906126cb565b610c4361160e565b565b6108f38383836040518060200160405280600081525061105e565b600d54604051639791c09760e01b81526000916001600160a01b031690639791c09790610c91908590600401612318565b60206040518083038186803b158015610ca957600080fd5b505afa158015610cbd573d6000803e3d6000fd5b505050506040513d601f19601f820116820180604052508101906106b09190612700565b6000610cec60085490565b8210610d4f5760405162461bcd60e51b815260206004820152602c60248201527f455243373231456e756d657261626c653a20676c6f62616c20696e646578206f60448201526b7574206f6620626f756e647360a01b60648201526084016107bd565b60088281548110610d6257610d6261271d565b90600052602060002001549050919050565b600b5460ff1615610d975760405162461bcd60e51b81526004016107bd90612733565b6000610da3338561136c565b905080610dc25760405162461bcd60e51b81526004016107bd9061275d565b83336001600160a01b03167fc7bf025f4d38f11ad3e169ba0151f04b9ecab0d71335c1137fa5a33ec1b4d6408585604051610dfe9291906127a9565b60405180910390a350505050565b6000818152600260205260408120546001600160a01b0316806106b05760405162461bcd60e51b815260206004820152602960248201527f4552433732313a206f776e657220717565727920666f72206e6f6e657869737460448201526832b73a103a37b5b2b760b91b60648201526084016107bd565b60006001600160a01b038216610eee5760405162461bcd60e51b815260206004820152602a60248201527f4552433732313a2062616c616e636520717565727920666f7220746865207a65604482015269726f206164647265737360b01b60648201526084016107bd565b506001600160a01b031660009081526003602052604090205490565b600b546001600160a01b03610100909104163314610f3a5760405162461bcd60e51b81526004016107bd906126cb565b610c4360006116a1565b600b546001600160a01b03610100909104163314610f745760405162461bcd60e51b81526004016107bd906126cb565b610c436116fb565b6060600180546106c590612626565b600b5460ff1615610fae5760405162461bcd60e51b81526004016107bd90612733565b6000610fba338561136c565b905080610fd95760405162461bcd60e51b81526004016107bd9061275d565b83336001600160a01b03167feb51d73a25def7e9d1760d74d89aeee490fb848ba611ca0c233e545db0ffbc248585604051610dfe9291906127a9565b600b546001600160a01b036101009091041633146110455760405162461bcd60e51b81526004016107bd906126cb565b61104f8282611753565b5050565b61104f33838361176d565b611068338361136c565b6110845760405162461bcd60e51b81526004016107bd9061267a565b6110908484848461183c565b50505050565b60606106b08261186f565b60006110ab6108f8565b3410156110fa5760405162461bcd60e51b815260206004820152601f60248201527f4c656d6d61546f6b656e3a206d696e74696e672066656520746f6f206c6f770060448201526064016107bd565b61110382610c60565b61117f5760405162461bcd60e51b815260206004820152604160248201527f4c656d6d61546f6b656e3a206c656d6d6120697320696e76616c69642e20446f60448201527f657320697420636f6e7461696e20696e76616c696420636861726163746572736064820152603f60f81b608482015260a4016107bd565b50805160208201206111913382611753565b80337f5002b544bdbb8aecfdf3f611e1adb894c5157ccb3a2b3454609e02b0205a1aa9346111be60085490565b866040516111ce939291906127d8565b60405180910390a3919050565b600034116111e857600080fd5b60405133907f187f451f92c6a4236353b5331d5fb67bdbfcc66b54367037fba41d6bcef08ce790600090a2565b600b546001600160a01b036101009091041633146112455760405162461bcd60e51b81526004016107bd906126cb565b6001600160a01b0381166112aa5760405162461bcd60e51b815260206004820152602660248201527f4f776e61626c653a206e6577206f776e657220697320746865207a65726f206160448201526564647265737360d01b60648201526084016107bd565b6112b3816116a1565b50565b60006112c183611a13565b80156112d257506112d28383611a46565b9392505050565b60006001600160e01b0319821663780e9d6360e01b14806106b057506106b082611b2f565b600081815260046020526040902080546001600160a01b0319166001600160a01b038416908117909155819061133382610e0c565b6001600160a01b03167f8c5be1e5ebec7d5bd14f71427d1e84f3dd0314c0f7b2291e5b200ac8c7c3b92560405160405180910390a45050565b6000818152600260205260408120546001600160a01b03166113e55760405162461bcd60e51b815260206004820152602c60248201527f4552433732313a206f70657261746f7220717565727920666f72206e6f6e657860448201526b34b9ba32b73a103a37b5b2b760a11b60648201526084016107bd565b60006113f083610e0c565b9050806001600160a01b0316846001600160a01b0316148061142b5750836001600160a01b031661142084610748565b6001600160a01b0316145b8061145b57506001600160a01b0380821660009081526005602090815260408083209388168352929052205460ff165b949350505050565b826001600160a01b031661147682610e0c565b6001600160a01b0316146114de5760405162461bcd60e51b815260206004820152602960248201527f4552433732313a207472616e73666572206f6620746f6b656e2074686174206960448201526839903737ba1037bbb760b91b60648201526084016107bd565b6001600160a01b0382166115405760405162461bcd60e51b8152602060048201526024808201527f4552433732313a207472616e7366657220746f20746865207a65726f206164646044820152637265737360e01b60648201526084016107bd565b61154b838383611b7f565b6115566000826112fe565b6001600160a01b038316600090815260036020526040812080546001929061157f908490612816565b90915550506001600160a01b03821660009081526003602052604081208054600192906115ad90849061282d565b909155505060008181526002602052604080822080546001600160a01b0319166001600160a01b0386811691821790925591518493918716917fddf252ad1be2c89b69c2b068fc378daa952ba7f163c4a11628f55a4df523b3ef91a4505050565b600b5460ff166116575760405162461bcd60e51b815260206004820152601460248201527314185d5cd8589b194e881b9bdd081c185d5cd95960621b60448201526064016107bd565b600b805460ff191690557f5db9ee0a495bf2e6ff9c91a7834c1ba4fdd244a5e8aa4e537bd38aeae4b073aa335b6040516001600160a01b03909116815260200160405180910390a1565b600b80546001600160a01b03838116610100818102610100600160a81b031985161790945560405193909204169182907f8be0079c531659141344cd1fd0a4f28419497f9722a3daafe3b4186f6b6457e090600090a35050565b600b5460ff161561171e5760405162461bcd60e51b81526004016107bd90612733565b600b805460ff191660011790557f62e78cea01bee320cd4e420270b5ea74000d11b0c9f74754ebdbfc544b05a2586116843390565b61104f828260405180602001604052806000815250611bad565b816001600160a01b0316836001600160a01b031614156117cf5760405162461bcd60e51b815260206004820152601960248201527f4552433732313a20617070726f766520746f2063616c6c65720000000000000060448201526064016107bd565b6001600160a01b03838116600081815260056020908152604080832094871680845294825291829020805460ff191686151590811790915591519182527f17307eab39ab6107e8899845ad3d59bd9653f200f220920489ca2b5937696c31910160405180910390a3505050565b611847848484611463565b61185384848484611be0565b6110905760405162461bcd60e51b81526004016107bd90612845565b6000818152600260205260409020546060906001600160a01b03166118f05760405162461bcd60e51b815260206004820152603160248201527f45524337323155524953746f726167653a2055524920717565727920666f72206044820152703737b732bc34b9ba32b73a103a37b5b2b760791b60648201526084016107bd565b6000828152600a60205260408120805461190990612626565b80601f016020809104026020016040519081016040528092919081815260200182805461193590612626565b80156119825780601f1061195757610100808354040283529160200191611982565b820191906000526020600020905b81548152906001019060200180831161196557829003601f168201915b5050505050905060006119c56040805180820190915260208082527f68747470733a2f2f6c657869636f6e6f6d792e6f72672f6c656d6d612d69642f9082015290565b90508051600014156119d8575092915050565b815115611a0a5780826040516020016119f2929190612897565b60405160208183030381529060405292505050919050565b61145b84611ced565b6000611a26826301ffc9a760e01b611a46565b80156106b05750611a3f826001600160e01b0319611a46565b1592915050565b604080516001600160e01b0319831660248083019190915282518083039091018152604490910182526020810180516001600160e01b03166301ffc9a760e01b179052905160009190829081906001600160a01b0387169061753090611aad9086906128c6565b6000604051808303818686fa925050503d8060008114611ae9576040519150601f19603f3d011682016040523d82523d6000602084013e611aee565b606091505b5091509150602081511015611b0957600093505050506106b0565b818015611b25575080806020019051810190611b259190612700565b9695505050505050565b60006001600160e01b031982166380ac58cd60e01b1480611b6057506001600160e01b03198216635b5e139f60e01b145b806106b057506301ffc9a760e01b6001600160e01b03198316146106b0565b600b5460ff1615611ba25760405162461bcd60e51b81526004016107bd90612733565b6108f3838383611df9565b611bb78383611eb1565b611bc46000848484611be0565b6108f35760405162461bcd60e51b81526004016107bd90612845565b60006001600160a01b0384163b15611ce257604051630a85bd0160e11b81526001600160a01b0385169063150b7a0290611c249033908990889088906004016128e2565b602060405180830381600087803b158015611c3e57600080fd5b505af1925050508015611c6e575060408051601f3d908101601f19168201909252611c6b91810190612915565b60015b611cc8573d808015611c9c576040519150601f19603f3d011682016040523d82523d6000602084013e611ca1565b606091505b508051611cc05760405162461bcd60e51b81526004016107bd90612845565b805181602001fd5b6001600160e01b031916630a85bd0160e11b14905061145b565b506001949350505050565b6000818152600260205260409020546060906001600160a01b0316611d6c5760405162461bcd60e51b815260206004820152602f60248201527f4552433732314d657461646174613a2055524920717565727920666f72206e6f60448201526e3732bc34b9ba32b73a103a37b5b2b760891b60648201526084016107bd565b6000611da86040805180820190915260208082527f68747470733a2f2f6c657869636f6e6f6d792e6f72672f6c656d6d612d69642f9082015290565b90506000815111611dc857604051806020016040528060008152506112d2565b80611dd284611fff565b604051602001611de3929190612897565b6040516020818303038152906040529392505050565b6001600160a01b038316611e5457611e4f81600880546000838152600960205260408120829055600182018355919091527ff3f7a9fe364faab93b216da50a3214154f22a0a2b415b23a84c8169e8b636ee30155565b611e77565b816001600160a01b0316836001600160a01b031614611e7757611e7783826120fd565b6001600160a01b038216611e8e576108f38161219a565b826001600160a01b0316826001600160a01b0316146108f3576108f38282612249565b6001600160a01b038216611f075760405162461bcd60e51b815260206004820181905260248201527f4552433732313a206d696e7420746f20746865207a65726f206164647265737360448201526064016107bd565b6000818152600260205260409020546001600160a01b031615611f6c5760405162461bcd60e51b815260206004820152601c60248201527f4552433732313a20746f6b656e20616c7265616479206d696e7465640000000060448201526064016107bd565b611f7860008383611b7f565b6001600160a01b0382166000908152600360205260408120805460019290611fa190849061282d565b909155505060008181526002602052604080822080546001600160a01b0319166001600160a01b03861690811790915590518392907fddf252ad1be2c89b69c2b068fc378daa952ba7f163c4a11628f55a4df523b3ef908290a45050565b6060816120235750506040805180820190915260018152600360fc1b602082015290565b8160005b811561204d578061203781612932565b91506120469050600a83612963565b9150612027565b60008167ffffffffffffffff8111156120685761206861238a565b6040519080825280601f01601f191660200182016040528015612092576020820181803683370190505b5090505b841561145b576120a7600183612816565b91506120b4600a86612977565b6120bf90603061282d565b60f81b8183815181106120d4576120d461271d565b60200101906001600160f81b031916908160001a9053506120f6600a86612963565b9450612096565b6000600161210a84610e83565b6121149190612816565b600083815260076020526040902054909150808214612167576001600160a01b03841660009081526006602090815260408083208584528252808320548484528184208190558352600790915290208190555b5060009182526007602090815260408084208490556001600160a01b039094168352600681528383209183525290812055565b6008546000906121ac90600190612816565b600083815260096020526040812054600880549394509092849081106121d4576121d461271d565b9060005260206000200154905080600883815481106121f5576121f561271d565b600091825260208083209091019290925582815260099091526040808220849055858252812055600880548061222d5761222d61298b565b6001900381819060005260206000200160009055905550505050565b600061225483610e83565b6001600160a01b039093166000908152600660209081526040808320868452825280832085905593825260079052919091209190915550565b6001600160e01b0319811681146112b357600080fd5b6000602082840312156122b557600080fd5b81356112d28161228d565b60005b838110156122db5781810151838201526020016122c3565b838111156110905750506000910152565b600081518084526123048160208601602086016122c0565b601f01601f19169290920160200192915050565b6020815260006112d260208301846122ec565b60006020828403121561233d57600080fd5b5035919050565b80356001600160a01b038116811461235b57600080fd5b919050565b6000806040838503121561237357600080fd5b61237c83612344565b946020939093013593505050565b634e487b7160e01b600052604160045260246000fd5b600067ffffffffffffffff808411156123bb576123bb61238a565b604051601f8501601f19908116603f011681019082821181831017156123e3576123e361238a565b816040528093508581528686860111156123fc57600080fd5b858560208301376000602087830101525050509392505050565b60006020828403121561242857600080fd5b813567ffffffffffffffff81111561243f57600080fd5b8201601f8101841361245057600080fd5b61145b848235602084016123a0565b60008060006060848603121561247457600080fd5b61247d84612344565b925061248b60208501612344565b9150604084013590509250925092565b6000602082840312156124ad57600080fd5b6112d282612344565b6000806000604084860312156124cb57600080fd5b83359250602084013567ffffffffffffffff808211156124ea57600080fd5b818601915086601f8301126124fe57600080fd5b81358181111561250d57600080fd5b87602082850101111561251f57600080fd5b6020830194508093505050509250925092565b80151581146112b357600080fd5b6000806040838503121561255357600080fd5b61255c83612344565b9150602083013561256c81612532565b809150509250929050565b6000806000806080858703121561258d57600080fd5b61259685612344565b93506125a460208601612344565b925060408501359150606085013567ffffffffffffffff8111156125c757600080fd5b8501601f810187136125d857600080fd5b6125e7878235602084016123a0565b91505092959194509250565b6000806040838503121561260657600080fd5b61260f83612344565b915061261d60208401612344565b90509250929050565b600181811c9082168061263a57607f821691505b6020821081141561265b57634e487b7160e01b600052602260045260246000fd5b50919050565b60006020828403121561267357600080fd5b5051919050565b60208082526031908201527f4552433732313a207472616e736665722063616c6c6572206973206e6f74206f6040820152701ddb995c881b9bdc88185c1c1c9bdd9959607a1b606082015260800190565b6020808252818101527f4f776e61626c653a2063616c6c6572206973206e6f7420746865206f776e6572604082015260600190565b60006020828403121561271257600080fd5b81516112d281612532565b634e487b7160e01b600052603260045260246000fd5b60208082526010908201526f14185d5cd8589b194e881c185d5cd95960821b604082015260600190565b6020808252602c908201527f4c656d6d61546f6b656e3a2063616c6c6572206973206e6f74206f776e65722060408201526b1b9bdc88185c1c1c9bdd995960a21b606082015260800190565b60208152816020820152818360408301376000818301604090810191909152601f909201601f19160101919050565b8381528260208201526060604082015260006127f760608301846122ec565b95945050505050565b634e487b7160e01b600052601160045260246000fd5b60008282101561282857612828612800565b500390565b6000821982111561284057612840612800565b500190565b60208082526032908201527f4552433732313a207472616e7366657220746f206e6f6e20455243373231526560408201527131b2b4bb32b91034b6b83632b6b2b73a32b960711b606082015260800190565b600083516128a98184602088016122c0565b8351908301906128bd8183602088016122c0565b01949350505050565b600082516128d88184602087016122c0565b9190910192915050565b6001600160a01b0385811682528416602082015260408101839052608060608201819052600090611b25908301846122ec565b60006020828403121561292757600080fd5b81516112d28161228d565b600060001982141561294657612946612800565b5060010190565b634e487b7160e01b600052601260045260246000fd5b6000826129725761297261294d565b500490565b6000826129865761298661294d565b500690565b634e487b7160e01b600052603160045260246000fdfea2646970667358221220c8569dbe442ea21c72df92f506a8beffcb6e7033d920fe01341516e2388d915264736f6c634300080900334c656d6d61546f6b656e3a206164647265737320646f6573206e6f7420696d704f776e61626c653a2063616c6c6572206973206e6f7420746865206f776e6572",
  "devdoc": {
    "events": {
      "Donation(address)": {
        "details": "Donation event for donors because they deserve it"
      }
    },
    "kind": "dev",
    "methods": {
      "approve(address,uint256)": {
        "details": "See {IERC721-approve}."
      },
      "balanceOf(address)": {
        "details": "See {IERC721-balanceOf}."
      },
      "definition(uint256,string)": {
        "details": "definition beecause 'define' is a reserved keyword"
      },
      "getApproved(uint256)": {
        "details": "See {IERC721-getApproved}."
      },
      "isApprovedForAll(address,address)": {
        "details": "See {IERC721-isApprovedForAll}."
      },
      "name()": {
        "details": "See {IERC721Metadata-name}."
      },
      "owner()": {
        "details": "Returns the address of the current owner."
      },
      "ownerOf(uint256)": {
        "details": "See {IERC721-ownerOf}."
      },
      "paused()": {
        "details": "Returns true if the contract is paused, and false otherwise."
      },
      "renounceOwnership()": {
        "details": "Leaves the contract without owner. It will not be possible to call `onlyOwner` functions anymore. Can only be called by the current owner. NOTE: Renouncing ownership will leave the contract without an owner, thereby removing any functionality that is only available to the owner."
      },
      "safeTransferFrom(address,address,uint256)": {
        "details": "See {IERC721-safeTransferFrom}."
      },
      "safeTransferFrom(address,address,uint256,bytes)": {
        "details": "See {IERC721-safeTransferFrom}."
      },
      "setApprovalForAll(address,bool)": {
        "details": "See {IERC721-setApprovalForAll}."
      },
      "symbol()": {
        "details": "See {IERC721Metadata-symbol}."
      },
      "tokenByIndex(uint256)": {
        "details": "See {IERC721Enumerable-tokenByIndex}."
      },
      "tokenOfOwnerByIndex(address,uint256)": {
        "details": "See {IERC721Enumerable-tokenOfOwnerByIndex}."
      },
      "totalSupply()": {
        "details": "See {IERC721Enumerable-totalSupply}."
      },
      "transferFrom(address,address,uint256)": {
        "details": "See {IERC721-transferFrom}."
      },
      "transferOwnership(address)": {
        "details": "Transfers ownership of the contract to a new account (`newOwner`). Can only be called by the current owner."
      }
    },
    "version": 1
  },
  "userdoc": {
    "kind": "user",
    "methods": {
      "constructor": {
        "notice": "Creates the main Lexiconomy smart contract instance."
      },
      "donate()": {
        "notice": "Thank you :)"
      }
    },
    "version": 1
  },
  "storageLayout": {
    "storage": [
      {
        "astId": 222,
        "contract": "contracts/Lexiconomy.sol:Lexiconomy",
        "label": "_name",
        "offset": 0,
        "slot": "0",
        "type": "t_string_storage"
      },
      {
        "astId": 224,
        "contract": "contracts/Lexiconomy.sol:Lexiconomy",
        "label": "_symbol",
        "offset": 0,
        "slot": "1",
        "type": "t_string_storage"
      },
      {
        "astId": 228,
        "contract": "contracts/Lexiconomy.sol:Lexiconomy",
        "label": "_owners",
        "offset": 0,
        "slot": "2",
        "type": "t_mapping(t_uint256,t_address)"
      },
      {
        "astId": 232,
        "contract": "contracts/Lexiconomy.sol:Lexiconomy",
        "label": "_balances",
        "offset": 0,
        "slot": "3",
        "type": "t_mapping(t_address,t_uint256)"
      },
      {
        "astId": 236,
        "contract": "contracts/Lexiconomy.sol:Lexiconomy",
        "label": "_tokenApprovals",
        "offset": 0,
        "slot": "4",
        "type": "t_mapping(t_uint256,t_address)"
      },
      {
        "astId": 242,
        "contract": "contracts/Lexiconomy.sol:Lexiconomy",
        "label": "_operatorApprovals",
        "offset": 0,
        "slot": "5",
        "type": "t_mapping(t_address,t_mapping(t_address,t_bool))"
      },
      {
        "astId": 1176,
        "contract": "contracts/Lexiconomy.sol:Lexiconomy",
        "label": "_ownedTokens",
        "offset": 0,
        "slot": "6",
        "type": "t_mapping(t_address,t_mapping(t_uint256,t_uint256))"
      },
      {
        "astId": 1180,
        "contract": "contracts/Lexiconomy.sol:Lexiconomy",
        "label": "_ownedTokensIndex",
        "offset": 0,
        "slot": "7",
        "type": "t_mapping(t_uint256,t_uint256)"
      },
      {
        "astId": 1183,
        "contract": "contracts/Lexiconomy.sol:Lexiconomy",
        "label": "_allTokens",
        "offset": 0,
        "slot": "8",
        "type": "t_array(t_uint256)dyn_storage"
      },
      {
        "astId": 1187,
        "contract": "contracts/Lexiconomy.sol:Lexiconomy",
        "label": "_allTokensIndex",
        "offset": 0,
        "slot": "9",
        "type": "t_mapping(t_uint256,t_uint256)"
      },
      {
        "astId": 1512,
        "contract": "contracts/Lexiconomy.sol:Lexiconomy",
        "label": "_tokenURIs",
        "offset": 0,
        "slot": "10",
        "type": "t_mapping(t_uint256,t_string_storage)"
      },
      {
        "astId": 122,
        "contract": "contracts/Lexiconomy.sol:Lexiconomy",
        "label": "_paused",
        "offset": 0,
        "slot": "11",
        "type": "t_bool"
      },
      {
        "astId": 7,
        "contract": "contracts/Lexiconomy.sol:Lexiconomy",
        "label": "_owner",
        "offset": 1,
        "slot": "11",
        "type": "t_address"
      },
      {
        "astId": 2698,
        "contract": "contracts/Lexiconomy.sol:Lexiconomy",
        "label": "pricer",
        "offset": 0,
        "slot": "12",
        "type": "t_contract(Pricer)3308"
      },
      {
        "astId": 2734,
        "contract": "contracts/Lexiconomy.sol:Lexiconomy",
        "label": "lemmaValidator",
        "offset": 0,
        "slot": "13",
        "type": "t_contract(StringValidator)3321"
      }
    ],
    "types": {
      "t_address": {
        "encoding": "inplace",
        "label": "address",
        "numberOfBytes": "20"
      },
      "t_array(t_uint256)dyn_storage": {
        "base": "t_uint256",
        "encoding": "dynamic_array",
        "label": "uint256[]",
        "numberOfBytes": "32"
      },
      "t_bool": {
        "encoding": "inplace",
        "label": "bool",
        "numberOfBytes": "1"
      },
      "t_contract(Pricer)3308": {
        "encoding": "inplace",
        "label": "contract Pricer",
        "numberOfBytes": "20"
      },
      "t_contract(StringValidator)3321": {
        "encoding": "inplace",
        "label": "contract StringValidator",
        "numberOfBytes": "20"
      },
      "t_mapping(t_address,t_bool)": {
        "encoding": "mapping",
        "key": "t_address",
        "label": "mapping(address => bool)",
        "numberOfBytes": "32",
        "value": "t_bool"
      },
      "t_mapping(t_address,t_mapping(t_address,t_bool))": {
        "encoding": "mapping",
        "key": "t_address",
        "label": "mapping(address => mapping(address => bool))",
        "numberOfBytes": "32",
        "value": "t_mapping(t_address,t_bool)"
      },
      "t_mapping(t_address,t_mapping(t_uint256,t_uint256))": {
        "encoding": "mapping",
        "key": "t_address",
        "label": "mapping(address => mapping(uint256 => uint256))",
        "numberOfBytes": "32",
        "value": "t_mapping(t_uint256,t_uint256)"
      },
      "t_mapping(t_address,t_uint256)": {
        "encoding": "mapping",
        "key": "t_address",
        "label": "mapping(address => uint256)",
        "numberOfBytes": "32",
        "value": "t_uint256"
      },
      "t_mapping(t_uint256,t_address)": {
        "encoding": "mapping",
        "key": "t_uint256",
        "label": "mapping(uint256 => address)",
        "numberOfBytes": "32",
        "value": "t_address"
      },
      "t_mapping(t_uint256,t_string_storage)": {
        "encoding": "mapping",
        "key": "t_uint256",
        "label": "mapping(uint256 => string)",
        "numberOfBytes": "32",
        "value": "t_string_storage"
      },
      "t_mapping(t_uint256,t_uint256)": {
        "encoding": "mapping",
        "key": "t_uint256",
        "label": "mapping(uint256 => uint256)",
        "numberOfBytes": "32",
        "value": "t_uint256"
      },
      "t_string_storage": {
        "encoding": "bytes",
        "label": "string",
        "numberOfBytes": "32"
      },
      "t_uint256": {
        "encoding": "inplace",
        "label": "uint256",
        "numberOfBytes": "32"
      }
    }
  }
}