{
  "address": "0xAfEFf024498D2C78D1Eb9348aBc91912ea80b8E3",
  "abi": [
    {
      "inputs": [
        {
          "internalType": "address",
          "name": "_pricer",
          "type": "address"
        },
        {
          "internalType": "address",
          "name": "_lemmaValidator",
          "type": "address"
        }
      ],
      "stateMutability": "nonpayable",
      "type": "constructor"
    },
    {
      "anonymous": false,
      "inputs": [
        {
          "indexed": true,
          "internalType": "address",
          "name": "owner",
          "type": "address"
        },
        {
          "indexed": true,
          "internalType": "address",
          "name": "approved",
          "type": "address"
        },
        {
          "indexed": true,
          "internalType": "uint256",
          "name": "tokenId",
          "type": "uint256"
        }
      ],
      "name": "Approval",
      "type": "event"
    },
    {
      "anonymous": false,
      "inputs": [
        {
          "indexed": true,
          "internalType": "address",
          "name": "owner",
          "type": "address"
        },
        {
          "indexed": true,
          "internalType": "address",
          "name": "operator",
          "type": "address"
        },
        {
          "indexed": false,
          "internalType": "bool",
          "name": "approved",
          "type": "bool"
        }
      ],
      "name": "ApprovalForAll",
      "type": "event"
    },
    {
      "anonymous": false,
      "inputs": [
        {
          "indexed": true,
          "internalType": "address",
          "name": "owner",
          "type": "address"
        },
        {
          "indexed": true,
          "internalType": "uint256",
          "name": "tokenId",
          "type": "uint256"
        },
        {
          "indexed": false,
          "internalType": "string",
          "name": "definition",
          "type": "string"
        }
      ],
      "name": "Definition",
      "type": "event"
    },
    {
      "anonymous": false,
      "inputs": [
        {
          "indexed": true,
          "internalType": "address",
          "name": "donor",
          "type": "address"
        }
      ],
      "name": "Donation",
      "type": "event"
    },
    {
      "anonymous": false,
      "inputs": [
        {
          "indexed": true,
          "internalType": "address",
          "name": "owner",
          "type": "address"
        },
        {
          "indexed": true,
          "internalType": "uint256",
          "name": "tokenId",
          "type": "uint256"
        },
        {
          "indexed": false,
          "internalType": "string",
          "name": "example",
          "type": "string"
        }
      ],
      "name": "Example",
      "type": "event"
    },
    {
      "anonymous": false,
      "inputs": [
        {
          "indexed": true,
          "internalType": "address",
          "name": "owner",
          "type": "address"
        },
        {
          "indexed": true,
          "internalType": "uint256",
          "name": "tokenId",
          "type": "uint256"
        },
        {
          "indexed": false,
          "internalType": "string",
          "name": "lemma",
          "type": "string"
        }
      ],
      "name": "Invent",
      "type": "event"
    },
    {
      "anonymous": false,
      "inputs": [
        {
          "indexed": true,
          "internalType": "address",
          "name": "previousOwner",
          "type": "address"
        },
        {
          "indexed": true,
          "internalType": "address",
          "name": "newOwner",
          "type": "address"
        }
      ],
      "name": "OwnershipTransferred",
      "type": "event"
    },
    {
      "anonymous": false,
      "inputs": [
        {
          "indexed": false,
          "internalType": "address",
          "name": "account",
          "type": "address"
        }
      ],
      "name": "Paused",
      "type": "event"
    },
    {
      "anonymous": false,
      "inputs": [
        {
          "indexed": true,
          "internalType": "address",
          "name": "from",
          "type": "address"
        },
        {
          "indexed": true,
          "internalType": "address",
          "name": "to",
          "type": "address"
        },
        {
          "indexed": true,
          "internalType": "uint256",
          "name": "tokenId",
          "type": "uint256"
        }
      ],
      "name": "Transfer",
      "type": "event"
    },
    {
      "anonymous": false,
      "inputs": [
        {
          "indexed": false,
          "internalType": "address",
          "name": "account",
          "type": "address"
        }
      ],
      "name": "Unpaused",
      "type": "event"
    },
    {
      "inputs": [
        {
          "internalType": "address",
          "name": "to",
          "type": "address"
        },
        {
          "internalType": "string",
          "name": "_lemma",
          "type": "string"
        },
        {
          "internalType": "string",
          "name": "_definition",
          "type": "string"
        },
        {
          "internalType": "string",
          "name": "_example",
          "type": "string"
        }
      ],
      "name": "airdrop",
      "outputs": [
        {
          "internalType": "uint256",
          "name": "tokenId",
          "type": "uint256"
        }
      ],
      "stateMutability": "nonpayable",
      "type": "function"
    },
    {
      "inputs": [
        {
          "internalType": "address",
          "name": "to",
          "type": "address"
        },
        {
          "internalType": "uint256",
          "name": "tokenId",
          "type": "uint256"
        }
      ],
      "name": "approve",
      "outputs": [],
      "stateMutability": "nonpayable",
      "type": "function"
    },
    {
      "inputs": [
        {
          "internalType": "address",
          "name": "owner",
          "type": "address"
        }
      ],
      "name": "balanceOf",
      "outputs": [
        {
          "internalType": "uint256",
          "name": "",
          "type": "uint256"
        }
      ],
      "stateMutability": "view",
      "type": "function"
    },
    {
      "inputs": [
        {
          "internalType": "uint256",
          "name": "tokenId",
          "type": "uint256"
        },
        {
          "internalType": "string",
          "name": "_text",
          "type": "string"
        }
      ],
      "name": "definition",
      "outputs": [],
      "stateMutability": "nonpayable",
      "type": "function"
    },
    {
      "inputs": [],
      "name": "donate",
      "outputs": [],
      "stateMutability": "payable",
      "type": "function"
    },
    {
      "inputs": [
        {
          "internalType": "uint256",
          "name": "tokenId",
          "type": "uint256"
        },
        {
          "internalType": "string",
          "name": "_text",
          "type": "string"
        }
      ],
      "name": "example",
      "outputs": [],
      "stateMutability": "nonpayable",
      "type": "function"
    },
    {
      "inputs": [
        {
          "internalType": "uint256",
          "name": "tokenId",
          "type": "uint256"
        }
      ],
      "name": "getApproved",
      "outputs": [
        {
          "internalType": "address",
          "name": "",
          "type": "address"
        }
      ],
      "stateMutability": "view",
      "type": "function"
    },
    {
      "inputs": [
        {
          "internalType": "string",
          "name": "_lemma",
          "type": "string"
        }
      ],
      "name": "getTokenId",
      "outputs": [
        {
          "internalType": "uint256",
          "name": "",
          "type": "uint256"
        }
      ],
      "stateMutability": "pure",
      "type": "function"
    },
    {
      "inputs": [
        {
          "internalType": "address",
          "name": "owner",
          "type": "address"
        },
        {
          "internalType": "address",
          "name": "operator",
          "type": "address"
        }
      ],
      "name": "isApprovedForAll",
      "outputs": [
        {
          "internalType": "bool",
          "name": "",
          "type": "bool"
        }
      ],
      "stateMutability": "view",
      "type": "function"
    },
    {
      "inputs": [
        {
          "internalType": "string",
          "name": "_lemma",
          "type": "string"
        }
      ],
      "name": "lemmaValid",
      "outputs": [
        {
          "internalType": "bool",
          "name": "",
          "type": "bool"
        }
      ],
      "stateMutability": "view",
      "type": "function"
    },
    {
      "inputs": [],
      "name": "lemmaValidator",
      "outputs": [
        {
          "internalType": "contract StringValidator",
          "name": "",
          "type": "address"
        }
      ],
      "stateMutability": "view",
      "type": "function"
    },
    {
      "inputs": [
        {
          "internalType": "uint256",
          "name": "",
          "type": "uint256"
        }
      ],
      "name": "lemmas",
      "outputs": [
        {
          "internalType": "string",
          "name": "lemma",
          "type": "string"
        },
        {
          "internalType": "string",
          "name": "definition",
          "type": "string"
        },
        {
          "internalType": "string",
          "name": "example",
          "type": "string"
        },
        {
          "internalType": "uint256",
          "name": "number",
          "type": "uint256"
        }
      ],
      "stateMutability": "view",
      "type": "function"
    },
    {
      "inputs": [
        {
          "internalType": "string",
          "name": "_lemma",
          "type": "string"
        },
        {
          "internalType": "string",
          "name": "_definition",
          "type": "string"
        },
        {
          "internalType": "string",
          "name": "_example",
          "type": "string"
        }
      ],
      "name": "mint",
      "outputs": [
        {
          "internalType": "uint256",
          "name": "tokenId",
          "type": "uint256"
        }
      ],
      "stateMutability": "payable",
      "type": "function"
    },
    {
      "inputs": [],
      "name": "mintFee",
      "outputs": [
        {
          "internalType": "uint256",
          "name": "",
          "type": "uint256"
        }
      ],
      "stateMutability": "view",
      "type": "function"
    },
    {
      "inputs": [],
      "name": "name",
      "outputs": [
        {
          "internalType": "string",
          "name": "",
          "type": "string"
        }
      ],
      "stateMutability": "view",
      "type": "function"
    },
    {
      "inputs": [],
      "name": "owner",
      "outputs": [
        {
          "internalType": "address",
          "name": "",
          "type": "address"
        }
      ],
      "stateMutability": "view",
      "type": "function"
    },
    {
      "inputs": [
        {
          "internalType": "uint256",
          "name": "tokenId",
          "type": "uint256"
        }
      ],
      "name": "ownerOf",
      "outputs": [
        {
          "internalType": "address",
          "name": "",
          "type": "address"
        }
      ],
      "stateMutability": "view",
      "type": "function"
    },
    {
      "inputs": [],
      "name": "pause",
      "outputs": [],
      "stateMutability": "nonpayable",
      "type": "function"
    },
    {
      "inputs": [],
      "name": "paused",
      "outputs": [
        {
          "internalType": "bool",
          "name": "",
          "type": "bool"
        }
      ],
      "stateMutability": "view",
      "type": "function"
    },
    {
      "inputs": [],
      "name": "pricer",
      "outputs": [
        {
          "internalType": "contract Pricer",
          "name": "",
          "type": "address"
        }
      ],
      "stateMutability": "view",
      "type": "function"
    },
    {
      "inputs": [],
      "name": "pricerInterfaceId",
      "outputs": [
        {
          "internalType": "bytes4",
          "name": "",
          "type": "bytes4"
        }
      ],
      "stateMutability": "view",
      "type": "function"
    },
    {
      "inputs": [],
      "name": "proxyRegistryAddress",
      "outputs": [
        {
          "internalType": "address",
          "name": "",
          "type": "address"
        }
      ],
      "stateMutability": "view",
      "type": "function"
    },
    {
      "inputs": [],
      "name": "renounceOwnership",
      "outputs": [],
      "stateMutability": "nonpayable",
      "type": "function"
    },
    {
      "inputs": [
        {
          "internalType": "address",
          "name": "from",
          "type": "address"
        },
        {
          "internalType": "address",
          "name": "to",
          "type": "address"
        },
        {
          "internalType": "uint256",
          "name": "tokenId",
          "type": "uint256"
        }
      ],
      "name": "safeTransferFrom",
      "outputs": [],
      "stateMutability": "nonpayable",
      "type": "function"
    },
    {
      "inputs": [
        {
          "internalType": "address",
          "name": "from",
          "type": "address"
        },
        {
          "internalType": "address",
          "name": "to",
          "type": "address"
        },
        {
          "internalType": "uint256",
          "name": "tokenId",
          "type": "uint256"
        },
        {
          "internalType": "bytes",
          "name": "_data",
          "type": "bytes"
        }
      ],
      "name": "safeTransferFrom",
      "outputs": [],
      "stateMutability": "nonpayable",
      "type": "function"
    },
    {
      "inputs": [
        {
          "internalType": "address",
          "name": "operator",
          "type": "address"
        },
        {
          "internalType": "bool",
          "name": "approved",
          "type": "bool"
        }
      ],
      "name": "setApprovalForAll",
      "outputs": [],
      "stateMutability": "nonpayable",
      "type": "function"
    },
    {
      "inputs": [
        {
          "internalType": "address",
          "name": "_address",
          "type": "address"
        }
      ],
      "name": "setLemmaValidator",
      "outputs": [],
      "stateMutability": "nonpayable",
      "type": "function"
    },
    {
      "inputs": [
        {
          "internalType": "address",
          "name": "_address",
          "type": "address"
        }
      ],
      "name": "setPricer",
      "outputs": [],
      "stateMutability": "nonpayable",
      "type": "function"
    },
    {
      "inputs": [
        {
          "internalType": "address",
          "name": "_address",
          "type": "address"
        }
      ],
      "name": "setProxyRegistryAddress",
      "outputs": [],
      "stateMutability": "nonpayable",
      "type": "function"
    },
    {
      "inputs": [],
      "name": "stringValidatorInterfaceId",
      "outputs": [
        {
          "internalType": "bytes4",
          "name": "",
          "type": "bytes4"
        }
      ],
      "stateMutability": "view",
      "type": "function"
    },
    {
      "inputs": [
        {
          "internalType": "bytes4",
          "name": "interfaceId",
          "type": "bytes4"
        }
      ],
      "name": "supportsInterface",
      "outputs": [
        {
          "internalType": "bool",
          "name": "",
          "type": "bool"
        }
      ],
      "stateMutability": "view",
      "type": "function"
    },
    {
      "inputs": [],
      "name": "symbol",
      "outputs": [
        {
          "internalType": "string",
          "name": "",
          "type": "string"
        }
      ],
      "stateMutability": "view",
      "type": "function"
    },
    {
      "inputs": [
        {
          "internalType": "uint256",
          "name": "index",
          "type": "uint256"
        }
      ],
      "name": "tokenByIndex",
      "outputs": [
        {
          "internalType": "uint256",
          "name": "",
          "type": "uint256"
        }
      ],
      "stateMutability": "view",
      "type": "function"
    },
    {
      "inputs": [
        {
          "internalType": "address",
          "name": "owner",
          "type": "address"
        },
        {
          "internalType": "uint256",
          "name": "index",
          "type": "uint256"
        }
      ],
      "name": "tokenOfOwnerByIndex",
      "outputs": [
        {
          "internalType": "uint256",
          "name": "",
          "type": "uint256"
        }
      ],
      "stateMutability": "view",
      "type": "function"
    },
    {
      "inputs": [
        {
          "internalType": "uint256",
          "name": "tokenId",
          "type": "uint256"
        }
      ],
      "name": "tokenURI",
      "outputs": [
        {
          "internalType": "string",
          "name": "",
          "type": "string"
        }
      ],
      "stateMutability": "view",
      "type": "function"
    },
    {
      "inputs": [],
      "name": "totalSupply",
      "outputs": [
        {
          "internalType": "uint256",
          "name": "",
          "type": "uint256"
        }
      ],
      "stateMutability": "view",
      "type": "function"
    },
    {
      "inputs": [
        {
          "internalType": "address",
          "name": "from",
          "type": "address"
        },
        {
          "internalType": "address",
          "name": "to",
          "type": "address"
        },
        {
          "internalType": "uint256",
          "name": "tokenId",
          "type": "uint256"
        }
      ],
      "name": "transferFrom",
      "outputs": [],
      "stateMutability": "nonpayable",
      "type": "function"
    },
    {
      "inputs": [
        {
          "internalType": "address",
          "name": "newOwner",
          "type": "address"
        }
      ],
      "name": "transferOwnership",
      "outputs": [],
      "stateMutability": "nonpayable",
      "type": "function"
    },
    {
      "inputs": [],
      "name": "unpause",
      "outputs": [],
      "stateMutability": "nonpayable",
      "type": "function"
    }
  ],
  "transactionHash": "0xaeaf664a300385f3ffdf4ff734931052f29c50d654d62feeee389665c81828e7",
  "args": [
    "0xDdF956e33f238bE394787A4C04EF3038E3307802",
    "0xe93234da8074c55E3de7E2Ba886abD0fC59B000f"
  ],
  "numDeployments": 3,
  "solcInputHash": "9146506bff1590de26f808e43ea76b3b",
  "bytecode": "0x60806040523480156200001157600080fd5b506040516200399038038062003990833981016040819052620000349162000659565b60408051808201825260118152702a3432902632bc34b1b7b737b6bc903b1960791b6020808301918252835180850190945260038452620988ab60eb1b908401528151919291620000889160009162000596565b5080516200009e90600190602084019062000596565b5050600b805460ff1916905550620000b633620000de565b620000c062000138565b620000cb8262000199565b620000d68162000299565b505062000737565b600b80546001600160a01b03838116610100818102610100600160a81b031985161790945560405193909204169182907f8be0079c531659141344cd1fd0a4f28419497f9722a3daafe3b4186f6b6457e090600090a35050565b600b546001600160a01b036101009091041633146200018d5760405162461bcd60e51b815260206004820181905260248201526000805160206200397083398151915260448201526064015b60405180910390fd5b62000197620003a7565b565b600b546001600160a01b03610100909104163314620001ea5760405162461bcd60e51b8152602060048201819052602482015260008051602062003970833981519152604482015260640162000184565b6200021463501ad8ff60e11b826001600160a01b03166200044260201b6200161f1790919060201c565b620002775760405162461bcd60e51b815260206004820152603b60248201526000805160206200395083398151915260448201527f6c656d656e74207468652050726963657220696e746572666163650000000000606482015260840162000184565b600e80546001600160a01b0319166001600160a01b0392909216919091179055565b600b546001600160a01b03610100909104163314620002ea5760405162461bcd60e51b8152602060048201819052602482015260008051602062003970833981519152604482015260640162000184565b62000314639791c09760e01b826001600160a01b03166200044260201b6200161f1790919060201c565b620003855760405162461bcd60e51b81526020600482015260446024820181905260008051602062003950833981519152908201527f6c656d656e742074686520537472696e6756616c696461746f7220696e7465726064820152636661636560e01b608482015260a40162000184565b600f80546001600160a01b0319166001600160a01b0392909216919091179055565b600b5460ff1615620003ef5760405162461bcd60e51b815260206004820152601060248201526f14185d5cd8589b194e881c185d5cd95960821b604482015260640162000184565b600b805460ff191660011790557f62e78cea01bee320cd4e420270b5ea74000d11b0c9f74754ebdbfc544b05a258620004253390565b6040516001600160a01b03909116815260200160405180910390a1565b60006200044f836200046c565b8015620004635750620004638383620004a4565b90505b92915050565b600062000481826301ffc9a760e01b620004a4565b80156200046657506200049d826001600160e01b0319620004a4565b1592915050565b604080516001600160e01b0319831660248083019190915282518083039091018152604490910182526020810180516001600160e01b03166301ffc9a760e01b179052905160009190829081906001600160a01b03871690617530906200050d90869062000691565b6000604051808303818686fa925050503d80600081146200054b576040519150601f19603f3d011682016040523d82523d6000602084013e62000550565b606091505b50915091506020815110156200056d576000935050505062000466565b8180156200058c5750808060200190518101906200058c9190620006cf565b9695505050505050565b828054620005a490620006fa565b90600052602060002090601f016020900481019282620005c8576000855562000613565b82601f10620005e357805160ff191683800117855562000613565b8280016001018555821562000613579182015b8281111562000613578251825591602001919060010190620005f6565b506200062192915062000625565b5090565b5b8082111562000621576000815560010162000626565b80516001600160a01b03811681146200065457600080fd5b919050565b600080604083850312156200066d57600080fd5b62000678836200063c565b915062000688602084016200063c565b90509250929050565b6000825160005b81811015620006b4576020818601810151858301520162000698565b81811115620006c4576000828501525b509190910192915050565b600060208284031215620006e257600080fd5b81518015158114620006f357600080fd5b9392505050565b600181811c908216806200070f57607f821691505b602082108114156200073157634e487b7160e01b600052602260045260246000fd5b50919050565b61320980620007476000396000f3fe6080604052600436106102305760003560e01c80636352211e1161012e578063a22cb465116100ab578063d26ea6c01161006f578063d26ea6c01461068c578063d645ddf6146106ac578063e985e9c5146106bf578063ed88c68e146106df578063f2fde38b146106e757600080fd5b8063a22cb465146105ec578063a6138ed91461060c578063b88d4fde1461062c578063c87b56dd1461064c578063cd7c03261461066c57600080fd5b80638da5cb5b116100f25780638da5cb5b14610545578063906979911461056857806395d89b411461059c57806395df7e56146105b15780639efb8eb1146105cc57600080fd5b80636352211e146104bb57806370a08231146104db578063715018a6146104fb5780637e4fbb83146105105780638456cb591461053057600080fd5b80632f745c59116101bc5780634891a178116101805780634891a178146104235780634f6ccce71461044357806352d41014146104635780635c975abb146104835780635ea297681461049b57600080fd5b80632f745c591461037e57806336d469d81461039e5780633f4ba83a146103be57806342842e0e146103d357806347202e5c146103f357600080fd5b806313966db51161020357806313966db5146102e657806318160ddd146103095780631e7663bc1461031e57806323b872dd1461033e578063293903701461035e57600080fd5b806301ffc9a71461023557806306fdde031461026a578063081812fc1461028c578063095ea7b3146102c4575b600080fd5b34801561024157600080fd5b506102556102503660046128b1565b610707565b60405190151581526020015b60405180910390f35b34801561027657600080fd5b5061027f610718565b6040516102619190612926565b34801561029857600080fd5b506102ac6102a7366004612939565b6107aa565b6040516001600160a01b039091168152602001610261565b3480156102d057600080fd5b506102e46102df366004612967565b610844565b005b3480156102f257600080fd5b506102fb61095a565b604051908152602001610261565b34801561031557600080fd5b506008546102fb565b34801561032a57600080fd5b506102fb6103393660046129dc565b6109dc565b34801561034a57600080fd5b506102e4610359366004612a1e565b6109fe565b34801561036a57600080fd5b506102e4610379366004612a5f565b610a2f565b34801561038a57600080fd5b506102fb610399366004612967565b610b0d565b3480156103aa57600080fd5b506102e46103b9366004612a5f565b610ba3565b3480156103ca57600080fd5b506102e4610c8f565b3480156103df57600080fd5b506102e46103ee366004612a1e565b610cc9565b3480156103ff57600080fd5b5061041361040e366004612939565b610ce4565b6040516102619493929190612a7c565b34801561042f57600080fd5b5061025561043e3660046129dc565b610ea4565b34801561044f57600080fd5b506102fb61045e366004612939565b610f2e565b34801561046f57600080fd5b50600f546102ac906001600160a01b031681565b34801561048f57600080fd5b50600b5460ff16610255565b3480156104a757600080fd5b506102e46104b6366004612ac7565b610fc1565b3480156104c757600080fd5b506102ac6104d6366004612939565b611076565b3480156104e757600080fd5b506102fb6104f6366004612a5f565b6110ed565b34801561050757600080fd5b506102e4611174565b34801561051c57600080fd5b506102fb61052b366004612b13565b6111ae565b34801561053c57600080fd5b506102e461122e565b34801561055157600080fd5b50600b5461010090046001600160a01b03166102ac565b34801561057457600080fd5b50610583639791c09760e01b81565b6040516001600160e01b03199091168152602001610261565b3480156105a857600080fd5b5061027f611266565b3480156105bd57600080fd5b5061058363501ad8ff60e11b81565b3480156105d857600080fd5b506102e46105e7366004612ac7565b611275565b3480156105f857600080fd5b506102e4610607366004612bce565b61131c565b34801561061857600080fd5b50600e546102ac906001600160a01b031681565b34801561063857600080fd5b506102e4610647366004612c1d565b61132b565b34801561065857600080fd5b5061027f610667366004612939565b611363565b34801561067857600080fd5b50600c546102ac906001600160a01b031681565b34801561069857600080fd5b506102e46106a7366004612a5f565b61136e565b6102fb6106ba366004612cfd565b6113c0565b3480156106cb57600080fd5b506102556106da366004612d97565b611465565b6102e4611544565b3480156106f357600080fd5b506102e4610702366004612a5f565b61157e565b60006107128261163b565b92915050565b60606000805461072790612dc5565b80601f016020809104026020016040519081016040528092919081815260200182805461075390612dc5565b80156107a05780601f10610775576101008083540402835291602001916107a0565b820191906000526020600020905b81548152906001019060200180831161078357829003601f168201915b5050505050905090565b6000818152600260205260408120546001600160a01b03166108285760405162461bcd60e51b815260206004820152602c60248201527f4552433732313a20617070726f76656420717565727920666f72206e6f6e657860448201526b34b9ba32b73a103a37b5b2b760a11b60648201526084015b60405180910390fd5b506000908152600460205260409020546001600160a01b031690565b600061084f82611076565b9050806001600160a01b0316836001600160a01b031614156108bd5760405162461bcd60e51b815260206004820152602160248201527f4552433732313a20617070726f76616c20746f2063757272656e74206f776e656044820152603960f91b606482015260840161081f565b336001600160a01b03821614806108d957506108d98133611465565b61094b5760405162461bcd60e51b815260206004820152603860248201527f4552433732313a20617070726f76652063616c6c6572206973206e6f74206f7760448201527f6e6572206e6f7220617070726f76656420666f7220616c6c0000000000000000606482015260840161081f565b6109558383611660565b505050565b600e546040805163501ad8ff60e11b815290516000926001600160a01b03169163a035b1fe916004808301926020929190829003018186803b15801561099f57600080fd5b505afa1580156109b3573d6000803e3d6000fd5b505050506040513d601f19601f820116820180604052508101906109d79190612e00565b905090565b600082826040516109ee929190612e19565b6040519081900390209392505050565b610a0833826116ce565b610a245760405162461bcd60e51b815260040161081f90612e29565b6109558383836117a5565b600b546001600160a01b03610100909104163314610a5f5760405162461bcd60e51b815260040161081f90612e7a565b610a796001600160a01b03821663501ad8ff60e11b61161f565b610aeb5760405162461bcd60e51b815260206004820152603b60248201527f4c656d6d61546f6b656e3a206164647265737320646f6573206e6f7420696d7060448201527f6c656d656e74207468652050726963657220696e746572666163650000000000606482015260840161081f565b600e80546001600160a01b0319166001600160a01b0392909216919091179055565b6000610b18836110ed565b8210610b7a5760405162461bcd60e51b815260206004820152602b60248201527f455243373231456e756d657261626c653a206f776e657220696e646578206f7560448201526a74206f6620626f756e647360a81b606482015260840161081f565b506001600160a01b03919091166000908152600660209081526040808320938352929052205490565b600b546001600160a01b03610100909104163314610bd35760405162461bcd60e51b815260040161081f90612e7a565b610bed6001600160a01b038216639791c09760e01b61161f565b610c6d5760405162461bcd60e51b8152602060048201526044602482018190527f4c656d6d61546f6b656e3a206164647265737320646f6573206e6f7420696d70908201527f6c656d656e742074686520537472696e6756616c696461746f7220696e7465726064820152636661636560e01b608482015260a40161081f565b600f80546001600160a01b0319166001600160a01b0392909216919091179055565b600b546001600160a01b03610100909104163314610cbf5760405162461bcd60e51b815260040161081f90612e7a565b610cc761194c565b565b6109558383836040518060200160405280600081525061132b565b600d60205260009081526040902080548190610cff90612dc5565b80601f0160208091040260200160405190810160405280929190818152602001828054610d2b90612dc5565b8015610d785780601f10610d4d57610100808354040283529160200191610d78565b820191906000526020600020905b815481529060010190602001808311610d5b57829003601f168201915b505050505090806001018054610d8d90612dc5565b80601f0160208091040260200160405190810160405280929190818152602001828054610db990612dc5565b8015610e065780601f10610ddb57610100808354040283529160200191610e06565b820191906000526020600020905b815481529060010190602001808311610de957829003601f168201915b505050505090806002018054610e1b90612dc5565b80601f0160208091040260200160405190810160405280929190818152602001828054610e4790612dc5565b8015610e945780601f10610e6957610100808354040283529160200191610e94565b820191906000526020600020905b815481529060010190602001808311610e7757829003601f168201915b5050505050908060030154905084565b600f54604051639791c09760e01b81526000916001600160a01b031690639791c09790610ed79086908690600401612eaf565b60206040518083038186803b158015610eef57600080fd5b505afa158015610f03573d6000803e3d6000fd5b505050506040513d601f19601f82011682018060405250810190610f279190612ede565b9392505050565b6000610f3960085490565b8210610f9c5760405162461bcd60e51b815260206004820152602c60248201527f455243373231456e756d657261626c653a20676c6f62616c20696e646578206f60448201526b7574206f6620626f756e647360a01b606482015260840161081f565b60088281548110610faf57610faf612efb565b90600052602060002001549050919050565b600b5460ff1615610fe45760405162461bcd60e51b815260040161081f90612f11565b6000610ff033856116ce565b90508061100f5760405162461bcd60e51b815260040161081f90612f3b565b6000848152600d6020526040902061102b90600201848461278e565b5083336001600160a01b03167fc7bf025f4d38f11ad3e169ba0151f04b9ecab0d71335c1137fa5a33ec1b4d6408585604051611068929190612eaf565b60405180910390a350505050565b6000818152600260205260408120546001600160a01b0316806107125760405162461bcd60e51b815260206004820152602960248201527f4552433732313a206f776e657220717565727920666f72206e6f6e657869737460448201526832b73a103a37b5b2b760b91b606482015260840161081f565b60006001600160a01b0382166111585760405162461bcd60e51b815260206004820152602a60248201527f4552433732313a2062616c616e636520717565727920666f7220746865207a65604482015269726f206164647265737360b01b606482015260840161081f565b506001600160a01b031660009081526003602052604090205490565b600b546001600160a01b036101009091041633146111a45760405162461bcd60e51b815260040161081f90612e7a565b610cc760006119df565b600b546000906001600160a01b036101009091041633146111e15760405162461bcd60e51b815260040161081f90612e7a565b6111eb8787610ea4565b6112075760405162461bcd60e51b815260040161081f90612f87565b61121187876109dc565b90506112238882898989898989611a39565b979650505050505050565b600b546001600160a01b0361010090910416331461125e5760405162461bcd60e51b815260040161081f90612e7a565b610cc7611c4a565b60606001805461072790612dc5565b600b5460ff16156112985760405162461bcd60e51b815260040161081f90612f11565b60006112a433856116ce565b9050806112c35760405162461bcd60e51b815260040161081f90612f3b565b6000848152600d602052604090206112df90600101848461278e565b5083336001600160a01b03167feb51d73a25def7e9d1760d74d89aeee490fb848ba611ca0c233e545db0ffbc248585604051611068929190612eaf565b611327338383611ca2565b5050565b61133533836116ce565b6113515760405162461bcd60e51b815260040161081f90612e29565b61135d84848484611d71565b50505050565b606061071282611da4565b600b546001600160a01b0361010090910416331461139e5760405162461bcd60e51b815260040161081f90612e7a565b600c80546001600160a01b0319166001600160a01b0392909216919091179055565b60006113ca61095a565b3410156114195760405162461bcd60e51b815260206004820152601f60248201527f4c656d6d61546f6b656e3a206d696e74696e672066656520746f6f206c6f7700604482015260640161081f565b6114238787610ea4565b61143f5760405162461bcd60e51b815260040161081f90612f87565b61144987876109dc565b905061145b3382898989898989611a39565b9695505050505050565b600c546000906001600160a01b03161561151657600c5460405163c455279160e01b81526001600160a01b03858116600483015291821691841690829063c45527919060240160206040518083038186803b1580156114c357600080fd5b505afa1580156114d7573d6000803e3d6000fd5b505050506040513d601f19601f820116820180604052508101906114fb9190612fee565b6001600160a01b03161415611514576001915050610712565b505b6001600160a01b0380841660009081526005602090815260408083209386168352929052205460ff16610f27565b6000341161155157600080fd5b60405133907f187f451f92c6a4236353b5331d5fb67bdbfcc66b54367037fba41d6bcef08ce790600090a2565b600b546001600160a01b036101009091041633146115ae5760405162461bcd60e51b815260040161081f90612e7a565b6001600160a01b0381166116135760405162461bcd60e51b815260206004820152602660248201527f4f776e61626c653a206e6577206f776e657220697320746865207a65726f206160448201526564647265737360d01b606482015260840161081f565b61161c816119df565b50565b600061162a83611f16565b8015610f275750610f278383611f49565b60006001600160e01b0319821663780e9d6360e01b1480610712575061071282612028565b600081815260046020526040902080546001600160a01b0319166001600160a01b038416908117909155819061169582611076565b6001600160a01b03167f8c5be1e5ebec7d5bd14f71427d1e84f3dd0314c0f7b2291e5b200ac8c7c3b92560405160405180910390a45050565b6000818152600260205260408120546001600160a01b03166117475760405162461bcd60e51b815260206004820152602c60248201527f4552433732313a206f70657261746f7220717565727920666f72206e6f6e657860448201526b34b9ba32b73a103a37b5b2b760a11b606482015260840161081f565b600061175283611076565b9050806001600160a01b0316846001600160a01b0316148061177957506117798185611465565b8061179d5750836001600160a01b0316611792846107aa565b6001600160a01b0316145b949350505050565b826001600160a01b03166117b882611076565b6001600160a01b03161461181c5760405162461bcd60e51b815260206004820152602560248201527f4552433732313a207472616e736665722066726f6d20696e636f72726563742060448201526437bbb732b960d91b606482015260840161081f565b6001600160a01b03821661187e5760405162461bcd60e51b8152602060048201526024808201527f4552433732313a207472616e7366657220746f20746865207a65726f206164646044820152637265737360e01b606482015260840161081f565b611889838383612078565b611894600082611660565b6001600160a01b03831660009081526003602052604081208054600192906118bd908490613021565b90915550506001600160a01b03821660009081526003602052604081208054600192906118eb908490613038565b909155505060008181526002602052604080822080546001600160a01b0319166001600160a01b0386811691821790925591518493918716917fddf252ad1be2c89b69c2b068fc378daa952ba7f163c4a11628f55a4df523b3ef91a4505050565b600b5460ff166119955760405162461bcd60e51b815260206004820152601460248201527314185d5cd8589b194e881b9bdd081c185d5cd95960621b604482015260640161081f565b600b805460ff191690557f5db9ee0a495bf2e6ff9c91a7834c1ba4fdd244a5e8aa4e537bd38aeae4b073aa335b6040516001600160a01b03909116815260200160405180910390a1565b600b80546001600160a01b03838116610100818102610100600160a81b031985161790945560405193909204169182907f8be0079c531659141344cd1fd0a4f28419497f9722a3daafe3b4186f6b6457e090600090a35050565b611a4388886120a6565b604051806080016040528087878080601f016020809104026020016040519081016040528093929190818152602001838380828437600092019190915250505090825250604080516020601f880181900481028201810190925286815291810191908790879081908401838280828437600092019190915250505090825250604080516020601f860181900481028201810190925284815291810191908590859081908401838280828437600092019190915250505090825250602001611b0960085490565b90526000888152600d60209081526040909120825180519192611b3192849290910190612812565b506020828101518051611b4a9260018501920190612812565b5060408201518051611b66916002840191602090910190612812565b506060820151816003015590505086886001600160a01b03167f5abec3975d9cd754668d68227983987ab56bb8290c5537243775f0cd3108406d8888604051611bb0929190612eaf565b60405180910390a386886001600160a01b03167feb51d73a25def7e9d1760d74d89aeee490fb848ba611ca0c233e545db0ffbc248686604051611bf4929190612eaf565b60405180910390a386886001600160a01b03167fc7bf025f4d38f11ad3e169ba0151f04b9ecab0d71335c1137fa5a33ec1b4d6408484604051611c38929190612eaf565b60405180910390a35050505050505050565b600b5460ff1615611c6d5760405162461bcd60e51b815260040161081f90612f11565b600b805460ff191660011790557f62e78cea01bee320cd4e420270b5ea74000d11b0c9f74754ebdbfc544b05a2586119c23390565b816001600160a01b0316836001600160a01b03161415611d045760405162461bcd60e51b815260206004820152601960248201527f4552433732313a20617070726f766520746f2063616c6c657200000000000000604482015260640161081f565b6001600160a01b03838116600081815260056020908152604080832094871680845294825291829020805460ff191686151590811790915591519182527f17307eab39ab6107e8899845ad3d59bd9653f200f220920489ca2b5937696c31910160405180910390a3505050565b611d7c8484846117a5565b611d88848484846120c0565b61135d5760405162461bcd60e51b815260040161081f90613050565b6000818152600260205260409020546060906001600160a01b0316611e255760405162461bcd60e51b815260206004820152603160248201527f45524337323155524953746f726167653a2055524920717565727920666f72206044820152703737b732bc34b9ba32b73a103a37b5b2b760791b606482015260840161081f565b6000828152600a602052604081208054611e3e90612dc5565b80601f0160208091040260200160405190810160405280929190818152602001828054611e6a90612dc5565b8015611eb75780601f10611e8c57610100808354040283529160200191611eb7565b820191906000526020600020905b815481529060010190602001808311611e9a57829003601f168201915b505050505090506000611ec86121cd565b9050805160001415611edb575092915050565b815115611f0d578082604051602001611ef59291906130a2565b60405160208183030381529060405292505050919050565b61179d846121ed565b6000611f29826301ffc9a760e01b611f49565b80156107125750611f42826001600160e01b0319611f49565b1592915050565b604080516001600160e01b0319831660248083019190915282518083039091018152604490910182526020810180516001600160e01b03166301ffc9a760e01b179052905160009190829081906001600160a01b0387169061753090611fb09086906130d1565b6000604051808303818686fa925050503d8060008114611fec576040519150601f19603f3d011682016040523d82523d6000602084013e611ff1565b606091505b509150915060208151101561200c5760009350505050610712565b81801561145b57508080602001905181019061145b9190612ede565b60006001600160e01b031982166380ac58cd60e01b148061205957506001600160e01b03198216635b5e139f60e01b145b8061071257506301ffc9a760e01b6001600160e01b0319831614610712565b600b5460ff161561209b5760405162461bcd60e51b815260040161081f90612f11565b6109558383836122c7565b61132782826040518060200160405280600081525061237f565b60006001600160a01b0384163b156121c257604051630a85bd0160e11b81526001600160a01b0385169063150b7a02906121049033908990889088906004016130ed565b602060405180830381600087803b15801561211e57600080fd5b505af192505050801561214e575060408051601f3d908101601f1916820190925261214b91810190613120565b60015b6121a8573d80801561217c576040519150601f19603f3d011682016040523d82523d6000602084013e612181565b606091505b5080516121a05760405162461bcd60e51b815260040161081f90613050565b805181602001fd5b6001600160e01b031916630a85bd0160e11b14905061179d565b506001949350505050565b60606040518060600160405280602781526020016131ad60279139905090565b6000818152600260205260409020546060906001600160a01b031661226c5760405162461bcd60e51b815260206004820152602f60248201527f4552433732314d657461646174613a2055524920717565727920666f72206e6f60448201526e3732bc34b9ba32b73a103a37b5b2b760891b606482015260840161081f565b60006122766121cd565b905060008151116122965760405180602001604052806000815250610f27565b806122a0846123b2565b6040516020016122b19291906130a2565b6040516020818303038152906040529392505050565b6001600160a01b0383166123225761231d81600880546000838152600960205260408120829055600182018355919091527ff3f7a9fe364faab93b216da50a3214154f22a0a2b415b23a84c8169e8b636ee30155565b612345565b816001600160a01b0316836001600160a01b0316146123455761234583826124b0565b6001600160a01b03821661235c576109558161254d565b826001600160a01b0316826001600160a01b0316146109555761095582826125fc565b6123898383612640565b61239660008484846120c0565b6109555760405162461bcd60e51b815260040161081f90613050565b6060816123d65750506040805180820190915260018152600360fc1b602082015290565b8160005b811561240057806123ea8161313d565b91506123f99050600a8361316e565b91506123da565b60008167ffffffffffffffff81111561241b5761241b612c07565b6040519080825280601f01601f191660200182016040528015612445576020820181803683370190505b5090505b841561179d5761245a600183613021565b9150612467600a86613182565b612472906030613038565b60f81b81838151811061248757612487612efb565b60200101906001600160f81b031916908160001a9053506124a9600a8661316e565b9450612449565b600060016124bd846110ed565b6124c79190613021565b60008381526007602052604090205490915080821461251a576001600160a01b03841660009081526006602090815260408083208584528252808320548484528184208190558352600790915290208190555b5060009182526007602090815260408084208490556001600160a01b039094168352600681528383209183525290812055565b60085460009061255f90600190613021565b6000838152600960205260408120546008805493945090928490811061258757612587612efb565b9060005260206000200154905080600883815481106125a8576125a8612efb565b60009182526020808320909101929092558281526009909152604080822084905585825281205560088054806125e0576125e0613196565b6001900381819060005260206000200160009055905550505050565b6000612607836110ed565b6001600160a01b039093166000908152600660209081526040808320868452825280832085905593825260079052919091209190915550565b6001600160a01b0382166126965760405162461bcd60e51b815260206004820181905260248201527f4552433732313a206d696e7420746f20746865207a65726f2061646472657373604482015260640161081f565b6000818152600260205260409020546001600160a01b0316156126fb5760405162461bcd60e51b815260206004820152601c60248201527f4552433732313a20746f6b656e20616c7265616479206d696e74656400000000604482015260640161081f565b61270760008383612078565b6001600160a01b0382166000908152600360205260408120805460019290612730908490613038565b909155505060008181526002602052604080822080546001600160a01b0319166001600160a01b03861690811790915590518392907fddf252ad1be2c89b69c2b068fc378daa952ba7f163c4a11628f55a4df523b3ef908290a45050565b82805461279a90612dc5565b90600052602060002090601f0160209004810192826127bc5760008555612802565b82601f106127d55782800160ff19823516178555612802565b82800160010185558215612802579182015b828111156128025782358255916020019190600101906127e7565b5061280e929150612886565b5090565b82805461281e90612dc5565b90600052602060002090601f0160209004810192826128405760008555612802565b82601f1061285957805160ff1916838001178555612802565b82800160010185558215612802579182015b8281111561280257825182559160200191906001019061286b565b5b8082111561280e5760008155600101612887565b6001600160e01b03198116811461161c57600080fd5b6000602082840312156128c357600080fd5b8135610f278161289b565b60005b838110156128e95781810151838201526020016128d1565b8381111561135d5750506000910152565b600081518084526129128160208601602086016128ce565b601f01601f19169290920160200192915050565b602081526000610f2760208301846128fa565b60006020828403121561294b57600080fd5b5035919050565b6001600160a01b038116811461161c57600080fd5b6000806040838503121561297a57600080fd5b823561298581612952565b946020939093013593505050565b60008083601f8401126129a557600080fd5b50813567ffffffffffffffff8111156129bd57600080fd5b6020830191508360208285010111156129d557600080fd5b9250929050565b600080602083850312156129ef57600080fd5b823567ffffffffffffffff811115612a0657600080fd5b612a1285828601612993565b90969095509350505050565b600080600060608486031215612a3357600080fd5b8335612a3e81612952565b92506020840135612a4e81612952565b929592945050506040919091013590565b600060208284031215612a7157600080fd5b8135610f2781612952565b608081526000612a8f60808301876128fa565b8281036020840152612aa181876128fa565b90508281036040840152612ab581866128fa565b91505082606083015295945050505050565b600080600060408486031215612adc57600080fd5b83359250602084013567ffffffffffffffff811115612afa57600080fd5b612b0686828701612993565b9497909650939450505050565b60008060008060008060006080888a031215612b2e57600080fd5b8735612b3981612952565b9650602088013567ffffffffffffffff80821115612b5657600080fd5b612b628b838c01612993565b909850965060408a0135915080821115612b7b57600080fd5b612b878b838c01612993565b909650945060608a0135915080821115612ba057600080fd5b50612bad8a828b01612993565b989b979a50959850939692959293505050565b801515811461161c57600080fd5b60008060408385031215612be157600080fd5b8235612bec81612952565b91506020830135612bfc81612bc0565b809150509250929050565b634e487b7160e01b600052604160045260246000fd5b60008060008060808587031215612c3357600080fd5b8435612c3e81612952565b93506020850135612c4e81612952565b925060408501359150606085013567ffffffffffffffff80821115612c7257600080fd5b818701915087601f830112612c8657600080fd5b813581811115612c9857612c98612c07565b604051601f8201601f19908116603f01168101908382118183101715612cc057612cc0612c07565b816040528281528a6020848701011115612cd957600080fd5b82602086016020830137600060208483010152809550505050505092959194509250565b60008060008060008060608789031215612d1657600080fd5b863567ffffffffffffffff80821115612d2e57600080fd5b612d3a8a838b01612993565b90985096506020890135915080821115612d5357600080fd5b612d5f8a838b01612993565b90965094506040890135915080821115612d7857600080fd5b50612d8589828a01612993565b979a9699509497509295939492505050565b60008060408385031215612daa57600080fd5b8235612db581612952565b91506020830135612bfc81612952565b600181811c90821680612dd957607f821691505b60208210811415612dfa57634e487b7160e01b600052602260045260246000fd5b50919050565b600060208284031215612e1257600080fd5b5051919050565b8183823760009101908152919050565b60208082526031908201527f4552433732313a207472616e736665722063616c6c6572206973206e6f74206f6040820152701ddb995c881b9bdc88185c1c1c9bdd9959607a1b606082015260800190565b6020808252818101527f4f776e61626c653a2063616c6c6572206973206e6f7420746865206f776e6572604082015260600190565b60208152816020820152818360408301376000818301604090810191909152601f909201601f19160101919050565b600060208284031215612ef057600080fd5b8151610f2781612bc0565b634e487b7160e01b600052603260045260246000fd5b60208082526010908201526f14185d5cd8589b194e881c185d5cd95960821b604082015260600190565b6020808252602c908201527f4c656d6d61546f6b656e3a2063616c6c6572206973206e6f74206f776e65722060408201526b1b9bdc88185c1c1c9bdd995960a21b606082015260800190565b60208082526041908201527f4c656d6d61546f6b656e3a206c656d6d6120697320696e76616c69643a20646f60408201527f657320697420636f6e7461696e20696e76616c696420636861726163746572736060820152603f60f81b608082015260a00190565b60006020828403121561300057600080fd5b8151610f2781612952565b634e487b7160e01b600052601160045260246000fd5b6000828210156130335761303361300b565b500390565b6000821982111561304b5761304b61300b565b500190565b60208082526032908201527f4552433732313a207472616e7366657220746f206e6f6e20455243373231526560408201527131b2b4bb32b91034b6b83632b6b2b73a32b960711b606082015260800190565b600083516130b48184602088016128ce565b8351908301906130c88183602088016128ce565b01949350505050565b600082516130e38184602087016128ce565b9190910192915050565b6001600160a01b038581168252841660208201526040810183905260806060820181905260009061145b908301846128fa565b60006020828403121561313257600080fd5b8151610f278161289b565b60006000198214156131515761315161300b565b5060010190565b634e487b7160e01b600052601260045260246000fd5b60008261317d5761317d613158565b500490565b60008261319157613191613158565b500690565b634e487b7160e01b600052603160045260246000fdfe68747470733a2f2f6c657869636f6e6f6d792d76322e76657263656c2e6170702f746f6b656e2fa26469706673582212206688183cd9e485c28acfb870a5b203316b3350bc77293ab2b390a2482bcbb88864736f6c634300080900334c656d6d61546f6b656e3a206164647265737320646f6573206e6f7420696d704f776e61626c653a2063616c6c6572206973206e6f7420746865206f776e6572",
  "devdoc": {
    "events": {
      "Donation(address)": {
        "details": "Donation event for donors because they deserve it"
      }
    },
    "kind": "dev",
    "methods": {
      "approve(address,uint256)": {
        "details": "See {IERC721-approve}."
      },
      "balanceOf(address)": {
        "details": "See {IERC721-balanceOf}."
      },
      "definition(uint256,string)": {
        "details": "named 'definition' because 'define' is a reserved keyword"
      },
      "getApproved(uint256)": {
        "details": "See {IERC721-getApproved}."
      },
      "isApprovedForAll(address,address)": {
        "details": "See {IERC721-isApprovedForAll}."
      },
      "name()": {
        "details": "See {IERC721Metadata-name}."
      },
      "owner()": {
        "details": "Returns the address of the current owner."
      },
      "ownerOf(uint256)": {
        "details": "See {IERC721-ownerOf}."
      },
      "paused()": {
        "details": "Returns true if the contract is paused, and false otherwise."
      },
      "renounceOwnership()": {
        "details": "Leaves the contract without owner. It will not be possible to call `onlyOwner` functions anymore. Can only be called by the current owner. NOTE: Renouncing ownership will leave the contract without an owner, thereby removing any functionality that is only available to the owner."
      },
      "safeTransferFrom(address,address,uint256)": {
        "details": "See {IERC721-safeTransferFrom}."
      },
      "safeTransferFrom(address,address,uint256,bytes)": {
        "details": "See {IERC721-safeTransferFrom}."
      },
      "setApprovalForAll(address,bool)": {
        "details": "See {IERC721-setApprovalForAll}."
      },
      "symbol()": {
        "details": "See {IERC721Metadata-symbol}."
      },
      "tokenByIndex(uint256)": {
        "details": "See {IERC721Enumerable-tokenByIndex}."
      },
      "tokenOfOwnerByIndex(address,uint256)": {
        "details": "See {IERC721Enumerable-tokenOfOwnerByIndex}."
      },
      "totalSupply()": {
        "details": "See {IERC721Enumerable-totalSupply}."
      },
      "transferFrom(address,address,uint256)": {
        "details": "See {IERC721-transferFrom}."
      },
      "transferOwnership(address)": {
        "details": "Transfers ownership of the contract to a new account (`newOwner`). Can only be called by the current owner."
      }
    },
    "version": 1
  },
  "userdoc": {
    "kind": "user",
    "methods": {
      "constructor": {
        "notice": "Creates the main Lexiconomy smart contract instance."
      },
      "donate()": {
        "notice": "Thank you :)"
      }
    },
    "version": 1
  },
  "storageLayout": {
    "storage": [
      {
        "astId": 222,
        "contract": "contracts/Lexiconomy.sol:Lexiconomy",
        "label": "_name",
        "offset": 0,
        "slot": "0",
        "type": "t_string_storage"
      },
      {
        "astId": 224,
        "contract": "contracts/Lexiconomy.sol:Lexiconomy",
        "label": "_symbol",
        "offset": 0,
        "slot": "1",
        "type": "t_string_storage"
      },
      {
        "astId": 228,
        "contract": "contracts/Lexiconomy.sol:Lexiconomy",
        "label": "_owners",
        "offset": 0,
        "slot": "2",
        "type": "t_mapping(t_uint256,t_address)"
      },
      {
        "astId": 232,
        "contract": "contracts/Lexiconomy.sol:Lexiconomy",
        "label": "_balances",
        "offset": 0,
        "slot": "3",
        "type": "t_mapping(t_address,t_uint256)"
      },
      {
        "astId": 236,
        "contract": "contracts/Lexiconomy.sol:Lexiconomy",
        "label": "_tokenApprovals",
        "offset": 0,
        "slot": "4",
        "type": "t_mapping(t_uint256,t_address)"
      },
      {
        "astId": 242,
        "contract": "contracts/Lexiconomy.sol:Lexiconomy",
        "label": "_operatorApprovals",
        "offset": 0,
        "slot": "5",
        "type": "t_mapping(t_address,t_mapping(t_address,t_bool))"
      },
      {
        "astId": 1211,
        "contract": "contracts/Lexiconomy.sol:Lexiconomy",
        "label": "_ownedTokens",
        "offset": 0,
        "slot": "6",
        "type": "t_mapping(t_address,t_mapping(t_uint256,t_uint256))"
      },
      {
        "astId": 1215,
        "contract": "contracts/Lexiconomy.sol:Lexiconomy",
        "label": "_ownedTokensIndex",
        "offset": 0,
        "slot": "7",
        "type": "t_mapping(t_uint256,t_uint256)"
      },
      {
        "astId": 1218,
        "contract": "contracts/Lexiconomy.sol:Lexiconomy",
        "label": "_allTokens",
        "offset": 0,
        "slot": "8",
        "type": "t_array(t_uint256)dyn_storage"
      },
      {
        "astId": 1222,
        "contract": "contracts/Lexiconomy.sol:Lexiconomy",
        "label": "_allTokensIndex",
        "offset": 0,
        "slot": "9",
        "type": "t_mapping(t_uint256,t_uint256)"
      },
      {
        "astId": 1547,
        "contract": "contracts/Lexiconomy.sol:Lexiconomy",
        "label": "_tokenURIs",
        "offset": 0,
        "slot": "10",
        "type": "t_mapping(t_uint256,t_string_storage)"
      },
      {
        "astId": 122,
        "contract": "contracts/Lexiconomy.sol:Lexiconomy",
        "label": "_paused",
        "offset": 0,
        "slot": "11",
        "type": "t_bool"
      },
      {
        "astId": 7,
        "contract": "contracts/Lexiconomy.sol:Lexiconomy",
        "label": "_owner",
        "offset": 1,
        "slot": "11",
        "type": "t_address"
      },
      {
        "astId": 2678,
        "contract": "contracts/Lexiconomy.sol:Lexiconomy",
        "label": "proxyRegistryAddress",
        "offset": 0,
        "slot": "12",
        "type": "t_address"
      },
      {
        "astId": 2776,
        "contract": "contracts/Lexiconomy.sol:Lexiconomy",
        "label": "lemmas",
        "offset": 0,
        "slot": "13",
        "type": "t_mapping(t_uint256,t_struct(Lemma)2771_storage)"
      },
      {
        "astId": 2785,
        "contract": "contracts/Lexiconomy.sol:Lexiconomy",
        "label": "pricer",
        "offset": 0,
        "slot": "14",
        "type": "t_contract(Pricer)3502"
      },
      {
        "astId": 2821,
        "contract": "contracts/Lexiconomy.sol:Lexiconomy",
        "label": "lemmaValidator",
        "offset": 0,
        "slot": "15",
        "type": "t_contract(StringValidator)3515"
      }
    ],
    "types": {
      "t_address": {
        "encoding": "inplace",
        "label": "address",
        "numberOfBytes": "20"
      },
      "t_array(t_uint256)dyn_storage": {
        "base": "t_uint256",
        "encoding": "dynamic_array",
        "label": "uint256[]",
        "numberOfBytes": "32"
      },
      "t_bool": {
        "encoding": "inplace",
        "label": "bool",
        "numberOfBytes": "1"
      },
      "t_contract(Pricer)3502": {
        "encoding": "inplace",
        "label": "contract Pricer",
        "numberOfBytes": "20"
      },
      "t_contract(StringValidator)3515": {
        "encoding": "inplace",
        "label": "contract StringValidator",
        "numberOfBytes": "20"
      },
      "t_mapping(t_address,t_bool)": {
        "encoding": "mapping",
        "key": "t_address",
        "label": "mapping(address => bool)",
        "numberOfBytes": "32",
        "value": "t_bool"
      },
      "t_mapping(t_address,t_mapping(t_address,t_bool))": {
        "encoding": "mapping",
        "key": "t_address",
        "label": "mapping(address => mapping(address => bool))",
        "numberOfBytes": "32",
        "value": "t_mapping(t_address,t_bool)"
      },
      "t_mapping(t_address,t_mapping(t_uint256,t_uint256))": {
        "encoding": "mapping",
        "key": "t_address",
        "label": "mapping(address => mapping(uint256 => uint256))",
        "numberOfBytes": "32",
        "value": "t_mapping(t_uint256,t_uint256)"
      },
      "t_mapping(t_address,t_uint256)": {
        "encoding": "mapping",
        "key": "t_address",
        "label": "mapping(address => uint256)",
        "numberOfBytes": "32",
        "value": "t_uint256"
      },
      "t_mapping(t_uint256,t_address)": {
        "encoding": "mapping",
        "key": "t_uint256",
        "label": "mapping(uint256 => address)",
        "numberOfBytes": "32",
        "value": "t_address"
      },
      "t_mapping(t_uint256,t_string_storage)": {
        "encoding": "mapping",
        "key": "t_uint256",
        "label": "mapping(uint256 => string)",
        "numberOfBytes": "32",
        "value": "t_string_storage"
      },
      "t_mapping(t_uint256,t_struct(Lemma)2771_storage)": {
        "encoding": "mapping",
        "key": "t_uint256",
        "label": "mapping(uint256 => struct LemmaToken.Lemma)",
        "numberOfBytes": "32",
        "value": "t_struct(Lemma)2771_storage"
      },
      "t_mapping(t_uint256,t_uint256)": {
        "encoding": "mapping",
        "key": "t_uint256",
        "label": "mapping(uint256 => uint256)",
        "numberOfBytes": "32",
        "value": "t_uint256"
      },
      "t_string_storage": {
        "encoding": "bytes",
        "label": "string",
        "numberOfBytes": "32"
      },
      "t_struct(Lemma)2771_storage": {
        "encoding": "inplace",
        "label": "struct LemmaToken.Lemma",
        "members": [
          {
            "astId": 2764,
            "contract": "contracts/Lexiconomy.sol:Lexiconomy",
            "label": "lemma",
            "offset": 0,
            "slot": "0",
            "type": "t_string_storage"
          },
          {
            "astId": 2766,
            "contract": "contracts/Lexiconomy.sol:Lexiconomy",
            "label": "definition",
            "offset": 0,
            "slot": "1",
            "type": "t_string_storage"
          },
          {
            "astId": 2768,
            "contract": "contracts/Lexiconomy.sol:Lexiconomy",
            "label": "example",
            "offset": 0,
            "slot": "2",
            "type": "t_string_storage"
          },
          {
            "astId": 2770,
            "contract": "contracts/Lexiconomy.sol:Lexiconomy",
            "label": "number",
            "offset": 0,
            "slot": "3",
            "type": "t_uint256"
          }
        ],
        "numberOfBytes": "128"
      },
      "t_uint256": {
        "encoding": "inplace",
        "label": "uint256",
        "numberOfBytes": "32"
      }
    }
  }
}