{
  "address": "0x7eD6F31435865be21209e372B367687523441CCE",
  "abi": [
    {
      "inputs": [
        {
          "internalType": "address",
          "name": "_pricer",
          "type": "address"
        },
        {
          "internalType": "address",
          "name": "_lemmaValidator",
          "type": "address"
        }
      ],
      "stateMutability": "nonpayable",
      "type": "constructor"
    },
    {
      "anonymous": false,
      "inputs": [
        {
          "indexed": true,
          "internalType": "address",
          "name": "owner",
          "type": "address"
        },
        {
          "indexed": true,
          "internalType": "address",
          "name": "approved",
          "type": "address"
        },
        {
          "indexed": true,
          "internalType": "uint256",
          "name": "tokenId",
          "type": "uint256"
        }
      ],
      "name": "Approval",
      "type": "event"
    },
    {
      "anonymous": false,
      "inputs": [
        {
          "indexed": true,
          "internalType": "address",
          "name": "owner",
          "type": "address"
        },
        {
          "indexed": true,
          "internalType": "address",
          "name": "operator",
          "type": "address"
        },
        {
          "indexed": false,
          "internalType": "bool",
          "name": "approved",
          "type": "bool"
        }
      ],
      "name": "ApprovalForAll",
      "type": "event"
    },
    {
      "anonymous": false,
      "inputs": [
        {
          "indexed": true,
          "internalType": "address",
          "name": "owner",
          "type": "address"
        },
        {
          "indexed": true,
          "internalType": "uint256",
          "name": "tokenId",
          "type": "uint256"
        },
        {
          "indexed": false,
          "internalType": "string",
          "name": "definition",
          "type": "string"
        }
      ],
      "name": "Definition",
      "type": "event"
    },
    {
      "anonymous": false,
      "inputs": [
        {
          "indexed": true,
          "internalType": "address",
          "name": "donor",
          "type": "address"
        }
      ],
      "name": "Donation",
      "type": "event"
    },
    {
      "anonymous": false,
      "inputs": [
        {
          "indexed": true,
          "internalType": "address",
          "name": "owner",
          "type": "address"
        },
        {
          "indexed": true,
          "internalType": "uint256",
          "name": "tokenId",
          "type": "uint256"
        },
        {
          "indexed": false,
          "internalType": "string",
          "name": "example",
          "type": "string"
        }
      ],
      "name": "Example",
      "type": "event"
    },
    {
      "anonymous": false,
      "inputs": [
        {
          "indexed": true,
          "internalType": "address",
          "name": "owner",
          "type": "address"
        },
        {
          "indexed": true,
          "internalType": "uint256",
          "name": "tokenId",
          "type": "uint256"
        },
        {
          "indexed": false,
          "internalType": "string",
          "name": "lemma",
          "type": "string"
        }
      ],
      "name": "Invent",
      "type": "event"
    },
    {
      "anonymous": false,
      "inputs": [
        {
          "indexed": true,
          "internalType": "address",
          "name": "previousOwner",
          "type": "address"
        },
        {
          "indexed": true,
          "internalType": "address",
          "name": "newOwner",
          "type": "address"
        }
      ],
      "name": "OwnershipTransferred",
      "type": "event"
    },
    {
      "anonymous": false,
      "inputs": [
        {
          "indexed": false,
          "internalType": "address",
          "name": "account",
          "type": "address"
        }
      ],
      "name": "Paused",
      "type": "event"
    },
    {
      "anonymous": false,
      "inputs": [
        {
          "indexed": true,
          "internalType": "address",
          "name": "from",
          "type": "address"
        },
        {
          "indexed": true,
          "internalType": "address",
          "name": "to",
          "type": "address"
        },
        {
          "indexed": true,
          "internalType": "uint256",
          "name": "tokenId",
          "type": "uint256"
        }
      ],
      "name": "Transfer",
      "type": "event"
    },
    {
      "anonymous": false,
      "inputs": [
        {
          "indexed": false,
          "internalType": "address",
          "name": "account",
          "type": "address"
        }
      ],
      "name": "Unpaused",
      "type": "event"
    },
    {
      "inputs": [
        {
          "internalType": "address",
          "name": "to",
          "type": "address"
        },
        {
          "internalType": "uint256",
          "name": "tokenId",
          "type": "uint256"
        }
      ],
      "name": "approve",
      "outputs": [],
      "stateMutability": "nonpayable",
      "type": "function"
    },
    {
      "inputs": [
        {
          "internalType": "address",
          "name": "owner",
          "type": "address"
        }
      ],
      "name": "balanceOf",
      "outputs": [
        {
          "internalType": "uint256",
          "name": "",
          "type": "uint256"
        }
      ],
      "stateMutability": "view",
      "type": "function"
    },
    {
      "inputs": [
        {
          "internalType": "uint256",
          "name": "tokenId",
          "type": "uint256"
        },
        {
          "internalType": "string",
          "name": "_text",
          "type": "string"
        }
      ],
      "name": "definition",
      "outputs": [],
      "stateMutability": "nonpayable",
      "type": "function"
    },
    {
      "inputs": [],
      "name": "donate",
      "outputs": [],
      "stateMutability": "payable",
      "type": "function"
    },
    {
      "inputs": [
        {
          "internalType": "uint256",
          "name": "tokenId",
          "type": "uint256"
        },
        {
          "internalType": "string",
          "name": "_text",
          "type": "string"
        }
      ],
      "name": "example",
      "outputs": [],
      "stateMutability": "nonpayable",
      "type": "function"
    },
    {
      "inputs": [
        {
          "internalType": "uint256",
          "name": "tokenId",
          "type": "uint256"
        }
      ],
      "name": "getApproved",
      "outputs": [
        {
          "internalType": "address",
          "name": "",
          "type": "address"
        }
      ],
      "stateMutability": "view",
      "type": "function"
    },
    {
      "inputs": [
        {
          "internalType": "string",
          "name": "_lemma",
          "type": "string"
        }
      ],
      "name": "getTokenId",
      "outputs": [
        {
          "internalType": "uint256",
          "name": "",
          "type": "uint256"
        }
      ],
      "stateMutability": "pure",
      "type": "function"
    },
    {
      "inputs": [
        {
          "internalType": "address",
          "name": "owner",
          "type": "address"
        },
        {
          "internalType": "address",
          "name": "operator",
          "type": "address"
        }
      ],
      "name": "isApprovedForAll",
      "outputs": [
        {
          "internalType": "bool",
          "name": "",
          "type": "bool"
        }
      ],
      "stateMutability": "view",
      "type": "function"
    },
    {
      "inputs": [
        {
          "internalType": "string",
          "name": "_lemma",
          "type": "string"
        }
      ],
      "name": "lemmaValid",
      "outputs": [
        {
          "internalType": "bool",
          "name": "",
          "type": "bool"
        }
      ],
      "stateMutability": "view",
      "type": "function"
    },
    {
      "inputs": [],
      "name": "lemmaValidator",
      "outputs": [
        {
          "internalType": "contract StringValidator",
          "name": "",
          "type": "address"
        }
      ],
      "stateMutability": "view",
      "type": "function"
    },
    {
      "inputs": [
        {
          "internalType": "uint256",
          "name": "",
          "type": "uint256"
        }
      ],
      "name": "lemmas",
      "outputs": [
        {
          "internalType": "string",
          "name": "lemma",
          "type": "string"
        },
        {
          "internalType": "string",
          "name": "definition",
          "type": "string"
        },
        {
          "internalType": "string",
          "name": "example",
          "type": "string"
        }
      ],
      "stateMutability": "view",
      "type": "function"
    },
    {
      "inputs": [
        {
          "internalType": "string",
          "name": "_lemma",
          "type": "string"
        },
        {
          "internalType": "string",
          "name": "_definition",
          "type": "string"
        },
        {
          "internalType": "string",
          "name": "_example",
          "type": "string"
        }
      ],
      "name": "mint",
      "outputs": [
        {
          "internalType": "uint256",
          "name": "tokenId",
          "type": "uint256"
        }
      ],
      "stateMutability": "payable",
      "type": "function"
    },
    {
      "inputs": [],
      "name": "mintFee",
      "outputs": [
        {
          "internalType": "uint256",
          "name": "",
          "type": "uint256"
        }
      ],
      "stateMutability": "view",
      "type": "function"
    },
    {
      "inputs": [],
      "name": "name",
      "outputs": [
        {
          "internalType": "string",
          "name": "",
          "type": "string"
        }
      ],
      "stateMutability": "view",
      "type": "function"
    },
    {
      "inputs": [],
      "name": "owner",
      "outputs": [
        {
          "internalType": "address",
          "name": "",
          "type": "address"
        }
      ],
      "stateMutability": "view",
      "type": "function"
    },
    {
      "inputs": [
        {
          "internalType": "uint256",
          "name": "tokenId",
          "type": "uint256"
        }
      ],
      "name": "ownerOf",
      "outputs": [
        {
          "internalType": "address",
          "name": "",
          "type": "address"
        }
      ],
      "stateMutability": "view",
      "type": "function"
    },
    {
      "inputs": [],
      "name": "pause",
      "outputs": [],
      "stateMutability": "nonpayable",
      "type": "function"
    },
    {
      "inputs": [],
      "name": "paused",
      "outputs": [
        {
          "internalType": "bool",
          "name": "",
          "type": "bool"
        }
      ],
      "stateMutability": "view",
      "type": "function"
    },
    {
      "inputs": [],
      "name": "pricer",
      "outputs": [
        {
          "internalType": "contract Pricer",
          "name": "",
          "type": "address"
        }
      ],
      "stateMutability": "view",
      "type": "function"
    },
    {
      "inputs": [],
      "name": "pricerInterfaceId",
      "outputs": [
        {
          "internalType": "bytes4",
          "name": "",
          "type": "bytes4"
        }
      ],
      "stateMutability": "view",
      "type": "function"
    },
    {
      "inputs": [],
      "name": "proxyRegistryAddress",
      "outputs": [
        {
          "internalType": "address",
          "name": "",
          "type": "address"
        }
      ],
      "stateMutability": "view",
      "type": "function"
    },
    {
      "inputs": [],
      "name": "renounceOwnership",
      "outputs": [],
      "stateMutability": "nonpayable",
      "type": "function"
    },
    {
      "inputs": [
        {
          "internalType": "address",
          "name": "to",
          "type": "address"
        },
        {
          "internalType": "uint256",
          "name": "tokenId",
          "type": "uint256"
        }
      ],
      "name": "safeMint",
      "outputs": [],
      "stateMutability": "nonpayable",
      "type": "function"
    },
    {
      "inputs": [
        {
          "internalType": "address",
          "name": "from",
          "type": "address"
        },
        {
          "internalType": "address",
          "name": "to",
          "type": "address"
        },
        {
          "internalType": "uint256",
          "name": "tokenId",
          "type": "uint256"
        }
      ],
      "name": "safeTransferFrom",
      "outputs": [],
      "stateMutability": "nonpayable",
      "type": "function"
    },
    {
      "inputs": [
        {
          "internalType": "address",
          "name": "from",
          "type": "address"
        },
        {
          "internalType": "address",
          "name": "to",
          "type": "address"
        },
        {
          "internalType": "uint256",
          "name": "tokenId",
          "type": "uint256"
        },
        {
          "internalType": "bytes",
          "name": "_data",
          "type": "bytes"
        }
      ],
      "name": "safeTransferFrom",
      "outputs": [],
      "stateMutability": "nonpayable",
      "type": "function"
    },
    {
      "inputs": [
        {
          "internalType": "address",
          "name": "operator",
          "type": "address"
        },
        {
          "internalType": "bool",
          "name": "approved",
          "type": "bool"
        }
      ],
      "name": "setApprovalForAll",
      "outputs": [],
      "stateMutability": "nonpayable",
      "type": "function"
    },
    {
      "inputs": [
        {
          "internalType": "address",
          "name": "_address",
          "type": "address"
        }
      ],
      "name": "setLemmaValidator",
      "outputs": [],
      "stateMutability": "nonpayable",
      "type": "function"
    },
    {
      "inputs": [
        {
          "internalType": "address",
          "name": "_address",
          "type": "address"
        }
      ],
      "name": "setPricer",
      "outputs": [],
      "stateMutability": "nonpayable",
      "type": "function"
    },
    {
      "inputs": [
        {
          "internalType": "address",
          "name": "_address",
          "type": "address"
        }
      ],
      "name": "setProxyRegistryAddress",
      "outputs": [],
      "stateMutability": "nonpayable",
      "type": "function"
    },
    {
      "inputs": [],
      "name": "stringValidatorInterfaceId",
      "outputs": [
        {
          "internalType": "bytes4",
          "name": "",
          "type": "bytes4"
        }
      ],
      "stateMutability": "view",
      "type": "function"
    },
    {
      "inputs": [
        {
          "internalType": "bytes4",
          "name": "interfaceId",
          "type": "bytes4"
        }
      ],
      "name": "supportsInterface",
      "outputs": [
        {
          "internalType": "bool",
          "name": "",
          "type": "bool"
        }
      ],
      "stateMutability": "view",
      "type": "function"
    },
    {
      "inputs": [],
      "name": "symbol",
      "outputs": [
        {
          "internalType": "string",
          "name": "",
          "type": "string"
        }
      ],
      "stateMutability": "view",
      "type": "function"
    },
    {
      "inputs": [
        {
          "internalType": "uint256",
          "name": "index",
          "type": "uint256"
        }
      ],
      "name": "tokenByIndex",
      "outputs": [
        {
          "internalType": "uint256",
          "name": "",
          "type": "uint256"
        }
      ],
      "stateMutability": "view",
      "type": "function"
    },
    {
      "inputs": [
        {
          "internalType": "address",
          "name": "owner",
          "type": "address"
        },
        {
          "internalType": "uint256",
          "name": "index",
          "type": "uint256"
        }
      ],
      "name": "tokenOfOwnerByIndex",
      "outputs": [
        {
          "internalType": "uint256",
          "name": "",
          "type": "uint256"
        }
      ],
      "stateMutability": "view",
      "type": "function"
    },
    {
      "inputs": [
        {
          "internalType": "uint256",
          "name": "tokenId",
          "type": "uint256"
        }
      ],
      "name": "tokenURI",
      "outputs": [
        {
          "internalType": "string",
          "name": "",
          "type": "string"
        }
      ],
      "stateMutability": "view",
      "type": "function"
    },
    {
      "inputs": [],
      "name": "totalSupply",
      "outputs": [
        {
          "internalType": "uint256",
          "name": "",
          "type": "uint256"
        }
      ],
      "stateMutability": "view",
      "type": "function"
    },
    {
      "inputs": [
        {
          "internalType": "address",
          "name": "from",
          "type": "address"
        },
        {
          "internalType": "address",
          "name": "to",
          "type": "address"
        },
        {
          "internalType": "uint256",
          "name": "tokenId",
          "type": "uint256"
        }
      ],
      "name": "transferFrom",
      "outputs": [],
      "stateMutability": "nonpayable",
      "type": "function"
    },
    {
      "inputs": [
        {
          "internalType": "address",
          "name": "newOwner",
          "type": "address"
        }
      ],
      "name": "transferOwnership",
      "outputs": [],
      "stateMutability": "nonpayable",
      "type": "function"
    },
    {
      "inputs": [],
      "name": "unpause",
      "outputs": [],
      "stateMutability": "nonpayable",
      "type": "function"
    }
  ],
  "transactionHash": "0x5408608cf3267c61a6f7840218653e133368af4e5b5f1fc71751047b848ed19b",
  "args": [
    "0xDdF956e33f238bE394787A4C04EF3038E3307802",
    "0xe93234da8074c55E3de7E2Ba886abD0fC59B000f"
  ],
  "numDeployments": 1,
  "solcInputHash": "7480a9ee76f77d5f4ab55bf783d13ed6",
  "bytecode": "0x60806040523480156200001157600080fd5b506040516200387338038062003873833981016040819052620000349162000659565b60408051808201825260118152702a3432902632bc34b1b7b737b6bc903b1960791b6020808301918252835180850190945260038452620988ab60eb1b908401528151919291620000889160009162000596565b5080516200009e90600190602084019062000596565b5050600b805460ff1916905550620000b633620000de565b620000c062000138565b620000cb8262000199565b620000d68162000299565b505062000737565b600b80546001600160a01b03838116610100818102610100600160a81b031985161790945560405193909204169182907f8be0079c531659141344cd1fd0a4f28419497f9722a3daafe3b4186f6b6457e090600090a35050565b600b546001600160a01b036101009091041633146200018d5760405162461bcd60e51b815260206004820181905260248201526000805160206200385383398151915260448201526064015b60405180910390fd5b62000197620003a7565b565b600b546001600160a01b03610100909104163314620001ea5760405162461bcd60e51b8152602060048201819052602482015260008051602062003853833981519152604482015260640162000184565b6200021463501ad8ff60e11b826001600160a01b03166200044260201b6200180e1790919060201c565b620002775760405162461bcd60e51b815260206004820152603b60248201526000805160206200383383398151915260448201527f6c656d656e74207468652050726963657220696e746572666163650000000000606482015260840162000184565b600e80546001600160a01b0319166001600160a01b0392909216919091179055565b600b546001600160a01b03610100909104163314620002ea5760405162461bcd60e51b8152602060048201819052602482015260008051602062003853833981519152604482015260640162000184565b62000314639791c09760e01b826001600160a01b03166200044260201b6200180e1790919060201c565b620003855760405162461bcd60e51b81526020600482015260446024820181905260008051602062003833833981519152908201527f6c656d656e742074686520537472696e6756616c696461746f7220696e7465726064820152636661636560e01b608482015260a40162000184565b600f80546001600160a01b0319166001600160a01b0392909216919091179055565b600b5460ff1615620003ef5760405162461bcd60e51b815260206004820152601060248201526f14185d5cd8589b194e881c185d5cd95960821b604482015260640162000184565b600b805460ff191660011790557f62e78cea01bee320cd4e420270b5ea74000d11b0c9f74754ebdbfc544b05a258620004253390565b6040516001600160a01b03909116815260200160405180910390a1565b60006200044f836200046c565b8015620004635750620004638383620004a4565b90505b92915050565b600062000481826301ffc9a760e01b620004a4565b80156200046657506200049d826001600160e01b0319620004a4565b1592915050565b604080516001600160e01b0319831660248083019190915282518083039091018152604490910182526020810180516001600160e01b03166301ffc9a760e01b179052905160009190829081906001600160a01b03871690617530906200050d90869062000691565b6000604051808303818686fa925050503d80600081146200054b576040519150601f19603f3d011682016040523d82523d6000602084013e62000550565b606091505b50915091506020815110156200056d576000935050505062000466565b8180156200058c5750808060200190518101906200058c9190620006cf565b9695505050505050565b828054620005a490620006fa565b90600052602060002090601f016020900481019282620005c8576000855562000613565b82601f10620005e357805160ff191683800117855562000613565b8280016001018555821562000613579182015b8281111562000613578251825591602001919060010190620005f6565b506200062192915062000625565b5090565b5b8082111562000621576000815560010162000626565b80516001600160a01b03811681146200065457600080fd5b919050565b600080604083850312156200066d57600080fd5b62000678836200063c565b915062000688602084016200063c565b90509250929050565b6000825160005b81811015620006b4576020818601810151858301520162000698565b81811115620006c4576000828501525b509190910192915050565b600060208284031215620006e257600080fd5b81518015158114620006f357600080fd5b9392505050565b600181811c908216806200070f57607f821691505b602082108114156200073157634e487b7160e01b600052602260045260246000fd5b50919050565b6130ec80620007476000396000f3fe6080604052600436106102305760003560e01c80636352211e1161012e578063a22cb465116100ab578063d26ea6c01161006f578063d26ea6c01461068b578063d645ddf6146106ab578063e985e9c5146106be578063ed88c68e146106de578063f2fde38b146106e657600080fd5b8063a22cb465146105eb578063a6138ed91461060b578063b88d4fde1461062b578063c87b56dd1461064b578063cd7c03261461066b57600080fd5b806390697991116100f2578063906979911461054757806395d89b411461057b57806395df7e56146105905780639efb8eb1146105ab578063a1448194146105cb57600080fd5b80636352211e146104ba57806370a08231146104da578063715018a6146104fa5780638456cb591461050f5780638da5cb5b1461052457600080fd5b80632f745c59116101bc5780634891a178116101805780634891a178146104225780634f6ccce71461044257806352d41014146104625780635c975abb146104825780635ea297681461049a57600080fd5b80632f745c591461037e57806336d469d81461039e5780633f4ba83a146103be57806342842e0e146103d357806347202e5c146103f357600080fd5b806313966db51161020357806313966db5146102e657806318160ddd146103095780631e7663bc1461031e57806323b872dd1461033e578063293903701461035e57600080fd5b806301ffc9a71461023557806306fdde031461026a578063081812fc1461028c578063095ea7b3146102c4575b600080fd5b34801561024157600080fd5b506102556102503660046128e1565b610706565b60405190151581526020015b60405180910390f35b34801561027657600080fd5b5061027f610717565b6040516102619190612956565b34801561029857600080fd5b506102ac6102a7366004612969565b6107a9565b6040516001600160a01b039091168152602001610261565b3480156102d057600080fd5b506102e46102df366004612997565b610843565b005b3480156102f257600080fd5b506102fb610959565b604051908152602001610261565b34801561031557600080fd5b506008546102fb565b34801561032a57600080fd5b506102fb610339366004612a0c565b6109db565b34801561034a57600080fd5b506102e4610359366004612a4e565b6109fd565b34801561036a57600080fd5b506102e4610379366004612a8f565b610a2e565b34801561038a57600080fd5b506102fb610399366004612997565b610b0c565b3480156103aa57600080fd5b506102e46103b9366004612a8f565b610ba2565b3480156103ca57600080fd5b506102e4610c8e565b3480156103df57600080fd5b506102e46103ee366004612a4e565b610cc8565b3480156103ff57600080fd5b5061041361040e366004612969565b610ce3565b60405161026193929190612aac565b34801561042e57600080fd5b5061025561043d366004612a0c565b610e9d565b34801561044e57600080fd5b506102fb61045d366004612969565b610f27565b34801561046e57600080fd5b50600f546102ac906001600160a01b031681565b34801561048e57600080fd5b50600b5460ff16610255565b3480156104a657600080fd5b506102e46104b5366004612ae5565b610fba565b3480156104c657600080fd5b506102ac6104d5366004612969565b61106f565b3480156104e657600080fd5b506102fb6104f5366004612a8f565b6110e6565b34801561050657600080fd5b506102e461116d565b34801561051b57600080fd5b506102e46111a7565b34801561053057600080fd5b50600b5461010090046001600160a01b03166102ac565b34801561055357600080fd5b50610562639791c09760e01b81565b6040516001600160e01b03199091168152602001610261565b34801561058757600080fd5b5061027f6111df565b34801561059c57600080fd5b5061056263501ad8ff60e11b81565b3480156105b757600080fd5b506102e46105c6366004612ae5565b6111ee565b3480156105d757600080fd5b506102e46105e6366004612997565b611295565b3480156105f757600080fd5b506102e4610606366004612b3f565b6112d3565b34801561061757600080fd5b50600e546102ac906001600160a01b031681565b34801561063757600080fd5b506102e4610646366004612b8e565b6112de565b34801561065757600080fd5b5061027f610666366004612969565b611316565b34801561067757600080fd5b50600c546102ac906001600160a01b031681565b34801561069757600080fd5b506102e46106a6366004612a8f565b611321565b6102fb6106b9366004612c6e565b611373565b3480156106ca57600080fd5b506102556106d9366004612d08565b611654565b6102e4611733565b3480156106f257600080fd5b506102e4610701366004612a8f565b61176d565b60006107118261182a565b92915050565b60606000805461072690612d36565b80601f016020809104026020016040519081016040528092919081815260200182805461075290612d36565b801561079f5780601f106107745761010080835404028352916020019161079f565b820191906000526020600020905b81548152906001019060200180831161078257829003601f168201915b5050505050905090565b6000818152600260205260408120546001600160a01b03166108275760405162461bcd60e51b815260206004820152602c60248201527f4552433732313a20617070726f76656420717565727920666f72206e6f6e657860448201526b34b9ba32b73a103a37b5b2b760a11b60648201526084015b60405180910390fd5b506000908152600460205260409020546001600160a01b031690565b600061084e8261106f565b9050806001600160a01b0316836001600160a01b031614156108bc5760405162461bcd60e51b815260206004820152602160248201527f4552433732313a20617070726f76616c20746f2063757272656e74206f776e656044820152603960f91b606482015260840161081e565b336001600160a01b03821614806108d857506108d88133611654565b61094a5760405162461bcd60e51b815260206004820152603860248201527f4552433732313a20617070726f76652063616c6c6572206973206e6f74206f7760448201527f6e6572206e6f7220617070726f76656420666f7220616c6c0000000000000000606482015260840161081e565b610954838361184f565b505050565b600e546040805163501ad8ff60e11b815290516000926001600160a01b03169163a035b1fe916004808301926020929190829003018186803b15801561099e57600080fd5b505afa1580156109b2573d6000803e3d6000fd5b505050506040513d601f19601f820116820180604052508101906109d69190612d71565b905090565b600082826040516109ed929190612d8a565b6040519081900390209392505050565b610a0733826118bd565b610a235760405162461bcd60e51b815260040161081e90612d9a565b610954838383611994565b600b546001600160a01b03610100909104163314610a5e5760405162461bcd60e51b815260040161081e90612deb565b610a786001600160a01b03821663501ad8ff60e11b61180e565b610aea5760405162461bcd60e51b815260206004820152603b60248201527f4c656d6d61546f6b656e3a206164647265737320646f6573206e6f7420696d7060448201527f6c656d656e74207468652050726963657220696e746572666163650000000000606482015260840161081e565b600e80546001600160a01b0319166001600160a01b0392909216919091179055565b6000610b17836110e6565b8210610b795760405162461bcd60e51b815260206004820152602b60248201527f455243373231456e756d657261626c653a206f776e657220696e646578206f7560448201526a74206f6620626f756e647360a81b606482015260840161081e565b506001600160a01b03919091166000908152600660209081526040808320938352929052205490565b600b546001600160a01b03610100909104163314610bd25760405162461bcd60e51b815260040161081e90612deb565b610bec6001600160a01b038216639791c09760e01b61180e565b610c6c5760405162461bcd60e51b8152602060048201526044602482018190527f4c656d6d61546f6b656e3a206164647265737320646f6573206e6f7420696d70908201527f6c656d656e742074686520537472696e6756616c696461746f7220696e7465726064820152636661636560e01b608482015260a40161081e565b600f80546001600160a01b0319166001600160a01b0392909216919091179055565b600b546001600160a01b03610100909104163314610cbe5760405162461bcd60e51b815260040161081e90612deb565b610cc6611b3f565b565b610954838383604051806020016040528060008152506112de565b600d60205260009081526040902080548190610cfe90612d36565b80601f0160208091040260200160405190810160405280929190818152602001828054610d2a90612d36565b8015610d775780601f10610d4c57610100808354040283529160200191610d77565b820191906000526020600020905b815481529060010190602001808311610d5a57829003601f168201915b505050505090806001018054610d8c90612d36565b80601f0160208091040260200160405190810160405280929190818152602001828054610db890612d36565b8015610e055780601f10610dda57610100808354040283529160200191610e05565b820191906000526020600020905b815481529060010190602001808311610de857829003601f168201915b505050505090806002018054610e1a90612d36565b80601f0160208091040260200160405190810160405280929190818152602001828054610e4690612d36565b8015610e935780601f10610e6857610100808354040283529160200191610e93565b820191906000526020600020905b815481529060010190602001808311610e7657829003601f168201915b5050505050905083565b600f54604051639791c09760e01b81526000916001600160a01b031690639791c09790610ed09086908690600401612e20565b60206040518083038186803b158015610ee857600080fd5b505afa158015610efc573d6000803e3d6000fd5b505050506040513d601f19601f82011682018060405250810190610f209190612e4f565b9392505050565b6000610f3260085490565b8210610f955760405162461bcd60e51b815260206004820152602c60248201527f455243373231456e756d657261626c653a20676c6f62616c20696e646578206f60448201526b7574206f6620626f756e647360a01b606482015260840161081e565b60088281548110610fa857610fa8612e6c565b90600052602060002001549050919050565b600b5460ff1615610fdd5760405162461bcd60e51b815260040161081e90612e82565b6000610fe933856118bd565b9050806110085760405162461bcd60e51b815260040161081e90612eac565b6000848152600d602052604090206110249060020184846127be565b5083336001600160a01b03167fc7bf025f4d38f11ad3e169ba0151f04b9ecab0d71335c1137fa5a33ec1b4d6408585604051611061929190612e20565b60405180910390a350505050565b6000818152600260205260408120546001600160a01b0316806107115760405162461bcd60e51b815260206004820152602960248201527f4552433732313a206f776e657220717565727920666f72206e6f6e657869737460448201526832b73a103a37b5b2b760b91b606482015260840161081e565b60006001600160a01b0382166111515760405162461bcd60e51b815260206004820152602a60248201527f4552433732313a2062616c616e636520717565727920666f7220746865207a65604482015269726f206164647265737360b01b606482015260840161081e565b506001600160a01b031660009081526003602052604090205490565b600b546001600160a01b0361010090910416331461119d5760405162461bcd60e51b815260040161081e90612deb565b610cc66000611bd2565b600b546001600160a01b036101009091041633146111d75760405162461bcd60e51b815260040161081e90612deb565b610cc6611c2c565b60606001805461072690612d36565b600b5460ff16156112115760405162461bcd60e51b815260040161081e90612e82565b600061121d33856118bd565b90508061123c5760405162461bcd60e51b815260040161081e90612eac565b6000848152600d602052604090206112589060010184846127be565b5083336001600160a01b03167feb51d73a25def7e9d1760d74d89aeee490fb848ba611ca0c233e545db0ffbc248585604051611061929190612e20565b600b546001600160a01b036101009091041633146112c55760405162461bcd60e51b815260040161081e90612deb565b6112cf8282611c84565b5050565b6112cf338383611c9e565b6112e833836118bd565b6113045760405162461bcd60e51b815260040161081e90612d9a565b61131084848484611d6d565b50505050565b606061071182611da0565b600b546001600160a01b036101009091041633146113515760405162461bcd60e51b815260040161081e90612deb565b600c80546001600160a01b0319166001600160a01b0392909216919091179055565b600061137d610959565b3410156113cc5760405162461bcd60e51b815260206004820152601f60248201527f4c656d6d61546f6b656e3a206d696e74696e672066656520746f6f206c6f7700604482015260640161081e565b6113d68787610e9d565b6114525760405162461bcd60e51b815260206004820152604160248201527f4c656d6d61546f6b656e3a206c656d6d6120697320696e76616c69643a20646f60448201527f657320697420636f6e7461696e20696e76616c696420636861726163746572736064820152603f60f81b608482015260a40161081e565b61145c87876109db565b90506114683382611c84565b604051806060016040528088888080601f016020809104026020016040519081016040528093929190818152602001838380828437600092019190915250505090825250604080516020601f890181900481028201810190925287815291810191908890889081908401838280828437600092019190915250505090825250604080516020601f8701819004810282018101909252858152918101919086908690819084018382808284376000920182905250939094525050838152600d6020908152604090912083518051919350611545928492910190612842565b50602082810151805161155e9260018501920190612842565b506040820151805161157a916002840191602090910190612842565b5090505080336001600160a01b03167f5abec3975d9cd754668d68227983987ab56bb8290c5537243775f0cd3108406d89896040516115ba929190612e20565b60405180910390a380336001600160a01b03167feb51d73a25def7e9d1760d74d89aeee490fb848ba611ca0c233e545db0ffbc2487876040516115fe929190612e20565b60405180910390a380336001600160a01b03167fc7bf025f4d38f11ad3e169ba0151f04b9ecab0d71335c1137fa5a33ec1b4d6408585604051611642929190612e20565b60405180910390a39695505050505050565b600c546000906001600160a01b03161561170557600c5460405163c455279160e01b81526001600160a01b03858116600483015291821691841690829063c45527919060240160206040518083038186803b1580156116b257600080fd5b505afa1580156116c6573d6000803e3d6000fd5b505050506040513d601f19601f820116820180604052508101906116ea9190612ef8565b6001600160a01b03161415611703576001915050610711565b505b6001600160a01b0380841660009081526005602090815260408083209386168352929052205460ff16610f20565b6000341161174057600080fd5b60405133907f187f451f92c6a4236353b5331d5fb67bdbfcc66b54367037fba41d6bcef08ce790600090a2565b600b546001600160a01b0361010090910416331461179d5760405162461bcd60e51b815260040161081e90612deb565b6001600160a01b0381166118025760405162461bcd60e51b815260206004820152602660248201527f4f776e61626c653a206e6577206f776e657220697320746865207a65726f206160448201526564647265737360d01b606482015260840161081e565b61180b81611bd2565b50565b600061181983611f44565b8015610f205750610f208383611f77565b60006001600160e01b0319821663780e9d6360e01b1480610711575061071182612060565b600081815260046020526040902080546001600160a01b0319166001600160a01b03841690811790915581906118848261106f565b6001600160a01b03167f8c5be1e5ebec7d5bd14f71427d1e84f3dd0314c0f7b2291e5b200ac8c7c3b92560405160405180910390a45050565b6000818152600260205260408120546001600160a01b03166119365760405162461bcd60e51b815260206004820152602c60248201527f4552433732313a206f70657261746f7220717565727920666f72206e6f6e657860448201526b34b9ba32b73a103a37b5b2b760a11b606482015260840161081e565b60006119418361106f565b9050806001600160a01b0316846001600160a01b0316148061197c5750836001600160a01b0316611971846107a9565b6001600160a01b0316145b8061198c575061198c8185611654565b949350505050565b826001600160a01b03166119a78261106f565b6001600160a01b031614611a0f5760405162461bcd60e51b815260206004820152602960248201527f4552433732313a207472616e73666572206f6620746f6b656e2074686174206960448201526839903737ba1037bbb760b91b606482015260840161081e565b6001600160a01b038216611a715760405162461bcd60e51b8152602060048201526024808201527f4552433732313a207472616e7366657220746f20746865207a65726f206164646044820152637265737360e01b606482015260840161081e565b611a7c8383836120b0565b611a8760008261184f565b6001600160a01b0383166000908152600360205260408120805460019290611ab0908490612f2b565b90915550506001600160a01b0382166000908152600360205260408120805460019290611ade908490612f42565b909155505060008181526002602052604080822080546001600160a01b0319166001600160a01b0386811691821790925591518493918716917fddf252ad1be2c89b69c2b068fc378daa952ba7f163c4a11628f55a4df523b3ef91a4505050565b600b5460ff16611b885760405162461bcd60e51b815260206004820152601460248201527314185d5cd8589b194e881b9bdd081c185d5cd95960621b604482015260640161081e565b600b805460ff191690557f5db9ee0a495bf2e6ff9c91a7834c1ba4fdd244a5e8aa4e537bd38aeae4b073aa335b6040516001600160a01b03909116815260200160405180910390a1565b600b80546001600160a01b03838116610100818102610100600160a81b031985161790945560405193909204169182907f8be0079c531659141344cd1fd0a4f28419497f9722a3daafe3b4186f6b6457e090600090a35050565b600b5460ff1615611c4f5760405162461bcd60e51b815260040161081e90612e82565b600b805460ff191660011790557f62e78cea01bee320cd4e420270b5ea74000d11b0c9f74754ebdbfc544b05a258611bb53390565b6112cf8282604051806020016040528060008152506120de565b816001600160a01b0316836001600160a01b03161415611d005760405162461bcd60e51b815260206004820152601960248201527f4552433732313a20617070726f766520746f2063616c6c657200000000000000604482015260640161081e565b6001600160a01b03838116600081815260056020908152604080832094871680845294825291829020805460ff191686151590811790915591519182527f17307eab39ab6107e8899845ad3d59bd9653f200f220920489ca2b5937696c31910160405180910390a3505050565b611d78848484611994565b611d8484848484612111565b6113105760405162461bcd60e51b815260040161081e90612f5a565b6000818152600260205260409020546060906001600160a01b0316611e215760405162461bcd60e51b815260206004820152603160248201527f45524337323155524953746f726167653a2055524920717565727920666f72206044820152703737b732bc34b9ba32b73a103a37b5b2b760791b606482015260840161081e565b6000828152600a602052604081208054611e3a90612d36565b80601f0160208091040260200160405190810160405280929190818152602001828054611e6690612d36565b8015611eb35780601f10611e8857610100808354040283529160200191611eb3565b820191906000526020600020905b815481529060010190602001808311611e9657829003601f168201915b505050505090506000611ef660408051808201909152601d81527f68747470733a2f2f6c657869636f6e6f6d792e6f72672f746f6b656e2f000000602082015290565b9050805160001415611f09575092915050565b815115611f3b578082604051602001611f23929190612fac565b60405160208183030381529060405292505050919050565b61198c8461221e565b6000611f57826301ffc9a760e01b611f77565b80156107115750611f70826001600160e01b0319611f77565b1592915050565b604080516001600160e01b0319831660248083019190915282518083039091018152604490910182526020810180516001600160e01b03166301ffc9a760e01b179052905160009190829081906001600160a01b0387169061753090611fde908690612fdb565b6000604051808303818686fa925050503d806000811461201a576040519150601f19603f3d011682016040523d82523d6000602084013e61201f565b606091505b509150915060208151101561203a5760009350505050610711565b8180156120565750808060200190518101906120569190612e4f565b9695505050505050565b60006001600160e01b031982166380ac58cd60e01b148061209157506001600160e01b03198216635b5e139f60e01b145b8061071157506301ffc9a760e01b6001600160e01b0319831614610711565b600b5460ff16156120d35760405162461bcd60e51b815260040161081e90612e82565b61095483838361232a565b6120e883836123e2565b6120f56000848484612111565b6109545760405162461bcd60e51b815260040161081e90612f5a565b60006001600160a01b0384163b1561221357604051630a85bd0160e11b81526001600160a01b0385169063150b7a0290612155903390899088908890600401612ff7565b602060405180830381600087803b15801561216f57600080fd5b505af192505050801561219f575060408051601f3d908101601f1916820190925261219c9181019061302a565b60015b6121f9573d8080156121cd576040519150601f19603f3d011682016040523d82523d6000602084013e6121d2565b606091505b5080516121f15760405162461bcd60e51b815260040161081e90612f5a565b805181602001fd5b6001600160e01b031916630a85bd0160e11b14905061198c565b506001949350505050565b6000818152600260205260409020546060906001600160a01b031661229d5760405162461bcd60e51b815260206004820152602f60248201527f4552433732314d657461646174613a2055524920717565727920666f72206e6f60448201526e3732bc34b9ba32b73a103a37b5b2b760891b606482015260840161081e565b60006122d960408051808201909152601d81527f68747470733a2f2f6c657869636f6e6f6d792e6f72672f746f6b656e2f000000602082015290565b905060008151116122f95760405180602001604052806000815250610f20565b8061230384612530565b604051602001612314929190612fac565b6040516020818303038152906040529392505050565b6001600160a01b0383166123855761238081600880546000838152600960205260408120829055600182018355919091527ff3f7a9fe364faab93b216da50a3214154f22a0a2b415b23a84c8169e8b636ee30155565b6123a8565b816001600160a01b0316836001600160a01b0316146123a8576123a8838261262e565b6001600160a01b0382166123bf57610954816126cb565b826001600160a01b0316826001600160a01b03161461095457610954828261277a565b6001600160a01b0382166124385760405162461bcd60e51b815260206004820181905260248201527f4552433732313a206d696e7420746f20746865207a65726f2061646472657373604482015260640161081e565b6000818152600260205260409020546001600160a01b03161561249d5760405162461bcd60e51b815260206004820152601c60248201527f4552433732313a20746f6b656e20616c7265616479206d696e74656400000000604482015260640161081e565b6124a9600083836120b0565b6001600160a01b03821660009081526003602052604081208054600192906124d2908490612f42565b909155505060008181526002602052604080822080546001600160a01b0319166001600160a01b03861690811790915590518392907fddf252ad1be2c89b69c2b068fc378daa952ba7f163c4a11628f55a4df523b3ef908290a45050565b6060816125545750506040805180820190915260018152600360fc1b602082015290565b8160005b811561257e578061256881613047565b91506125779050600a83613078565b9150612558565b60008167ffffffffffffffff81111561259957612599612b78565b6040519080825280601f01601f1916602001820160405280156125c3576020820181803683370190505b5090505b841561198c576125d8600183612f2b565b91506125e5600a8661308c565b6125f0906030612f42565b60f81b81838151811061260557612605612e6c565b60200101906001600160f81b031916908160001a905350612627600a86613078565b94506125c7565b6000600161263b846110e6565b6126459190612f2b565b600083815260076020526040902054909150808214612698576001600160a01b03841660009081526006602090815260408083208584528252808320548484528184208190558352600790915290208190555b5060009182526007602090815260408084208490556001600160a01b039094168352600681528383209183525290812055565b6008546000906126dd90600190612f2b565b6000838152600960205260408120546008805493945090928490811061270557612705612e6c565b90600052602060002001549050806008838154811061272657612726612e6c565b600091825260208083209091019290925582815260099091526040808220849055858252812055600880548061275e5761275e6130a0565b6001900381819060005260206000200160009055905550505050565b6000612785836110e6565b6001600160a01b039093166000908152600660209081526040808320868452825280832085905593825260079052919091209190915550565b8280546127ca90612d36565b90600052602060002090601f0160209004810192826127ec5760008555612832565b82601f106128055782800160ff19823516178555612832565b82800160010185558215612832579182015b82811115612832578235825591602001919060010190612817565b5061283e9291506128b6565b5090565b82805461284e90612d36565b90600052602060002090601f0160209004810192826128705760008555612832565b82601f1061288957805160ff1916838001178555612832565b82800160010185558215612832579182015b8281111561283257825182559160200191906001019061289b565b5b8082111561283e57600081556001016128b7565b6001600160e01b03198116811461180b57600080fd5b6000602082840312156128f357600080fd5b8135610f20816128cb565b60005b83811015612919578181015183820152602001612901565b838111156113105750506000910152565b600081518084526129428160208601602086016128fe565b601f01601f19169290920160200192915050565b602081526000610f20602083018461292a565b60006020828403121561297b57600080fd5b5035919050565b6001600160a01b038116811461180b57600080fd5b600080604083850312156129aa57600080fd5b82356129b581612982565b946020939093013593505050565b60008083601f8401126129d557600080fd5b50813567ffffffffffffffff8111156129ed57600080fd5b602083019150836020828501011115612a0557600080fd5b9250929050565b60008060208385031215612a1f57600080fd5b823567ffffffffffffffff811115612a3657600080fd5b612a42858286016129c3565b90969095509350505050565b600080600060608486031215612a6357600080fd5b8335612a6e81612982565b92506020840135612a7e81612982565b929592945050506040919091013590565b600060208284031215612aa157600080fd5b8135610f2081612982565b606081526000612abf606083018661292a565b8281036020840152612ad1818661292a565b90508281036040840152612056818561292a565b600080600060408486031215612afa57600080fd5b83359250602084013567ffffffffffffffff811115612b1857600080fd5b612b24868287016129c3565b9497909650939450505050565b801515811461180b57600080fd5b60008060408385031215612b5257600080fd5b8235612b5d81612982565b91506020830135612b6d81612b31565b809150509250929050565b634e487b7160e01b600052604160045260246000fd5b60008060008060808587031215612ba457600080fd5b8435612baf81612982565b93506020850135612bbf81612982565b925060408501359150606085013567ffffffffffffffff80821115612be357600080fd5b818701915087601f830112612bf757600080fd5b813581811115612c0957612c09612b78565b604051601f8201601f19908116603f01168101908382118183101715612c3157612c31612b78565b816040528281528a6020848701011115612c4a57600080fd5b82602086016020830137600060208483010152809550505050505092959194509250565b60008060008060008060608789031215612c8757600080fd5b863567ffffffffffffffff80821115612c9f57600080fd5b612cab8a838b016129c3565b90985096506020890135915080821115612cc457600080fd5b612cd08a838b016129c3565b90965094506040890135915080821115612ce957600080fd5b50612cf689828a016129c3565b979a9699509497509295939492505050565b60008060408385031215612d1b57600080fd5b8235612d2681612982565b91506020830135612b6d81612982565b600181811c90821680612d4a57607f821691505b60208210811415612d6b57634e487b7160e01b600052602260045260246000fd5b50919050565b600060208284031215612d8357600080fd5b5051919050565b8183823760009101908152919050565b60208082526031908201527f4552433732313a207472616e736665722063616c6c6572206973206e6f74206f6040820152701ddb995c881b9bdc88185c1c1c9bdd9959607a1b606082015260800190565b6020808252818101527f4f776e61626c653a2063616c6c6572206973206e6f7420746865206f776e6572604082015260600190565b60208152816020820152818360408301376000818301604090810191909152601f909201601f19160101919050565b600060208284031215612e6157600080fd5b8151610f2081612b31565b634e487b7160e01b600052603260045260246000fd5b60208082526010908201526f14185d5cd8589b194e881c185d5cd95960821b604082015260600190565b6020808252602c908201527f4c656d6d61546f6b656e3a2063616c6c6572206973206e6f74206f776e65722060408201526b1b9bdc88185c1c1c9bdd995960a21b606082015260800190565b600060208284031215612f0a57600080fd5b8151610f2081612982565b634e487b7160e01b600052601160045260246000fd5b600082821015612f3d57612f3d612f15565b500390565b60008219821115612f5557612f55612f15565b500190565b60208082526032908201527f4552433732313a207472616e7366657220746f206e6f6e20455243373231526560408201527131b2b4bb32b91034b6b83632b6b2b73a32b960711b606082015260800190565b60008351612fbe8184602088016128fe565b835190830190612fd28183602088016128fe565b01949350505050565b60008251612fed8184602087016128fe565b9190910192915050565b6001600160a01b03858116825284166020820152604081018390526080606082018190526000906120569083018461292a565b60006020828403121561303c57600080fd5b8151610f20816128cb565b600060001982141561305b5761305b612f15565b5060010190565b634e487b7160e01b600052601260045260246000fd5b60008261308757613087613062565b500490565b60008261309b5761309b613062565b500690565b634e487b7160e01b600052603160045260246000fdfea2646970667358221220749ef16a40446d8da9753d1fc01b0e6352ff2e29af167e471594a66b38fe217864736f6c634300080900334c656d6d61546f6b656e3a206164647265737320646f6573206e6f7420696d704f776e61626c653a2063616c6c6572206973206e6f7420746865206f776e6572",
  "devdoc": {
    "events": {
      "Donation(address)": {
        "details": "Donation event for donors because they deserve it"
      }
    },
    "kind": "dev",
    "methods": {
      "approve(address,uint256)": {
        "details": "See {IERC721-approve}."
      },
      "balanceOf(address)": {
        "details": "See {IERC721-balanceOf}."
      },
      "definition(uint256,string)": {
        "details": "named 'definition' because 'define' is a reserved keyword"
      },
      "getApproved(uint256)": {
        "details": "See {IERC721-getApproved}."
      },
      "isApprovedForAll(address,address)": {
        "details": "See {IERC721-isApprovedForAll}."
      },
      "name()": {
        "details": "See {IERC721Metadata-name}."
      },
      "owner()": {
        "details": "Returns the address of the current owner."
      },
      "ownerOf(uint256)": {
        "details": "See {IERC721-ownerOf}."
      },
      "paused()": {
        "details": "Returns true if the contract is paused, and false otherwise."
      },
      "renounceOwnership()": {
        "details": "Leaves the contract without owner. It will not be possible to call `onlyOwner` functions anymore. Can only be called by the current owner. NOTE: Renouncing ownership will leave the contract without an owner, thereby removing any functionality that is only available to the owner."
      },
      "safeTransferFrom(address,address,uint256)": {
        "details": "See {IERC721-safeTransferFrom}."
      },
      "safeTransferFrom(address,address,uint256,bytes)": {
        "details": "See {IERC721-safeTransferFrom}."
      },
      "setApprovalForAll(address,bool)": {
        "details": "See {IERC721-setApprovalForAll}."
      },
      "symbol()": {
        "details": "See {IERC721Metadata-symbol}."
      },
      "tokenByIndex(uint256)": {
        "details": "See {IERC721Enumerable-tokenByIndex}."
      },
      "tokenOfOwnerByIndex(address,uint256)": {
        "details": "See {IERC721Enumerable-tokenOfOwnerByIndex}."
      },
      "totalSupply()": {
        "details": "See {IERC721Enumerable-totalSupply}."
      },
      "transferFrom(address,address,uint256)": {
        "details": "See {IERC721-transferFrom}."
      },
      "transferOwnership(address)": {
        "details": "Transfers ownership of the contract to a new account (`newOwner`). Can only be called by the current owner."
      }
    },
    "version": 1
  },
  "userdoc": {
    "kind": "user",
    "methods": {
      "constructor": {
        "notice": "Creates the main Lexiconomy smart contract instance."
      },
      "donate()": {
        "notice": "Thank you :)"
      }
    },
    "version": 1
  },
  "storageLayout": {
    "storage": [
      {
        "astId": 222,
        "contract": "contracts/Lexiconomy.sol:Lexiconomy",
        "label": "_name",
        "offset": 0,
        "slot": "0",
        "type": "t_string_storage"
      },
      {
        "astId": 224,
        "contract": "contracts/Lexiconomy.sol:Lexiconomy",
        "label": "_symbol",
        "offset": 0,
        "slot": "1",
        "type": "t_string_storage"
      },
      {
        "astId": 228,
        "contract": "contracts/Lexiconomy.sol:Lexiconomy",
        "label": "_owners",
        "offset": 0,
        "slot": "2",
        "type": "t_mapping(t_uint256,t_address)"
      },
      {
        "astId": 232,
        "contract": "contracts/Lexiconomy.sol:Lexiconomy",
        "label": "_balances",
        "offset": 0,
        "slot": "3",
        "type": "t_mapping(t_address,t_uint256)"
      },
      {
        "astId": 236,
        "contract": "contracts/Lexiconomy.sol:Lexiconomy",
        "label": "_tokenApprovals",
        "offset": 0,
        "slot": "4",
        "type": "t_mapping(t_uint256,t_address)"
      },
      {
        "astId": 242,
        "contract": "contracts/Lexiconomy.sol:Lexiconomy",
        "label": "_operatorApprovals",
        "offset": 0,
        "slot": "5",
        "type": "t_mapping(t_address,t_mapping(t_address,t_bool))"
      },
      {
        "astId": 1176,
        "contract": "contracts/Lexiconomy.sol:Lexiconomy",
        "label": "_ownedTokens",
        "offset": 0,
        "slot": "6",
        "type": "t_mapping(t_address,t_mapping(t_uint256,t_uint256))"
      },
      {
        "astId": 1180,
        "contract": "contracts/Lexiconomy.sol:Lexiconomy",
        "label": "_ownedTokensIndex",
        "offset": 0,
        "slot": "7",
        "type": "t_mapping(t_uint256,t_uint256)"
      },
      {
        "astId": 1183,
        "contract": "contracts/Lexiconomy.sol:Lexiconomy",
        "label": "_allTokens",
        "offset": 0,
        "slot": "8",
        "type": "t_array(t_uint256)dyn_storage"
      },
      {
        "astId": 1187,
        "contract": "contracts/Lexiconomy.sol:Lexiconomy",
        "label": "_allTokensIndex",
        "offset": 0,
        "slot": "9",
        "type": "t_mapping(t_uint256,t_uint256)"
      },
      {
        "astId": 1512,
        "contract": "contracts/Lexiconomy.sol:Lexiconomy",
        "label": "_tokenURIs",
        "offset": 0,
        "slot": "10",
        "type": "t_mapping(t_uint256,t_string_storage)"
      },
      {
        "astId": 122,
        "contract": "contracts/Lexiconomy.sol:Lexiconomy",
        "label": "_paused",
        "offset": 0,
        "slot": "11",
        "type": "t_bool"
      },
      {
        "astId": 7,
        "contract": "contracts/Lexiconomy.sol:Lexiconomy",
        "label": "_owner",
        "offset": 1,
        "slot": "11",
        "type": "t_address"
      },
      {
        "astId": 2660,
        "contract": "contracts/Lexiconomy.sol:Lexiconomy",
        "label": "proxyRegistryAddress",
        "offset": 0,
        "slot": "12",
        "type": "t_address"
      },
      {
        "astId": 2756,
        "contract": "contracts/Lexiconomy.sol:Lexiconomy",
        "label": "lemmas",
        "offset": 0,
        "slot": "13",
        "type": "t_mapping(t_uint256,t_struct(Lemma)2751_storage)"
      },
      {
        "astId": 2765,
        "contract": "contracts/Lexiconomy.sol:Lexiconomy",
        "label": "pricer",
        "offset": 0,
        "slot": "14",
        "type": "t_contract(Pricer)3422"
      },
      {
        "astId": 2801,
        "contract": "contracts/Lexiconomy.sol:Lexiconomy",
        "label": "lemmaValidator",
        "offset": 0,
        "slot": "15",
        "type": "t_contract(StringValidator)3435"
      }
    ],
    "types": {
      "t_address": {
        "encoding": "inplace",
        "label": "address",
        "numberOfBytes": "20"
      },
      "t_array(t_uint256)dyn_storage": {
        "base": "t_uint256",
        "encoding": "dynamic_array",
        "label": "uint256[]",
        "numberOfBytes": "32"
      },
      "t_bool": {
        "encoding": "inplace",
        "label": "bool",
        "numberOfBytes": "1"
      },
      "t_contract(Pricer)3422": {
        "encoding": "inplace",
        "label": "contract Pricer",
        "numberOfBytes": "20"
      },
      "t_contract(StringValidator)3435": {
        "encoding": "inplace",
        "label": "contract StringValidator",
        "numberOfBytes": "20"
      },
      "t_mapping(t_address,t_bool)": {
        "encoding": "mapping",
        "key": "t_address",
        "label": "mapping(address => bool)",
        "numberOfBytes": "32",
        "value": "t_bool"
      },
      "t_mapping(t_address,t_mapping(t_address,t_bool))": {
        "encoding": "mapping",
        "key": "t_address",
        "label": "mapping(address => mapping(address => bool))",
        "numberOfBytes": "32",
        "value": "t_mapping(t_address,t_bool)"
      },
      "t_mapping(t_address,t_mapping(t_uint256,t_uint256))": {
        "encoding": "mapping",
        "key": "t_address",
        "label": "mapping(address => mapping(uint256 => uint256))",
        "numberOfBytes": "32",
        "value": "t_mapping(t_uint256,t_uint256)"
      },
      "t_mapping(t_address,t_uint256)": {
        "encoding": "mapping",
        "key": "t_address",
        "label": "mapping(address => uint256)",
        "numberOfBytes": "32",
        "value": "t_uint256"
      },
      "t_mapping(t_uint256,t_address)": {
        "encoding": "mapping",
        "key": "t_uint256",
        "label": "mapping(uint256 => address)",
        "numberOfBytes": "32",
        "value": "t_address"
      },
      "t_mapping(t_uint256,t_string_storage)": {
        "encoding": "mapping",
        "key": "t_uint256",
        "label": "mapping(uint256 => string)",
        "numberOfBytes": "32",
        "value": "t_string_storage"
      },
      "t_mapping(t_uint256,t_struct(Lemma)2751_storage)": {
        "encoding": "mapping",
        "key": "t_uint256",
        "label": "mapping(uint256 => struct LemmaToken.Lemma)",
        "numberOfBytes": "32",
        "value": "t_struct(Lemma)2751_storage"
      },
      "t_mapping(t_uint256,t_uint256)": {
        "encoding": "mapping",
        "key": "t_uint256",
        "label": "mapping(uint256 => uint256)",
        "numberOfBytes": "32",
        "value": "t_uint256"
      },
      "t_string_storage": {
        "encoding": "bytes",
        "label": "string",
        "numberOfBytes": "32"
      },
      "t_struct(Lemma)2751_storage": {
        "encoding": "inplace",
        "label": "struct LemmaToken.Lemma",
        "members": [
          {
            "astId": 2746,
            "contract": "contracts/Lexiconomy.sol:Lexiconomy",
            "label": "lemma",
            "offset": 0,
            "slot": "0",
            "type": "t_string_storage"
          },
          {
            "astId": 2748,
            "contract": "contracts/Lexiconomy.sol:Lexiconomy",
            "label": "definition",
            "offset": 0,
            "slot": "1",
            "type": "t_string_storage"
          },
          {
            "astId": 2750,
            "contract": "contracts/Lexiconomy.sol:Lexiconomy",
            "label": "example",
            "offset": 0,
            "slot": "2",
            "type": "t_string_storage"
          }
        ],
        "numberOfBytes": "96"
      },
      "t_uint256": {
        "encoding": "inplace",
        "label": "uint256",
        "numberOfBytes": "32"
      }
    }
  }
}