{
  "address": "0x5E665E41dF55470FD7284Cf9E48cE427FC34f7b5",
  "abi": [
    {
      "inputs": [
        {
          "internalType": "address",
          "name": "_pricer",
          "type": "address"
        },
        {
          "internalType": "address",
          "name": "_lemmaValidator",
          "type": "address"
        }
      ],
      "stateMutability": "nonpayable",
      "type": "constructor"
    },
    {
      "anonymous": false,
      "inputs": [
        {
          "indexed": true,
          "internalType": "address",
          "name": "owner",
          "type": "address"
        },
        {
          "indexed": true,
          "internalType": "address",
          "name": "approved",
          "type": "address"
        },
        {
          "indexed": true,
          "internalType": "uint256",
          "name": "tokenId",
          "type": "uint256"
        }
      ],
      "name": "Approval",
      "type": "event"
    },
    {
      "anonymous": false,
      "inputs": [
        {
          "indexed": true,
          "internalType": "address",
          "name": "owner",
          "type": "address"
        },
        {
          "indexed": true,
          "internalType": "address",
          "name": "operator",
          "type": "address"
        },
        {
          "indexed": false,
          "internalType": "bool",
          "name": "approved",
          "type": "bool"
        }
      ],
      "name": "ApprovalForAll",
      "type": "event"
    },
    {
      "anonymous": false,
      "inputs": [
        {
          "indexed": true,
          "internalType": "address",
          "name": "owner",
          "type": "address"
        },
        {
          "indexed": true,
          "internalType": "uint256",
          "name": "tokenId",
          "type": "uint256"
        },
        {
          "indexed": false,
          "internalType": "string",
          "name": "definition",
          "type": "string"
        }
      ],
      "name": "Definition",
      "type": "event"
    },
    {
      "anonymous": false,
      "inputs": [
        {
          "indexed": true,
          "internalType": "address",
          "name": "donor",
          "type": "address"
        }
      ],
      "name": "Donation",
      "type": "event"
    },
    {
      "anonymous": false,
      "inputs": [
        {
          "indexed": true,
          "internalType": "address",
          "name": "owner",
          "type": "address"
        },
        {
          "indexed": true,
          "internalType": "uint256",
          "name": "tokenId",
          "type": "uint256"
        },
        {
          "indexed": false,
          "internalType": "string",
          "name": "example",
          "type": "string"
        }
      ],
      "name": "Example",
      "type": "event"
    },
    {
      "anonymous": false,
      "inputs": [
        {
          "indexed": true,
          "internalType": "address",
          "name": "owner",
          "type": "address"
        },
        {
          "indexed": true,
          "internalType": "uint256",
          "name": "tokenId",
          "type": "uint256"
        },
        {
          "indexed": false,
          "internalType": "string",
          "name": "lemma",
          "type": "string"
        }
      ],
      "name": "Invent",
      "type": "event"
    },
    {
      "anonymous": false,
      "inputs": [
        {
          "indexed": true,
          "internalType": "address",
          "name": "previousOwner",
          "type": "address"
        },
        {
          "indexed": true,
          "internalType": "address",
          "name": "newOwner",
          "type": "address"
        }
      ],
      "name": "OwnershipTransferred",
      "type": "event"
    },
    {
      "anonymous": false,
      "inputs": [
        {
          "indexed": false,
          "internalType": "address",
          "name": "account",
          "type": "address"
        }
      ],
      "name": "Paused",
      "type": "event"
    },
    {
      "anonymous": false,
      "inputs": [
        {
          "indexed": true,
          "internalType": "address",
          "name": "from",
          "type": "address"
        },
        {
          "indexed": true,
          "internalType": "address",
          "name": "to",
          "type": "address"
        },
        {
          "indexed": true,
          "internalType": "uint256",
          "name": "tokenId",
          "type": "uint256"
        }
      ],
      "name": "Transfer",
      "type": "event"
    },
    {
      "anonymous": false,
      "inputs": [
        {
          "indexed": false,
          "internalType": "address",
          "name": "account",
          "type": "address"
        }
      ],
      "name": "Unpaused",
      "type": "event"
    },
    {
      "inputs": [
        {
          "internalType": "address",
          "name": "to",
          "type": "address"
        },
        {
          "internalType": "string",
          "name": "_lemma",
          "type": "string"
        },
        {
          "internalType": "string",
          "name": "_definition",
          "type": "string"
        },
        {
          "internalType": "string",
          "name": "_example",
          "type": "string"
        }
      ],
      "name": "airdrop",
      "outputs": [
        {
          "internalType": "uint256",
          "name": "tokenId",
          "type": "uint256"
        }
      ],
      "stateMutability": "nonpayable",
      "type": "function"
    },
    {
      "inputs": [
        {
          "internalType": "address",
          "name": "to",
          "type": "address"
        },
        {
          "internalType": "uint256",
          "name": "tokenId",
          "type": "uint256"
        }
      ],
      "name": "approve",
      "outputs": [],
      "stateMutability": "nonpayable",
      "type": "function"
    },
    {
      "inputs": [
        {
          "internalType": "address",
          "name": "owner",
          "type": "address"
        }
      ],
      "name": "balanceOf",
      "outputs": [
        {
          "internalType": "uint256",
          "name": "",
          "type": "uint256"
        }
      ],
      "stateMutability": "view",
      "type": "function"
    },
    {
      "inputs": [
        {
          "internalType": "uint256",
          "name": "tokenId",
          "type": "uint256"
        },
        {
          "internalType": "string",
          "name": "_text",
          "type": "string"
        }
      ],
      "name": "definition",
      "outputs": [],
      "stateMutability": "nonpayable",
      "type": "function"
    },
    {
      "inputs": [],
      "name": "donate",
      "outputs": [],
      "stateMutability": "payable",
      "type": "function"
    },
    {
      "inputs": [
        {
          "internalType": "uint256",
          "name": "tokenId",
          "type": "uint256"
        },
        {
          "internalType": "string",
          "name": "_text",
          "type": "string"
        }
      ],
      "name": "example",
      "outputs": [],
      "stateMutability": "nonpayable",
      "type": "function"
    },
    {
      "inputs": [
        {
          "internalType": "uint256",
          "name": "tokenId",
          "type": "uint256"
        }
      ],
      "name": "getApproved",
      "outputs": [
        {
          "internalType": "address",
          "name": "",
          "type": "address"
        }
      ],
      "stateMutability": "view",
      "type": "function"
    },
    {
      "inputs": [
        {
          "internalType": "string",
          "name": "_lemma",
          "type": "string"
        }
      ],
      "name": "getTokenId",
      "outputs": [
        {
          "internalType": "uint256",
          "name": "",
          "type": "uint256"
        }
      ],
      "stateMutability": "pure",
      "type": "function"
    },
    {
      "inputs": [
        {
          "internalType": "address",
          "name": "owner",
          "type": "address"
        },
        {
          "internalType": "address",
          "name": "operator",
          "type": "address"
        }
      ],
      "name": "isApprovedForAll",
      "outputs": [
        {
          "internalType": "bool",
          "name": "",
          "type": "bool"
        }
      ],
      "stateMutability": "view",
      "type": "function"
    },
    {
      "inputs": [
        {
          "internalType": "string",
          "name": "_lemma",
          "type": "string"
        }
      ],
      "name": "lemmaValid",
      "outputs": [
        {
          "internalType": "bool",
          "name": "",
          "type": "bool"
        }
      ],
      "stateMutability": "view",
      "type": "function"
    },
    {
      "inputs": [],
      "name": "lemmaValidator",
      "outputs": [
        {
          "internalType": "contract StringValidator",
          "name": "",
          "type": "address"
        }
      ],
      "stateMutability": "view",
      "type": "function"
    },
    {
      "inputs": [
        {
          "internalType": "uint256",
          "name": "",
          "type": "uint256"
        }
      ],
      "name": "lemmas",
      "outputs": [
        {
          "internalType": "string",
          "name": "lemma",
          "type": "string"
        },
        {
          "internalType": "string",
          "name": "definition",
          "type": "string"
        },
        {
          "internalType": "string",
          "name": "example",
          "type": "string"
        }
      ],
      "stateMutability": "view",
      "type": "function"
    },
    {
      "inputs": [
        {
          "internalType": "string",
          "name": "_lemma",
          "type": "string"
        },
        {
          "internalType": "string",
          "name": "_definition",
          "type": "string"
        },
        {
          "internalType": "string",
          "name": "_example",
          "type": "string"
        }
      ],
      "name": "mint",
      "outputs": [
        {
          "internalType": "uint256",
          "name": "tokenId",
          "type": "uint256"
        }
      ],
      "stateMutability": "payable",
      "type": "function"
    },
    {
      "inputs": [],
      "name": "mintFee",
      "outputs": [
        {
          "internalType": "uint256",
          "name": "",
          "type": "uint256"
        }
      ],
      "stateMutability": "view",
      "type": "function"
    },
    {
      "inputs": [],
      "name": "name",
      "outputs": [
        {
          "internalType": "string",
          "name": "",
          "type": "string"
        }
      ],
      "stateMutability": "view",
      "type": "function"
    },
    {
      "inputs": [],
      "name": "owner",
      "outputs": [
        {
          "internalType": "address",
          "name": "",
          "type": "address"
        }
      ],
      "stateMutability": "view",
      "type": "function"
    },
    {
      "inputs": [
        {
          "internalType": "uint256",
          "name": "tokenId",
          "type": "uint256"
        }
      ],
      "name": "ownerOf",
      "outputs": [
        {
          "internalType": "address",
          "name": "",
          "type": "address"
        }
      ],
      "stateMutability": "view",
      "type": "function"
    },
    {
      "inputs": [],
      "name": "pause",
      "outputs": [],
      "stateMutability": "nonpayable",
      "type": "function"
    },
    {
      "inputs": [],
      "name": "paused",
      "outputs": [
        {
          "internalType": "bool",
          "name": "",
          "type": "bool"
        }
      ],
      "stateMutability": "view",
      "type": "function"
    },
    {
      "inputs": [],
      "name": "pricer",
      "outputs": [
        {
          "internalType": "contract Pricer",
          "name": "",
          "type": "address"
        }
      ],
      "stateMutability": "view",
      "type": "function"
    },
    {
      "inputs": [],
      "name": "pricerInterfaceId",
      "outputs": [
        {
          "internalType": "bytes4",
          "name": "",
          "type": "bytes4"
        }
      ],
      "stateMutability": "view",
      "type": "function"
    },
    {
      "inputs": [],
      "name": "proxyRegistryAddress",
      "outputs": [
        {
          "internalType": "address",
          "name": "",
          "type": "address"
        }
      ],
      "stateMutability": "view",
      "type": "function"
    },
    {
      "inputs": [],
      "name": "renounceOwnership",
      "outputs": [],
      "stateMutability": "nonpayable",
      "type": "function"
    },
    {
      "inputs": [
        {
          "internalType": "address",
          "name": "from",
          "type": "address"
        },
        {
          "internalType": "address",
          "name": "to",
          "type": "address"
        },
        {
          "internalType": "uint256",
          "name": "tokenId",
          "type": "uint256"
        }
      ],
      "name": "safeTransferFrom",
      "outputs": [],
      "stateMutability": "nonpayable",
      "type": "function"
    },
    {
      "inputs": [
        {
          "internalType": "address",
          "name": "from",
          "type": "address"
        },
        {
          "internalType": "address",
          "name": "to",
          "type": "address"
        },
        {
          "internalType": "uint256",
          "name": "tokenId",
          "type": "uint256"
        },
        {
          "internalType": "bytes",
          "name": "_data",
          "type": "bytes"
        }
      ],
      "name": "safeTransferFrom",
      "outputs": [],
      "stateMutability": "nonpayable",
      "type": "function"
    },
    {
      "inputs": [
        {
          "internalType": "address",
          "name": "operator",
          "type": "address"
        },
        {
          "internalType": "bool",
          "name": "approved",
          "type": "bool"
        }
      ],
      "name": "setApprovalForAll",
      "outputs": [],
      "stateMutability": "nonpayable",
      "type": "function"
    },
    {
      "inputs": [
        {
          "internalType": "address",
          "name": "_address",
          "type": "address"
        }
      ],
      "name": "setLemmaValidator",
      "outputs": [],
      "stateMutability": "nonpayable",
      "type": "function"
    },
    {
      "inputs": [
        {
          "internalType": "address",
          "name": "_address",
          "type": "address"
        }
      ],
      "name": "setPricer",
      "outputs": [],
      "stateMutability": "nonpayable",
      "type": "function"
    },
    {
      "inputs": [
        {
          "internalType": "address",
          "name": "_address",
          "type": "address"
        }
      ],
      "name": "setProxyRegistryAddress",
      "outputs": [],
      "stateMutability": "nonpayable",
      "type": "function"
    },
    {
      "inputs": [],
      "name": "stringValidatorInterfaceId",
      "outputs": [
        {
          "internalType": "bytes4",
          "name": "",
          "type": "bytes4"
        }
      ],
      "stateMutability": "view",
      "type": "function"
    },
    {
      "inputs": [
        {
          "internalType": "bytes4",
          "name": "interfaceId",
          "type": "bytes4"
        }
      ],
      "name": "supportsInterface",
      "outputs": [
        {
          "internalType": "bool",
          "name": "",
          "type": "bool"
        }
      ],
      "stateMutability": "view",
      "type": "function"
    },
    {
      "inputs": [],
      "name": "symbol",
      "outputs": [
        {
          "internalType": "string",
          "name": "",
          "type": "string"
        }
      ],
      "stateMutability": "view",
      "type": "function"
    },
    {
      "inputs": [
        {
          "internalType": "uint256",
          "name": "index",
          "type": "uint256"
        }
      ],
      "name": "tokenByIndex",
      "outputs": [
        {
          "internalType": "uint256",
          "name": "",
          "type": "uint256"
        }
      ],
      "stateMutability": "view",
      "type": "function"
    },
    {
      "inputs": [
        {
          "internalType": "address",
          "name": "owner",
          "type": "address"
        },
        {
          "internalType": "uint256",
          "name": "index",
          "type": "uint256"
        }
      ],
      "name": "tokenOfOwnerByIndex",
      "outputs": [
        {
          "internalType": "uint256",
          "name": "",
          "type": "uint256"
        }
      ],
      "stateMutability": "view",
      "type": "function"
    },
    {
      "inputs": [
        {
          "internalType": "uint256",
          "name": "tokenId",
          "type": "uint256"
        }
      ],
      "name": "tokenURI",
      "outputs": [
        {
          "internalType": "string",
          "name": "",
          "type": "string"
        }
      ],
      "stateMutability": "view",
      "type": "function"
    },
    {
      "inputs": [],
      "name": "totalSupply",
      "outputs": [
        {
          "internalType": "uint256",
          "name": "",
          "type": "uint256"
        }
      ],
      "stateMutability": "view",
      "type": "function"
    },
    {
      "inputs": [
        {
          "internalType": "address",
          "name": "from",
          "type": "address"
        },
        {
          "internalType": "address",
          "name": "to",
          "type": "address"
        },
        {
          "internalType": "uint256",
          "name": "tokenId",
          "type": "uint256"
        }
      ],
      "name": "transferFrom",
      "outputs": [],
      "stateMutability": "nonpayable",
      "type": "function"
    },
    {
      "inputs": [
        {
          "internalType": "address",
          "name": "newOwner",
          "type": "address"
        }
      ],
      "name": "transferOwnership",
      "outputs": [],
      "stateMutability": "nonpayable",
      "type": "function"
    },
    {
      "inputs": [],
      "name": "unpause",
      "outputs": [],
      "stateMutability": "nonpayable",
      "type": "function"
    }
  ],
  "transactionHash": "0x72b076b7d744b98dd6b5b397cc76d3c9dcec30ac0fe04b3697acf297f5f6f978",
  "args": [
    "0xDdF956e33f238bE394787A4C04EF3038E3307802",
    "0xe93234da8074c55E3de7E2Ba886abD0fC59B000f"
  ],
  "numDeployments": 2,
  "solcInputHash": "c0113a7129626e27a1ab21bf12a3156a",
  "bytecode": "0x60806040523480156200001157600080fd5b506040516200397d3803806200397d833981016040819052620000349162000659565b60408051808201825260118152702a3432902632bc34b1b7b737b6bc903b1960791b6020808301918252835180850190945260038452620988ab60eb1b908401528151919291620000889160009162000596565b5080516200009e90600190602084019062000596565b5050600b805460ff1916905550620000b633620000de565b620000c062000138565b620000cb8262000199565b620000d68162000299565b505062000737565b600b80546001600160a01b03838116610100818102610100600160a81b031985161790945560405193909204169182907f8be0079c531659141344cd1fd0a4f28419497f9722a3daafe3b4186f6b6457e090600090a35050565b600b546001600160a01b036101009091041633146200018d5760405162461bcd60e51b815260206004820181905260248201526000805160206200395d83398151915260448201526064015b60405180910390fd5b62000197620003a7565b565b600b546001600160a01b03610100909104163314620001ea5760405162461bcd60e51b815260206004820181905260248201526000805160206200395d833981519152604482015260640162000184565b6200021463501ad8ff60e11b826001600160a01b03166200044260201b620016181790919060201c565b620002775760405162461bcd60e51b815260206004820152603b60248201526000805160206200393d83398151915260448201527f6c656d656e74207468652050726963657220696e746572666163650000000000606482015260840162000184565b600e80546001600160a01b0319166001600160a01b0392909216919091179055565b600b546001600160a01b03610100909104163314620002ea5760405162461bcd60e51b815260206004820181905260248201526000805160206200395d833981519152604482015260640162000184565b62000314639791c09760e01b826001600160a01b03166200044260201b620016181790919060201c565b620003855760405162461bcd60e51b8152602060048201526044602482018190526000805160206200393d833981519152908201527f6c656d656e742074686520537472696e6756616c696461746f7220696e7465726064820152636661636560e01b608482015260a40162000184565b600f80546001600160a01b0319166001600160a01b0392909216919091179055565b600b5460ff1615620003ef5760405162461bcd60e51b815260206004820152601060248201526f14185d5cd8589b194e881c185d5cd95960821b604482015260640162000184565b600b805460ff191660011790557f62e78cea01bee320cd4e420270b5ea74000d11b0c9f74754ebdbfc544b05a258620004253390565b6040516001600160a01b03909116815260200160405180910390a1565b60006200044f836200046c565b8015620004635750620004638383620004a4565b90505b92915050565b600062000481826301ffc9a760e01b620004a4565b80156200046657506200049d826001600160e01b0319620004a4565b1592915050565b604080516001600160e01b0319831660248083019190915282518083039091018152604490910182526020810180516001600160e01b03166301ffc9a760e01b179052905160009190829081906001600160a01b03871690617530906200050d90869062000691565b6000604051808303818686fa925050503d80600081146200054b576040519150601f19603f3d011682016040523d82523d6000602084013e62000550565b606091505b50915091506020815110156200056d576000935050505062000466565b8180156200058c5750808060200190518101906200058c9190620006cf565b9695505050505050565b828054620005a490620006fa565b90600052602060002090601f016020900481019282620005c8576000855562000613565b82601f10620005e357805160ff191683800117855562000613565b8280016001018555821562000613579182015b8281111562000613578251825591602001919060010190620005f6565b506200062192915062000625565b5090565b5b8082111562000621576000815560010162000626565b80516001600160a01b03811681146200065457600080fd5b919050565b600080604083850312156200066d57600080fd5b62000678836200063c565b915062000688602084016200063c565b90509250929050565b6000825160005b81811015620006b4576020818601810151858301520162000698565b81811115620006c4576000828501525b509190910192915050565b600060208284031215620006e257600080fd5b81518015158114620006f357600080fd5b9392505050565b600181811c908216806200070f57607f821691505b602082108114156200073157634e487b7160e01b600052602260045260246000fd5b50919050565b6131f680620007476000396000f3fe6080604052600436106102305760003560e01c80636352211e1161012e578063a22cb465116100ab578063d26ea6c01161006f578063d26ea6c01461068b578063d645ddf6146106ab578063e985e9c5146106be578063ed88c68e146106de578063f2fde38b146106e657600080fd5b8063a22cb465146105eb578063a6138ed91461060b578063b88d4fde1461062b578063c87b56dd1461064b578063cd7c03261461066b57600080fd5b80638da5cb5b116100f25780638da5cb5b14610544578063906979911461056757806395d89b411461059b57806395df7e56146105b05780639efb8eb1146105cb57600080fd5b80636352211e146104ba57806370a08231146104da578063715018a6146104fa5780637e4fbb831461050f5780638456cb591461052f57600080fd5b80632f745c59116101bc5780634891a178116101805780634891a178146104225780634f6ccce71461044257806352d41014146104625780635c975abb146104825780635ea297681461049a57600080fd5b80632f745c591461037e57806336d469d81461039e5780633f4ba83a146103be57806342842e0e146103d357806347202e5c146103f357600080fd5b806313966db51161020357806313966db5146102e657806318160ddd146103095780631e7663bc1461031e57806323b872dd1461033e578063293903701461035e57600080fd5b806301ffc9a71461023557806306fdde031461026a578063081812fc1461028c578063095ea7b3146102c4575b600080fd5b34801561024157600080fd5b506102556102503660046128d7565b610706565b60405190151581526020015b60405180910390f35b34801561027657600080fd5b5061027f610717565b604051610261919061294c565b34801561029857600080fd5b506102ac6102a736600461295f565b6107a9565b6040516001600160a01b039091168152602001610261565b3480156102d057600080fd5b506102e46102df36600461298d565b610843565b005b3480156102f257600080fd5b506102fb610959565b604051908152602001610261565b34801561031557600080fd5b506008546102fb565b34801561032a57600080fd5b506102fb610339366004612a02565b6109db565b34801561034a57600080fd5b506102e4610359366004612a44565b6109fd565b34801561036a57600080fd5b506102e4610379366004612a85565b610a2e565b34801561038a57600080fd5b506102fb61039936600461298d565b610b0c565b3480156103aa57600080fd5b506102e46103b9366004612a85565b610ba2565b3480156103ca57600080fd5b506102e4610c8e565b3480156103df57600080fd5b506102e46103ee366004612a44565b610cc8565b3480156103ff57600080fd5b5061041361040e36600461295f565b610ce3565b60405161026193929190612aa2565b34801561042e57600080fd5b5061025561043d366004612a02565b610e9d565b34801561044e57600080fd5b506102fb61045d36600461295f565b610f27565b34801561046e57600080fd5b50600f546102ac906001600160a01b031681565b34801561048e57600080fd5b50600b5460ff16610255565b3480156104a657600080fd5b506102e46104b5366004612adb565b610fba565b3480156104c657600080fd5b506102ac6104d536600461295f565b61106f565b3480156104e657600080fd5b506102fb6104f5366004612a85565b6110e6565b34801561050657600080fd5b506102e461116d565b34801561051b57600080fd5b506102fb61052a366004612b27565b6111a7565b34801561053b57600080fd5b506102e4611227565b34801561055057600080fd5b50600b5461010090046001600160a01b03166102ac565b34801561057357600080fd5b50610582639791c09760e01b81565b6040516001600160e01b03199091168152602001610261565b3480156105a757600080fd5b5061027f61125f565b3480156105bc57600080fd5b5061058263501ad8ff60e11b81565b3480156105d757600080fd5b506102e46105e6366004612adb565b61126e565b3480156105f757600080fd5b506102e4610606366004612be2565b611315565b34801561061757600080fd5b50600e546102ac906001600160a01b031681565b34801561063757600080fd5b506102e4610646366004612c31565b611324565b34801561065757600080fd5b5061027f61066636600461295f565b61135c565b34801561067757600080fd5b50600c546102ac906001600160a01b031681565b34801561069757600080fd5b506102e46106a6366004612a85565b611367565b6102fb6106b9366004612d11565b6113b9565b3480156106ca57600080fd5b506102556106d9366004612dab565b61145e565b6102e461153d565b3480156106f257600080fd5b506102e4610701366004612a85565b611577565b600061071182611634565b92915050565b60606000805461072690612dd9565b80601f016020809104026020016040519081016040528092919081815260200182805461075290612dd9565b801561079f5780601f106107745761010080835404028352916020019161079f565b820191906000526020600020905b81548152906001019060200180831161078257829003601f168201915b5050505050905090565b6000818152600260205260408120546001600160a01b03166108275760405162461bcd60e51b815260206004820152602c60248201527f4552433732313a20617070726f76656420717565727920666f72206e6f6e657860448201526b34b9ba32b73a103a37b5b2b760a11b60648201526084015b60405180910390fd5b506000908152600460205260409020546001600160a01b031690565b600061084e8261106f565b9050806001600160a01b0316836001600160a01b031614156108bc5760405162461bcd60e51b815260206004820152602160248201527f4552433732313a20617070726f76616c20746f2063757272656e74206f776e656044820152603960f91b606482015260840161081e565b336001600160a01b03821614806108d857506108d8813361145e565b61094a5760405162461bcd60e51b815260206004820152603860248201527f4552433732313a20617070726f76652063616c6c6572206973206e6f74206f7760448201527f6e6572206e6f7220617070726f76656420666f7220616c6c0000000000000000606482015260840161081e565b6109548383611659565b505050565b600e546040805163501ad8ff60e11b815290516000926001600160a01b03169163a035b1fe916004808301926020929190829003018186803b15801561099e57600080fd5b505afa1580156109b2573d6000803e3d6000fd5b505050506040513d601f19601f820116820180604052508101906109d69190612e14565b905090565b600082826040516109ed929190612e2d565b6040519081900390209392505050565b610a0733826116c7565b610a235760405162461bcd60e51b815260040161081e90612e3d565b61095483838361179e565b600b546001600160a01b03610100909104163314610a5e5760405162461bcd60e51b815260040161081e90612e8e565b610a786001600160a01b03821663501ad8ff60e11b611618565b610aea5760405162461bcd60e51b815260206004820152603b60248201527f4c656d6d61546f6b656e3a206164647265737320646f6573206e6f7420696d7060448201527f6c656d656e74207468652050726963657220696e746572666163650000000000606482015260840161081e565b600e80546001600160a01b0319166001600160a01b0392909216919091179055565b6000610b17836110e6565b8210610b795760405162461bcd60e51b815260206004820152602b60248201527f455243373231456e756d657261626c653a206f776e657220696e646578206f7560448201526a74206f6620626f756e647360a81b606482015260840161081e565b506001600160a01b03919091166000908152600660209081526040808320938352929052205490565b600b546001600160a01b03610100909104163314610bd25760405162461bcd60e51b815260040161081e90612e8e565b610bec6001600160a01b038216639791c09760e01b611618565b610c6c5760405162461bcd60e51b8152602060048201526044602482018190527f4c656d6d61546f6b656e3a206164647265737320646f6573206e6f7420696d70908201527f6c656d656e742074686520537472696e6756616c696461746f7220696e7465726064820152636661636560e01b608482015260a40161081e565b600f80546001600160a01b0319166001600160a01b0392909216919091179055565b600b546001600160a01b03610100909104163314610cbe5760405162461bcd60e51b815260040161081e90612e8e565b610cc6611949565b565b61095483838360405180602001604052806000815250611324565b600d60205260009081526040902080548190610cfe90612dd9565b80601f0160208091040260200160405190810160405280929190818152602001828054610d2a90612dd9565b8015610d775780601f10610d4c57610100808354040283529160200191610d77565b820191906000526020600020905b815481529060010190602001808311610d5a57829003601f168201915b505050505090806001018054610d8c90612dd9565b80601f0160208091040260200160405190810160405280929190818152602001828054610db890612dd9565b8015610e055780601f10610dda57610100808354040283529160200191610e05565b820191906000526020600020905b815481529060010190602001808311610de857829003601f168201915b505050505090806002018054610e1a90612dd9565b80601f0160208091040260200160405190810160405280929190818152602001828054610e4690612dd9565b8015610e935780601f10610e6857610100808354040283529160200191610e93565b820191906000526020600020905b815481529060010190602001808311610e7657829003601f168201915b5050505050905083565b600f54604051639791c09760e01b81526000916001600160a01b031690639791c09790610ed09086908690600401612ec3565b60206040518083038186803b158015610ee857600080fd5b505afa158015610efc573d6000803e3d6000fd5b505050506040513d601f19601f82011682018060405250810190610f209190612ef2565b9392505050565b6000610f3260085490565b8210610f955760405162461bcd60e51b815260206004820152602c60248201527f455243373231456e756d657261626c653a20676c6f62616c20696e646578206f60448201526b7574206f6620626f756e647360a01b606482015260840161081e565b60088281548110610fa857610fa8612f0f565b90600052602060002001549050919050565b600b5460ff1615610fdd5760405162461bcd60e51b815260040161081e90612f25565b6000610fe933856116c7565b9050806110085760405162461bcd60e51b815260040161081e90612f4f565b6000848152600d602052604090206110249060020184846127b4565b5083336001600160a01b03167fc7bf025f4d38f11ad3e169ba0151f04b9ecab0d71335c1137fa5a33ec1b4d6408585604051611061929190612ec3565b60405180910390a350505050565b6000818152600260205260408120546001600160a01b0316806107115760405162461bcd60e51b815260206004820152602960248201527f4552433732313a206f776e657220717565727920666f72206e6f6e657869737460448201526832b73a103a37b5b2b760b91b606482015260840161081e565b60006001600160a01b0382166111515760405162461bcd60e51b815260206004820152602a60248201527f4552433732313a2062616c616e636520717565727920666f7220746865207a65604482015269726f206164647265737360b01b606482015260840161081e565b506001600160a01b031660009081526003602052604090205490565b600b546001600160a01b0361010090910416331461119d5760405162461bcd60e51b815260040161081e90612e8e565b610cc660006119dc565b600b546000906001600160a01b036101009091041633146111da5760405162461bcd60e51b815260040161081e90612e8e565b6111e48787610e9d565b6112005760405162461bcd60e51b815260040161081e90612f9b565b61120a87876109db565b905061121c8882898989898989611a36565b979650505050505050565b600b546001600160a01b036101009091041633146112575760405162461bcd60e51b815260040161081e90612e8e565b610cc6611c2c565b60606001805461072690612dd9565b600b5460ff16156112915760405162461bcd60e51b815260040161081e90612f25565b600061129d33856116c7565b9050806112bc5760405162461bcd60e51b815260040161081e90612f4f565b6000848152600d602052604090206112d89060010184846127b4565b5083336001600160a01b03167feb51d73a25def7e9d1760d74d89aeee490fb848ba611ca0c233e545db0ffbc248585604051611061929190612ec3565b611320338383611c84565b5050565b61132e33836116c7565b61134a5760405162461bcd60e51b815260040161081e90612e3d565b61135684848484611d53565b50505050565b606061071182611d86565b600b546001600160a01b036101009091041633146113975760405162461bcd60e51b815260040161081e90612e8e565b600c80546001600160a01b0319166001600160a01b0392909216919091179055565b60006113c3610959565b3410156114125760405162461bcd60e51b815260206004820152601f60248201527f4c656d6d61546f6b656e3a206d696e74696e672066656520746f6f206c6f7700604482015260640161081e565b61141c8787610e9d565b6114385760405162461bcd60e51b815260040161081e90612f9b565b61144287876109db565b90506114543382898989898989611a36565b9695505050505050565b600c546000906001600160a01b03161561150f57600c5460405163c455279160e01b81526001600160a01b03858116600483015291821691841690829063c45527919060240160206040518083038186803b1580156114bc57600080fd5b505afa1580156114d0573d6000803e3d6000fd5b505050506040513d601f19601f820116820180604052508101906114f49190613002565b6001600160a01b0316141561150d576001915050610711565b505b6001600160a01b0380841660009081526005602090815260408083209386168352929052205460ff16610f20565b6000341161154a57600080fd5b60405133907f187f451f92c6a4236353b5331d5fb67bdbfcc66b54367037fba41d6bcef08ce790600090a2565b600b546001600160a01b036101009091041633146115a75760405162461bcd60e51b815260040161081e90612e8e565b6001600160a01b03811661160c5760405162461bcd60e51b815260206004820152602660248201527f4f776e61626c653a206e6577206f776e657220697320746865207a65726f206160448201526564647265737360d01b606482015260840161081e565b611615816119dc565b50565b600061162383611f2a565b8015610f205750610f208383611f5d565b60006001600160e01b0319821663780e9d6360e01b148061071157506107118261203c565b600081815260046020526040902080546001600160a01b0319166001600160a01b038416908117909155819061168e8261106f565b6001600160a01b03167f8c5be1e5ebec7d5bd14f71427d1e84f3dd0314c0f7b2291e5b200ac8c7c3b92560405160405180910390a45050565b6000818152600260205260408120546001600160a01b03166117405760405162461bcd60e51b815260206004820152602c60248201527f4552433732313a206f70657261746f7220717565727920666f72206e6f6e657860448201526b34b9ba32b73a103a37b5b2b760a11b606482015260840161081e565b600061174b8361106f565b9050806001600160a01b0316846001600160a01b031614806117865750836001600160a01b031661177b846107a9565b6001600160a01b0316145b806117965750611796818561145e565b949350505050565b826001600160a01b03166117b18261106f565b6001600160a01b0316146118195760405162461bcd60e51b815260206004820152602960248201527f4552433732313a207472616e73666572206f6620746f6b656e2074686174206960448201526839903737ba1037bbb760b91b606482015260840161081e565b6001600160a01b03821661187b5760405162461bcd60e51b8152602060048201526024808201527f4552433732313a207472616e7366657220746f20746865207a65726f206164646044820152637265737360e01b606482015260840161081e565b61188683838361208c565b611891600082611659565b6001600160a01b03831660009081526003602052604081208054600192906118ba908490613035565b90915550506001600160a01b03821660009081526003602052604081208054600192906118e890849061304c565b909155505060008181526002602052604080822080546001600160a01b0319166001600160a01b0386811691821790925591518493918716917fddf252ad1be2c89b69c2b068fc378daa952ba7f163c4a11628f55a4df523b3ef91a4505050565b600b5460ff166119925760405162461bcd60e51b815260206004820152601460248201527314185d5cd8589b194e881b9bdd081c185d5cd95960621b604482015260640161081e565b600b805460ff191690557f5db9ee0a495bf2e6ff9c91a7834c1ba4fdd244a5e8aa4e537bd38aeae4b073aa335b6040516001600160a01b03909116815260200160405180910390a1565b600b80546001600160a01b03838116610100818102610100600160a81b031985161790945560405193909204169182907f8be0079c531659141344cd1fd0a4f28419497f9722a3daafe3b4186f6b6457e090600090a35050565b611a4088886120ba565b604051806060016040528087878080601f016020809104026020016040519081016040528093929190818152602001838380828437600092019190915250505090825250604080516020601f880181900481028201810190925286815291810191908790879081908401838280828437600092019190915250505090825250604080516020601f8601819004810282018101909252848152918101919085908590819084018382808284376000920182905250939094525050898152600d6020908152604090912083518051919350611b1d928492910190612838565b506020828101518051611b369260018501920190612838565b5060408201518051611b52916002840191602090910190612838565b5090505086886001600160a01b03167f5abec3975d9cd754668d68227983987ab56bb8290c5537243775f0cd3108406d8888604051611b92929190612ec3565b60405180910390a386886001600160a01b03167feb51d73a25def7e9d1760d74d89aeee490fb848ba611ca0c233e545db0ffbc248686604051611bd6929190612ec3565b60405180910390a386886001600160a01b03167fc7bf025f4d38f11ad3e169ba0151f04b9ecab0d71335c1137fa5a33ec1b4d6408484604051611c1a929190612ec3565b60405180910390a35050505050505050565b600b5460ff1615611c4f5760405162461bcd60e51b815260040161081e90612f25565b600b805460ff191660011790557f62e78cea01bee320cd4e420270b5ea74000d11b0c9f74754ebdbfc544b05a2586119bf3390565b816001600160a01b0316836001600160a01b03161415611ce65760405162461bcd60e51b815260206004820152601960248201527f4552433732313a20617070726f766520746f2063616c6c657200000000000000604482015260640161081e565b6001600160a01b03838116600081815260056020908152604080832094871680845294825291829020805460ff191686151590811790915591519182527f17307eab39ab6107e8899845ad3d59bd9653f200f220920489ca2b5937696c31910160405180910390a3505050565b611d5e84848461179e565b611d6a848484846120d4565b6113565760405162461bcd60e51b815260040161081e90613064565b6000818152600260205260409020546060906001600160a01b0316611e075760405162461bcd60e51b815260206004820152603160248201527f45524337323155524953746f726167653a2055524920717565727920666f72206044820152703737b732bc34b9ba32b73a103a37b5b2b760791b606482015260840161081e565b6000828152600a602052604081208054611e2090612dd9565b80601f0160208091040260200160405190810160405280929190818152602001828054611e4c90612dd9565b8015611e995780601f10611e6e57610100808354040283529160200191611e99565b820191906000526020600020905b815481529060010190602001808311611e7c57829003601f168201915b505050505090506000611edc60408051808201909152601d81527f68747470733a2f2f6c657869636f6e6f6d792e6f72672f746f6b656e2f000000602082015290565b9050805160001415611eef575092915050565b815115611f21578082604051602001611f099291906130b6565b60405160208183030381529060405292505050919050565b611796846121e1565b6000611f3d826301ffc9a760e01b611f5d565b80156107115750611f56826001600160e01b0319611f5d565b1592915050565b604080516001600160e01b0319831660248083019190915282518083039091018152604490910182526020810180516001600160e01b03166301ffc9a760e01b179052905160009190829081906001600160a01b0387169061753090611fc49086906130e5565b6000604051808303818686fa925050503d8060008114612000576040519150601f19603f3d011682016040523d82523d6000602084013e612005565b606091505b50915091506020815110156120205760009350505050610711565b8180156114545750808060200190518101906114549190612ef2565b60006001600160e01b031982166380ac58cd60e01b148061206d57506001600160e01b03198216635b5e139f60e01b145b8061071157506301ffc9a760e01b6001600160e01b0319831614610711565b600b5460ff16156120af5760405162461bcd60e51b815260040161081e90612f25565b6109548383836122ed565b6113208282604051806020016040528060008152506123a5565b60006001600160a01b0384163b156121d657604051630a85bd0160e11b81526001600160a01b0385169063150b7a0290612118903390899088908890600401613101565b602060405180830381600087803b15801561213257600080fd5b505af1925050508015612162575060408051601f3d908101601f1916820190925261215f91810190613134565b60015b6121bc573d808015612190576040519150601f19603f3d011682016040523d82523d6000602084013e612195565b606091505b5080516121b45760405162461bcd60e51b815260040161081e90613064565b805181602001fd5b6001600160e01b031916630a85bd0160e11b149050611796565b506001949350505050565b6000818152600260205260409020546060906001600160a01b03166122605760405162461bcd60e51b815260206004820152602f60248201527f4552433732314d657461646174613a2055524920717565727920666f72206e6f60448201526e3732bc34b9ba32b73a103a37b5b2b760891b606482015260840161081e565b600061229c60408051808201909152601d81527f68747470733a2f2f6c657869636f6e6f6d792e6f72672f746f6b656e2f000000602082015290565b905060008151116122bc5760405180602001604052806000815250610f20565b806122c6846123d8565b6040516020016122d79291906130b6565b6040516020818303038152906040529392505050565b6001600160a01b0383166123485761234381600880546000838152600960205260408120829055600182018355919091527ff3f7a9fe364faab93b216da50a3214154f22a0a2b415b23a84c8169e8b636ee30155565b61236b565b816001600160a01b0316836001600160a01b03161461236b5761236b83826124d6565b6001600160a01b0382166123825761095481612573565b826001600160a01b0316826001600160a01b031614610954576109548282612622565b6123af8383612666565b6123bc60008484846120d4565b6109545760405162461bcd60e51b815260040161081e90613064565b6060816123fc5750506040805180820190915260018152600360fc1b602082015290565b8160005b8115612426578061241081613151565b915061241f9050600a83613182565b9150612400565b60008167ffffffffffffffff81111561244157612441612c1b565b6040519080825280601f01601f19166020018201604052801561246b576020820181803683370190505b5090505b841561179657612480600183613035565b915061248d600a86613196565b61249890603061304c565b60f81b8183815181106124ad576124ad612f0f565b60200101906001600160f81b031916908160001a9053506124cf600a86613182565b945061246f565b600060016124e3846110e6565b6124ed9190613035565b600083815260076020526040902054909150808214612540576001600160a01b03841660009081526006602090815260408083208584528252808320548484528184208190558352600790915290208190555b5060009182526007602090815260408084208490556001600160a01b039094168352600681528383209183525290812055565b60085460009061258590600190613035565b600083815260096020526040812054600880549394509092849081106125ad576125ad612f0f565b9060005260206000200154905080600883815481106125ce576125ce612f0f565b6000918252602080832090910192909255828152600990915260408082208490558582528120556008805480612606576126066131aa565b6001900381819060005260206000200160009055905550505050565b600061262d836110e6565b6001600160a01b039093166000908152600660209081526040808320868452825280832085905593825260079052919091209190915550565b6001600160a01b0382166126bc5760405162461bcd60e51b815260206004820181905260248201527f4552433732313a206d696e7420746f20746865207a65726f2061646472657373604482015260640161081e565b6000818152600260205260409020546001600160a01b0316156127215760405162461bcd60e51b815260206004820152601c60248201527f4552433732313a20746f6b656e20616c7265616479206d696e74656400000000604482015260640161081e565b61272d6000838361208c565b6001600160a01b038216600090815260036020526040812080546001929061275690849061304c565b909155505060008181526002602052604080822080546001600160a01b0319166001600160a01b03861690811790915590518392907fddf252ad1be2c89b69c2b068fc378daa952ba7f163c4a11628f55a4df523b3ef908290a45050565b8280546127c090612dd9565b90600052602060002090601f0160209004810192826127e25760008555612828565b82601f106127fb5782800160ff19823516178555612828565b82800160010185558215612828579182015b8281111561282857823582559160200191906001019061280d565b506128349291506128ac565b5090565b82805461284490612dd9565b90600052602060002090601f0160209004810192826128665760008555612828565b82601f1061287f57805160ff1916838001178555612828565b82800160010185558215612828579182015b82811115612828578251825591602001919060010190612891565b5b8082111561283457600081556001016128ad565b6001600160e01b03198116811461161557600080fd5b6000602082840312156128e957600080fd5b8135610f20816128c1565b60005b8381101561290f5781810151838201526020016128f7565b838111156113565750506000910152565b600081518084526129388160208601602086016128f4565b601f01601f19169290920160200192915050565b602081526000610f206020830184612920565b60006020828403121561297157600080fd5b5035919050565b6001600160a01b038116811461161557600080fd5b600080604083850312156129a057600080fd5b82356129ab81612978565b946020939093013593505050565b60008083601f8401126129cb57600080fd5b50813567ffffffffffffffff8111156129e357600080fd5b6020830191508360208285010111156129fb57600080fd5b9250929050565b60008060208385031215612a1557600080fd5b823567ffffffffffffffff811115612a2c57600080fd5b612a38858286016129b9565b90969095509350505050565b600080600060608486031215612a5957600080fd5b8335612a6481612978565b92506020840135612a7481612978565b929592945050506040919091013590565b600060208284031215612a9757600080fd5b8135610f2081612978565b606081526000612ab56060830186612920565b8281036020840152612ac78186612920565b905082810360408401526114548185612920565b600080600060408486031215612af057600080fd5b83359250602084013567ffffffffffffffff811115612b0e57600080fd5b612b1a868287016129b9565b9497909650939450505050565b60008060008060008060006080888a031215612b4257600080fd5b8735612b4d81612978565b9650602088013567ffffffffffffffff80821115612b6a57600080fd5b612b768b838c016129b9565b909850965060408a0135915080821115612b8f57600080fd5b612b9b8b838c016129b9565b909650945060608a0135915080821115612bb457600080fd5b50612bc18a828b016129b9565b989b979a50959850939692959293505050565b801515811461161557600080fd5b60008060408385031215612bf557600080fd5b8235612c0081612978565b91506020830135612c1081612bd4565b809150509250929050565b634e487b7160e01b600052604160045260246000fd5b60008060008060808587031215612c4757600080fd5b8435612c5281612978565b93506020850135612c6281612978565b925060408501359150606085013567ffffffffffffffff80821115612c8657600080fd5b818701915087601f830112612c9a57600080fd5b813581811115612cac57612cac612c1b565b604051601f8201601f19908116603f01168101908382118183101715612cd457612cd4612c1b565b816040528281528a6020848701011115612ced57600080fd5b82602086016020830137600060208483010152809550505050505092959194509250565b60008060008060008060608789031215612d2a57600080fd5b863567ffffffffffffffff80821115612d4257600080fd5b612d4e8a838b016129b9565b90985096506020890135915080821115612d6757600080fd5b612d738a838b016129b9565b90965094506040890135915080821115612d8c57600080fd5b50612d9989828a016129b9565b979a9699509497509295939492505050565b60008060408385031215612dbe57600080fd5b8235612dc981612978565b91506020830135612c1081612978565b600181811c90821680612ded57607f821691505b60208210811415612e0e57634e487b7160e01b600052602260045260246000fd5b50919050565b600060208284031215612e2657600080fd5b5051919050565b8183823760009101908152919050565b60208082526031908201527f4552433732313a207472616e736665722063616c6c6572206973206e6f74206f6040820152701ddb995c881b9bdc88185c1c1c9bdd9959607a1b606082015260800190565b6020808252818101527f4f776e61626c653a2063616c6c6572206973206e6f7420746865206f776e6572604082015260600190565b60208152816020820152818360408301376000818301604090810191909152601f909201601f19160101919050565b600060208284031215612f0457600080fd5b8151610f2081612bd4565b634e487b7160e01b600052603260045260246000fd5b60208082526010908201526f14185d5cd8589b194e881c185d5cd95960821b604082015260600190565b6020808252602c908201527f4c656d6d61546f6b656e3a2063616c6c6572206973206e6f74206f776e65722060408201526b1b9bdc88185c1c1c9bdd995960a21b606082015260800190565b60208082526041908201527f4c656d6d61546f6b656e3a206c656d6d6120697320696e76616c69643a20646f60408201527f657320697420636f6e7461696e20696e76616c696420636861726163746572736060820152603f60f81b608082015260a00190565b60006020828403121561301457600080fd5b8151610f2081612978565b634e487b7160e01b600052601160045260246000fd5b6000828210156130475761304761301f565b500390565b6000821982111561305f5761305f61301f565b500190565b60208082526032908201527f4552433732313a207472616e7366657220746f206e6f6e20455243373231526560408201527131b2b4bb32b91034b6b83632b6b2b73a32b960711b606082015260800190565b600083516130c88184602088016128f4565b8351908301906130dc8183602088016128f4565b01949350505050565b600082516130f78184602087016128f4565b9190910192915050565b6001600160a01b038581168252841660208201526040810183905260806060820181905260009061145490830184612920565b60006020828403121561314657600080fd5b8151610f20816128c1565b60006000198214156131655761316561301f565b5060010190565b634e487b7160e01b600052601260045260246000fd5b6000826131915761319161316c565b500490565b6000826131a5576131a561316c565b500690565b634e487b7160e01b600052603160045260246000fdfea26469706673582212209dcd36653f7f6d25bb49bad852f2c150c57f55bccdb9397dab44835680c94f7f64736f6c634300080900334c656d6d61546f6b656e3a206164647265737320646f6573206e6f7420696d704f776e61626c653a2063616c6c6572206973206e6f7420746865206f776e6572",
  "devdoc": {
    "events": {
      "Donation(address)": {
        "details": "Donation event for donors because they deserve it"
      }
    },
    "kind": "dev",
    "methods": {
      "approve(address,uint256)": {
        "details": "See {IERC721-approve}."
      },
      "balanceOf(address)": {
        "details": "See {IERC721-balanceOf}."
      },
      "definition(uint256,string)": {
        "details": "named 'definition' because 'define' is a reserved keyword"
      },
      "getApproved(uint256)": {
        "details": "See {IERC721-getApproved}."
      },
      "isApprovedForAll(address,address)": {
        "details": "See {IERC721-isApprovedForAll}."
      },
      "name()": {
        "details": "See {IERC721Metadata-name}."
      },
      "owner()": {
        "details": "Returns the address of the current owner."
      },
      "ownerOf(uint256)": {
        "details": "See {IERC721-ownerOf}."
      },
      "paused()": {
        "details": "Returns true if the contract is paused, and false otherwise."
      },
      "renounceOwnership()": {
        "details": "Leaves the contract without owner. It will not be possible to call `onlyOwner` functions anymore. Can only be called by the current owner. NOTE: Renouncing ownership will leave the contract without an owner, thereby removing any functionality that is only available to the owner."
      },
      "safeTransferFrom(address,address,uint256)": {
        "details": "See {IERC721-safeTransferFrom}."
      },
      "safeTransferFrom(address,address,uint256,bytes)": {
        "details": "See {IERC721-safeTransferFrom}."
      },
      "setApprovalForAll(address,bool)": {
        "details": "See {IERC721-setApprovalForAll}."
      },
      "symbol()": {
        "details": "See {IERC721Metadata-symbol}."
      },
      "tokenByIndex(uint256)": {
        "details": "See {IERC721Enumerable-tokenByIndex}."
      },
      "tokenOfOwnerByIndex(address,uint256)": {
        "details": "See {IERC721Enumerable-tokenOfOwnerByIndex}."
      },
      "totalSupply()": {
        "details": "See {IERC721Enumerable-totalSupply}."
      },
      "transferFrom(address,address,uint256)": {
        "details": "See {IERC721-transferFrom}."
      },
      "transferOwnership(address)": {
        "details": "Transfers ownership of the contract to a new account (`newOwner`). Can only be called by the current owner."
      }
    },
    "version": 1
  },
  "userdoc": {
    "kind": "user",
    "methods": {
      "constructor": {
        "notice": "Creates the main Lexiconomy smart contract instance."
      },
      "donate()": {
        "notice": "Thank you :)"
      }
    },
    "version": 1
  },
  "storageLayout": {
    "storage": [
      {
        "astId": 222,
        "contract": "contracts/Lexiconomy.sol:Lexiconomy",
        "label": "_name",
        "offset": 0,
        "slot": "0",
        "type": "t_string_storage"
      },
      {
        "astId": 224,
        "contract": "contracts/Lexiconomy.sol:Lexiconomy",
        "label": "_symbol",
        "offset": 0,
        "slot": "1",
        "type": "t_string_storage"
      },
      {
        "astId": 228,
        "contract": "contracts/Lexiconomy.sol:Lexiconomy",
        "label": "_owners",
        "offset": 0,
        "slot": "2",
        "type": "t_mapping(t_uint256,t_address)"
      },
      {
        "astId": 232,
        "contract": "contracts/Lexiconomy.sol:Lexiconomy",
        "label": "_balances",
        "offset": 0,
        "slot": "3",
        "type": "t_mapping(t_address,t_uint256)"
      },
      {
        "astId": 236,
        "contract": "contracts/Lexiconomy.sol:Lexiconomy",
        "label": "_tokenApprovals",
        "offset": 0,
        "slot": "4",
        "type": "t_mapping(t_uint256,t_address)"
      },
      {
        "astId": 242,
        "contract": "contracts/Lexiconomy.sol:Lexiconomy",
        "label": "_operatorApprovals",
        "offset": 0,
        "slot": "5",
        "type": "t_mapping(t_address,t_mapping(t_address,t_bool))"
      },
      {
        "astId": 1176,
        "contract": "contracts/Lexiconomy.sol:Lexiconomy",
        "label": "_ownedTokens",
        "offset": 0,
        "slot": "6",
        "type": "t_mapping(t_address,t_mapping(t_uint256,t_uint256))"
      },
      {
        "astId": 1180,
        "contract": "contracts/Lexiconomy.sol:Lexiconomy",
        "label": "_ownedTokensIndex",
        "offset": 0,
        "slot": "7",
        "type": "t_mapping(t_uint256,t_uint256)"
      },
      {
        "astId": 1183,
        "contract": "contracts/Lexiconomy.sol:Lexiconomy",
        "label": "_allTokens",
        "offset": 0,
        "slot": "8",
        "type": "t_array(t_uint256)dyn_storage"
      },
      {
        "astId": 1187,
        "contract": "contracts/Lexiconomy.sol:Lexiconomy",
        "label": "_allTokensIndex",
        "offset": 0,
        "slot": "9",
        "type": "t_mapping(t_uint256,t_uint256)"
      },
      {
        "astId": 1512,
        "contract": "contracts/Lexiconomy.sol:Lexiconomy",
        "label": "_tokenURIs",
        "offset": 0,
        "slot": "10",
        "type": "t_mapping(t_uint256,t_string_storage)"
      },
      {
        "astId": 122,
        "contract": "contracts/Lexiconomy.sol:Lexiconomy",
        "label": "_paused",
        "offset": 0,
        "slot": "11",
        "type": "t_bool"
      },
      {
        "astId": 7,
        "contract": "contracts/Lexiconomy.sol:Lexiconomy",
        "label": "_owner",
        "offset": 1,
        "slot": "11",
        "type": "t_address"
      },
      {
        "astId": 2645,
        "contract": "contracts/Lexiconomy.sol:Lexiconomy",
        "label": "proxyRegistryAddress",
        "offset": 0,
        "slot": "12",
        "type": "t_address"
      },
      {
        "astId": 2741,
        "contract": "contracts/Lexiconomy.sol:Lexiconomy",
        "label": "lemmas",
        "offset": 0,
        "slot": "13",
        "type": "t_mapping(t_uint256,t_struct(Lemma)2736_storage)"
      },
      {
        "astId": 2750,
        "contract": "contracts/Lexiconomy.sol:Lexiconomy",
        "label": "pricer",
        "offset": 0,
        "slot": "14",
        "type": "t_contract(Pricer)3465"
      },
      {
        "astId": 2786,
        "contract": "contracts/Lexiconomy.sol:Lexiconomy",
        "label": "lemmaValidator",
        "offset": 0,
        "slot": "15",
        "type": "t_contract(StringValidator)3478"
      }
    ],
    "types": {
      "t_address": {
        "encoding": "inplace",
        "label": "address",
        "numberOfBytes": "20"
      },
      "t_array(t_uint256)dyn_storage": {
        "base": "t_uint256",
        "encoding": "dynamic_array",
        "label": "uint256[]",
        "numberOfBytes": "32"
      },
      "t_bool": {
        "encoding": "inplace",
        "label": "bool",
        "numberOfBytes": "1"
      },
      "t_contract(Pricer)3465": {
        "encoding": "inplace",
        "label": "contract Pricer",
        "numberOfBytes": "20"
      },
      "t_contract(StringValidator)3478": {
        "encoding": "inplace",
        "label": "contract StringValidator",
        "numberOfBytes": "20"
      },
      "t_mapping(t_address,t_bool)": {
        "encoding": "mapping",
        "key": "t_address",
        "label": "mapping(address => bool)",
        "numberOfBytes": "32",
        "value": "t_bool"
      },
      "t_mapping(t_address,t_mapping(t_address,t_bool))": {
        "encoding": "mapping",
        "key": "t_address",
        "label": "mapping(address => mapping(address => bool))",
        "numberOfBytes": "32",
        "value": "t_mapping(t_address,t_bool)"
      },
      "t_mapping(t_address,t_mapping(t_uint256,t_uint256))": {
        "encoding": "mapping",
        "key": "t_address",
        "label": "mapping(address => mapping(uint256 => uint256))",
        "numberOfBytes": "32",
        "value": "t_mapping(t_uint256,t_uint256)"
      },
      "t_mapping(t_address,t_uint256)": {
        "encoding": "mapping",
        "key": "t_address",
        "label": "mapping(address => uint256)",
        "numberOfBytes": "32",
        "value": "t_uint256"
      },
      "t_mapping(t_uint256,t_address)": {
        "encoding": "mapping",
        "key": "t_uint256",
        "label": "mapping(uint256 => address)",
        "numberOfBytes": "32",
        "value": "t_address"
      },
      "t_mapping(t_uint256,t_string_storage)": {
        "encoding": "mapping",
        "key": "t_uint256",
        "label": "mapping(uint256 => string)",
        "numberOfBytes": "32",
        "value": "t_string_storage"
      },
      "t_mapping(t_uint256,t_struct(Lemma)2736_storage)": {
        "encoding": "mapping",
        "key": "t_uint256",
        "label": "mapping(uint256 => struct LemmaToken.Lemma)",
        "numberOfBytes": "32",
        "value": "t_struct(Lemma)2736_storage"
      },
      "t_mapping(t_uint256,t_uint256)": {
        "encoding": "mapping",
        "key": "t_uint256",
        "label": "mapping(uint256 => uint256)",
        "numberOfBytes": "32",
        "value": "t_uint256"
      },
      "t_string_storage": {
        "encoding": "bytes",
        "label": "string",
        "numberOfBytes": "32"
      },
      "t_struct(Lemma)2736_storage": {
        "encoding": "inplace",
        "label": "struct LemmaToken.Lemma",
        "members": [
          {
            "astId": 2731,
            "contract": "contracts/Lexiconomy.sol:Lexiconomy",
            "label": "lemma",
            "offset": 0,
            "slot": "0",
            "type": "t_string_storage"
          },
          {
            "astId": 2733,
            "contract": "contracts/Lexiconomy.sol:Lexiconomy",
            "label": "definition",
            "offset": 0,
            "slot": "1",
            "type": "t_string_storage"
          },
          {
            "astId": 2735,
            "contract": "contracts/Lexiconomy.sol:Lexiconomy",
            "label": "example",
            "offset": 0,
            "slot": "2",
            "type": "t_string_storage"
          }
        ],
        "numberOfBytes": "96"
      },
      "t_uint256": {
        "encoding": "inplace",
        "label": "uint256",
        "numberOfBytes": "32"
      }
    }
  }
}